:100000000C9499000C94B6000C94B6000C94B600B5
:100010000C94B6000C94B6000C94B6000C94B60088
:100020000C94B6000C94B6000C94B6000C94B60078
:100030000C94B6000C94B6000C94B6000C94B60068
:100040000C94B6000C94B6000C94B6000C94B60058
:100050000C94B6000C94B6000C94B6000C94B60048
:100060000C94B6000C94B600291158117711961112
:10007000B511C811E6111812B51376146015A9153B
:10008000D0150B1164169A19301244124B125E12DD
:100090006812761288129D12B612C612D712E41296
:1000A000F1120113111321132E134D136A13781338
:1000B00086139213A013EE13F71300140A141914E5
:1000C000281431143A144D14581464148D149414D3
:1000D0009B14A414B814CD14D214F014DD14FE141F
:1000E000FC14E114EC14F81401150515121515157E
:1000F00015151D1529152D153D158D16A616BE169F
:10010000DA16F1160B17251743175A1775178F179D
:10011000AD17B717C417DF17FD171B183C18571872
:1001200075189318B418D718FD182C196219661988
:100130007D1911241FBECFEFD4E0DEBFCDBF11E08B
:10014000A0E0B1E0EEEBF5E302C005900D92AE3D0C
:10015000B107D9F723E0AEEDB1E001C01D92A035A3
:10016000B207E1F70E9409100C94DD1A0C9400000C
:100170002F923F924F925F926F927F928F929F92B7
:10018000AF92BF92CF92DF92EF92FF920F931F93A5
:10019000CF93DF9300D000D000D0CDB7DEB79E83E1
:1001A0008D83E090E10181589F4FE11005C0ED8102
:1001B000FE819E838D8301C0FC01408101815281BB
:1001C000D380011101C001E0511101C051E0109133
:1001D0000001E10FF11DA080DF0111972C91822F0A
:1001E00090E09C838B838180682C712CCF01409799
:1001F000DC019C90492C512CF0882F2C312C01973C
:10020000DC01BC900296DC01CC9077856189E42FFB
:10021000F0E0FA83E98331978B819C818E179F07E9
:1002200051F091E080E0211101C090E0292F382F9A
:1002300080E090E004C020E030E081E090E06E16C5
:100240007F0611F4019604C0882011F02F5F3F4F04
:100250004E165F0611F4019604C0992011F02F5F2D
:100260003F4F2E163F0611F4019604C0FF2011F0F7
:100270002F5F3F4FB41202C0019604C0BB2011F0A3
:100280002F5F3F4FC41202C0019604C0CC2011F072
:100290002F5F3F4F741302C0019604C0772311F003
:1002A0002F5F3F4F641302C0019604C0662311F014
:1002B0002F5F3F4FA12FAF77FA2EA11011C0ED8114
:1002C000FE81EA0FF11D652F70E00E94F019D62E15
:1002D000602F70E0C9010E94F0196D0D608328C085
:1002E0008A2D90E08E179F07F4F4ED81FE81EA0FCE
:1002F000F11DAB81BC818A0F9B1F860D971D840D5C
:10030000951D820D931D8B0D911D8C0D911D870FD9
:10031000911D860F911DB9016F5F7F4F0E94F019EB
:10032000D60ED08205C0ED81FE81EA0FF11D10824C
:10033000AD81BE81AF0DB11D8C9190E0E981FA8154
:100340008E179F0714F041504C931F5F1F3618F40F
:100350001093000107C081E18093000181E0E8264D
:10036000E092E10126960FB6F894DEBF0FBECDBF36
:10037000DF91CF911F910F91FF90EF90DF90CF9081
:10038000BF90AF909F908F907F906F905F904F90B5
:100390003F902F900895CF93DF93DC014C91E09133
:1003A000E001EF5FEF70E093E0018E2F8295807F98
:1003B0008F5FF0E09F012F5F3F4F322F3295307FEC
:1003C00094E0EE0FFF1F9A95E1F7EA0FFB1F21E083
:1003D00050E06FEF982F920FED01C90FD11D98815A
:1003E000913810F094E001C090E0EF017181713814
:1003F00008F0926031967881713808F09160EA01D6
:1004000002C0D595C7959A95E2F7922F930F7C2F4E
:10041000ED01C90FD11D70FF02C0688301C01882B1
:100420002F5F2031B9F6DF91CF9108952F923F923F
:100430004F925F926F927F928F929F92AF92BF92F4
:10044000CF92DF92EF92FF920F931F93CF93DF93A0
:10045000CDB7DEB72A970FB6F894DEBF0FBECDBF7B
:100460006090DE019C0121583F4F611003C0FC01E8
:10047000C90101C0F9016F0121E1C20ED11C7F0148
:1004800030E1E30EF11C8F010E5E1F4FBF016F5F65
:100490007F4FAF014F5D5F4FDF011296BA87A9878B
:1004A0009F01205E3F4F38872F839096BA83A983A0
:1004B0009C012F5E3F4F3E832D8381E1782E552492
:1004C0005A94D6013D906D01D7014D907D01D80120
:1004D0002D908D01DB018D90BD01DA019D90AD0164
:1004E000A190A985BA85BD90BA87A987AF81B88543
:1004F0009D91B887AF83A981BA818D91BA83A98371
:10050000B22DB170242D2170422E4B0E382D31703A
:10051000832E840CA92DA1708A0EBA2DB170AB2E3A
:10052000A80C2B2D2170A20E91709A0D8170890F4D
:10053000833051F0332D31703B831C82AB81BC8101
:10054000A80FB11D139721F4AD81BE815C9203C049
:10055000AD81BE811C9273942D813E812F5F3F4FF0
:100560003E832D833EE67312ACCF81E06826609215
:10057000DE012A960FB6F894DEBF0FBECDBFDF9125
:10058000CF911F910F91FF90EF90DF90CF90BF9090
:10059000AF909F908F907F906F905F904F903F9023
:1005A0002F900895862F9091E801911102C091E05B
:1005B0000CC0913019F41092E8010895923011F4B2
:1005C00093E003C0933019F492E09093E80108950A
:1005D0002091FB02820F911DFC0180818093FA0221
:1005E00081E080934F03862F0895DC012091ED0177
:1005F00034E19091FB02FD01E90FF11D408144239C
:1006000099F0211102C09F5F0BC0213011F491506D
:1006100007C0223011F4905F03C0233019F49051C9
:100620009093FB02315029F7862F08952091FB0209
:10063000FC01E20FF11D3081332339F02150FC0120
:10064000E20FF11D80818823A9F09091E8019111BA
:1006500002C081E008C0913019F41092E8010BC08B
:10066000923021F483E08093E80105C0933019F4BF
:1006700082E0F9CF3083862F0895362F862F67E0EA
:100680000E94E4192091FA029330C1F028F49130CD
:1006900051F0923079F005C09530B9F090F0963075
:1006A000C9F0220F1AC0220F220F2093FA02909352
:1006B0004F0318C0220F220F220F0FC02295207F58
:1006C0000CC02295220F207E08C02295220F220FF7
:1006D000207C03C02795222727952093FA0281E0EA
:1006E00080934F038091FC02830F08952FEF260F14
:1006F000FC01E20FF11D20812095208321E0260FCF
:10070000FC01E20FF11D8081809580838091FC02C5
:10071000860F089521E0260FDC01A20FB11D2FEFF7
:10072000260FFC01E20FF11D9C918081890F8093BF
:10073000FA0281E080934F038091FC02860F0895B6
:10074000FC01E60FF11D2081362F321BFC01E30F67
:10075000F11D3FEF3083260FFC01E20FF11D3083C6
:1007600082E0860F0895FC01E60FF11D208127FD30
:100770000DC03FEF360FDC01A30FB11D2C9320817C
:1007800031E0360FFC01E30FF11D20838091FC0264
:10079000860F089521E0260FFC01E20FF11D108263
:1007A0002FEF260FFC01E20FF11D10828091FC0259
:1007B000880F860F0895CF93DF93FC01A62F309109
:1007C0003D03462F50E037FF0CC0EC01C40FD51F8E
:1007D000888163E00E94E419913091F490933D0385
:1007E0001CC032306CF0EC01C40FD51F888163E06F
:1007F0000E94E419911104C08FEF80933D030DC056
:10080000E40FF51F208132039001112484E0359517
:1008100027958A95E1F72093FC028091FC028A0FCC
:10082000DF91CF91089583E0860F0895262F30E061
:1008300042E0460FFC01E40FF11D4081F901E40F95
:10084000F11DDC01AE0FB11D41E0460FFC01E40FCC
:10085000F11D4081240F311DFC01E20FF11D9C911F
:100860008081890F8C9383E0860F0895262F30E0D6
:1008700042E0460FFC01E40FF11D4081F901E40F55
:10088000F11DDC01AE0FB11D41E0460FFC01E40F8C
:10089000F11D4081240F311DFC01E20FF11D8C91EF
:1008A0009081891B8C9383E0860F089521E0260FA9
:1008B000820F911DFC018081860F089522E0260F92
:1008C000FC01E20FF11D2081260FFC01E20FF11D5A
:1008D0002081211106C06F5FFC01E60FF11D8081B0
:1008E000089583E0860F08956F5F860F911DFC01C8
:1008F0008081089522E0260FFC01E20FF11D208186
:10090000260FFC01E20FF11D2081215020832111CF
:1009100006C06F5FFC01E60FF11D8081089583E042
:10092000860F089583E0860F0895262F30E042E079
:10093000460FFC01E40FF11D4081F901E40FF11DA8
:10094000AF01FC01E40FF11D41E0460FDC01A40FF3
:10095000B11D4C91240F311DDC01A20FB11D20816E
:100960008C91281711F086E001C083E0860F08956E
:1009700022E0260F820F911DFC0180818093FA02F4
:1009800081E080934F0383E0860F08952FEF260FB9
:10099000DC01A20FB11D21E0260FFC01E20FF11DC9
:1009A0009C918081890F8093FA0281E080934F03AC
:1009B0008091FC02860F089521E0260FFC01E20FD2
:1009C000F11D2081121634F4FC01E60FF11D808127
:1009D0008F5F80838091FC02860F089521E0260FAF
:1009E000FC01E20FF11D208127FF05C0FC01E60F8D
:1009F000F11D81E880838091FC02860F089590911B
:100A0000FB029F5F9093FB0281E0860F0895909117
:100A1000FB0291509093FB0281E0860F0895209194
:100A2000FB02FC01E20FF11D90819F5F908381E04A
:100A3000860F08952091FB02FC01E20FF11D9081C9
:100A40009150908381E0860F08952091FB02820FE0
:100A5000911DFC0180818093FA0281E080934F0315
:100A6000860F0895AC01262F8091FB02FA01E80F52
:100A7000F11D808181111CC0EFE7E60F31E0F9E044
:100A80002F5F91E02F3F08F490E0920FDA01A90F59
:100A9000B11D8C916F2F0E94E419963011F43F5FC5
:100AA00003C0973009F43150332311F02E13E8CFEF
:100AB00081E0820F0895AC01262F8091FB02FA019C
:100AC000E80FF11D81E08083E1E8E60F30E0F9E016
:100AD00091E02F3F08F490E0920FDA01A90FB11DC9
:100AE0008C916F2F0E94E419963011F43F5F03C080
:100AF000973009F431509FEF920F332321F09E1766
:100B000011F0292FE5CF822F08959091FB029F5F6E
:100B10009093FB028091FC02860F08959091FB0256
:100B200091509093FB028091FC02860F08952091D2
:100B3000FB02FC01E20FF11D90819F5F9083809189
:100B4000FC02860F08952091FB02FC01E20FF11DCB
:100B50009081915090838091FC02860F089520919E
:100B6000FB02820F911DFC0180818093FA0281E0DB
:100B700080934F038091FC02860F08958091FB02C1
:100B80008093FA0281E080934F038091FC02860FEC
:100B90000895FC01E60FF11D90819F5F9083809185
:100BA000FC02860F0895FC01E60FF11D9081915023
:100BB00090838091FC02860F0895FC01E60FF11DE1
:100BC0009081990F90838091FC02860F0895FC011B
:100BD000E60FF11D9081990F990F90838091FC028F
:100BE000860F0895FC01E60FF11D9081990F990F72
:100BF000990F90838091FC02860F089521E0260FC3
:100C0000FC01E20FF11D2081211106C02091FB02A1
:100C1000FC01E20FF11D60818091FC02860F0895B6
:100C200021E0260F820F911DFC01808187FD8091BC
:100C3000FC02860F0895462F50E09A012150310999
:100C400071E0760F2F3FEFEF3E0711F42FEF30E00A
:100C5000FC01E20FF31F208127FD08C0FC01E40F17
:100C6000F51F2081FC01E70FF11D20838091FC021C
:100C7000860F089521E0260FFC01E20FF11D20816F
:100C8000FC01E20FF11D2081FC01E60FF11D208324
:100C90008091FC02860F08958091FC02860F0895D2
:100CA00080913D0387FF02C081E001C08FEF8093F8
:100CB0003D038091FC02860F08958091FC02860F0F
:100CC0000895860F911DFC01808187BD8091FC02F3
:100CD000860F0895AC01862F2091ED019091FB02C3
:100CE000211102C09F5F0BC0213011F4915007C049
:100CF000223011F4905F03C0233019F49051909387
:100D0000FB029091FB02FA01E90FF11D9081911114
:100D100014C09091E801911102C091E00CC0913093
:100D200019F41092E8010895923011F493E003C091
:100D3000933019F492E09093E8010895AC01862F66
:100D40002091ED019091FB02211102C091500BC046
:100D5000213011F49F5F07C0223011F4905103C07D
:100D6000233019F4905F9093FB029091FB02FA01FB
:100D7000E90FF11D9081911114C09091E80191113A
:100D800002C091E00CC0913019F41092E80108956E
:100D9000923011F493E003C0933019F492E09093F1
:100DA000E8010895862F9091ED01911104C0909172
:100DB000FB02905F11C0913021F49091FB029051A1
:100DC0000BC0923021F49091FB029F5F05C09330DD
:100DD00029F49091FB0291509093FB020895862F85
:100DE0009091ED01911104C09091FB02905111C0BE
:100DF000913021F49091FB02905F0BC0923021F46E
:100E00009091FB02915005C0933029F49091FB0220
:100E10009F5F9093FB0208952091FB02FC01E20F7B
:100E2000F11D8081811115C09091E801911102C0DE
:100E300081E008C0913019F41092E8010BC09230A3
:100E400021F483E08093E80105C0933019F482E037
:100E5000F9CF1082862F08959C018091EC018C308F
:100E600089F491E0960FF901E60FF11D8081F901F7
:100E7000E90FF11D80836F3F49F48DE08093EC0111
:100E800080E008958091FC02860F0895892F0895CF
:100E9000262F9091EC0181E0890F8093EC016CE3A7
:100EA0000E94E41991110AC09091FA0290959093D2
:100EB000FA0281E080934F03822F08959091FC0203
:100EC000822F890F089590917C00987F90937C00E9
:100ED00090917C008770982B90937C0080917A0091
:100EE000806480937A0080917A0084FFFCCF8091A7
:100EF00079000895AF92BF92CF92DF92EF92FF9266
:100F00000F931F93CF93DF93EC01E12C0FEF10E0D1
:100F10008881E81668F581E00E946307D82E85E095
:100F20000E946307D80E0E946A1A5C0181E00E9449
:100F30006307C82E85E00E946307F82E87E00E94B1
:100F40006307482FFE01ED0DF11DC501B8010E9498
:100F5000F0192F2D30E02C0D311D280F391F240FD3
:100F6000311D2F703327808128272083E394D0CF31
:100F7000DF91CF911F910F91FF90EF90DF90CF9075
:100F8000BF90AF9008950F931F93CF938C0181E092
:100F90000E946307C82F85E00E946307C80F90E096
:100FA000292F2C0FF8018081981740F4F801E20FE7
:100FB000F11D20812F5F20839F5FF2CFCF911F9182
:100FC0000F9108950F931F93CF938C0181E00E949E
:100FD0006307C82F85E00E946307982F9C0F20E0CD
:100FE000F8018081281768F481E0890FF801E80F83
:100FF000F11D8081F801E90FF11D80839E5F2F5F55
:10100000EFCFCF911F910F9108951F93CF93DF934F
:10101000EC0181E00E946307182F85E00E946307BE
:10102000810F982F3881292F281B231760F49F5F89
:101030002981290FFE01E20FF11D2081FE01E90F38
:10104000F11D2083EFCFDF91CF911F9108955F9223
:101050006F927F928F929F92AF92BF92CF92DF92C8
:10106000EF92FF920F931F93CF93DF938C01A09089
:10107000E601FC01E158FF4FA11003C06F01EC0134
:1010800002C0EF016C0181E00E94630785E00E94CD
:101090006307D8011196EC9011971296BC90E1105D
:1010A00002C0EE24E394B11002C0BB24B394F60155
:1010B00031966E01BFEFCB1ADB0AFF24F394D801FF
:1010C00014967C90872D80958F0D8F77DE01A80F69
:1010D000B11D4C91D8013C9121E0431320E091E0F7
:1010E000411101C090E08F5F8F77DE01A80FB11D25
:1010F0005C91531301C02F5F51119F5F8F5F8F77FA
:10110000DE01A80FB11D6C91631301C02F5F611147
:101110009F5F7A947A94870D8F77DE01A80FB11DB7
:101120009C90931201C02F5F91109F5F8F5F8F770C
:10113000DE01A80FB11D8C90831201C02F5F8110BA
:101140009F5F71E0780F7F77DE01A70FB11D6C9074
:10115000631201C02F5F61109F5F770D7F77DE0103
:10116000A70FB11D5C90531201C02F5F51109F5FFC
:101170007F5F7F77DE01A70FB11D7C90731201C0E6
:101180002F5F71109F5F7F5F7F77DE01A70FB11D1B
:101190007C91731301C02F5F71119F5FD6018D91F8
:1011A0006D0181110CC0892F6E2D0E94E419382F1A
:1011B000822F6B2D0E94E419830F80831AC083173E
:1011C000B8F4450F640F960E890C680C650C670C1B
:1011D000760D672E712C692F70E06F5F7F4FC30112
:1011E0000E94F019D80113968C91680F608301C09A
:1011F0001082D8018C919081891708F48083F39430
:101200003196BFE7FB125BCF81E0A826A092E601F2
:10121000DF91CF911F910F91FF90EF90DF90CF90D2
:10122000BF90AF909F908F907F906F905F90089548
:101230004F925F926F927F928F929F92AF92BF92E6
:10124000CF92DF92EF92FF920F931F93CF93DF9392
:10125000EC017090E50181589F4F711004C0B82EC9
:10126000092F6E0103C06C01BC2E0D2F81E00E947E
:101270006307182F85E00E946307810FF980EA80D9
:10128000F11002C0FF24F394E11002C0EE24E394B5
:10129000EB2DF02F8601A82EA1949FE7692E681AE6
:1012A0008FEF8A0DDE01A80FB11D7C91488150E0BF
:1012B00041505109872F90E08417950731F021E0C4
:1012C000711101C020E080E002C020E081E0DE0179
:1012D000AA0DB11D6C91A62FB0E0A417B50711F4AB
:1012E0008F5F02C061112F5FA394DE01AA0DB11DB3
:1012F0003C91A32FB0E0A417B50711F48F5F02C093
:1013000031112F5F9C80BA2CB90C9EEF9B0DDE0132
:10131000A90FB11DDC90AD2DB0E0A417B50711F4F5
:101320008F5F02C0D1102F5F9FEF9B0DDE01A90FD1
:10133000B11DCC90AC2DB0E0A417B50711F48F5FB0
:1013400002C0C1102F5FDE01AB0DB11D9C91A92F12
:10135000B0E0A417B50711F48F5F02C091112F5FA1
:101360009B0CAEEFA90D2E014A0E511CD201BC9070
:10137000AB2DB0E0A417B50711F48F5F02C0B11018
:101380002F5FAFEFA90D2E014A0E511CD2018C9098
:10139000A82DB0E0A417B50711F48F5F02C081102B
:1013A0002F5FDE01A90DB11D9C90A92DB0E0A417FF
:1013B000B50711F48F5F02C091102F5FD8015D90C7
:1013C0008D0151100BC06E2D0E94E419382F822F11
:1013D0006F2D0E94E419830F80831BC0A52DB0E000
:1013E000A417B507ACF4862F870F830F890F8D0DD7
:1013F0008C0D890D8B0D880E882D90E0622F70E08A
:101400006F5F7F4F0E94F0198B81680F608301C06E
:1014100010828881482F50E0208130E02417350762
:1014200014F0815080833196A6103ACF81E078265F
:101430007092E501DF91CF911F910F91FF90EF9096
:10144000DF90CF90BF90AF909F908F907F906F90E4
:101450005F904F9008957F928F929F92AF92BF922C
:10146000CF92DF92EF92FF920F931F93CF93DF9370
:10147000EC012091E40181589F4F211105C0382FC4
:10148000292F5C2F4D2F04C0582F492F3C2F2D2F73
:10149000C880C294C69487E0C82289816AE00E940D
:1014A000E419982EE52EF42E032F122FB12CD12CF7
:1014B0009EEF892E81E00E946307782E85E00E94CE
:1014C0006307870D4B2D481B31E0340F232F280F66
:1014D000922F980F8FEF840FFE01E80FF11D80818E
:1014E000582F5170FE01E30FF11D3081832F817061
:1014F000850FFE01E40FF11D30813170830FFE0175
:10150000E20FF11D30813170830F3EEF320FFE018B
:10151000E30FF11D30813170830F2150FE01E20F86
:10152000F11D20812170820FFE01E90FF11D208144
:101530002170820F2EEF290FFE01E20FF11D208195
:101540002170820F9150FE01E90FF11D9081917081
:10155000890FA80EF7018081882389F18E3F79F1E8
:1015600080FD16C081E00E946307782E85E00E940E
:101570006307282F30E0C901870D911DA99C9001B8
:1015800011242817390724F0F7018081816017C0E2
:10159000F701808180FF11C081E00E946307782EEF
:1015A00085E00E946307282F30E0270D311DC21609
:1015B000D3061CF0F801808204C0F7018081F80195
:1015C0008083B394FFEFEF1AFF0A0F5F1F4F8FE77F
:1015D000B81270CF9091E40181E089278093E401F3
:1015E000DF91CF911F910F91FF90EF90DF90CF90FF
:1015F000BF90AF909F908F907F9008957F928F9231
:101600009F92AF92BF92CF92DF92EF92FF920F9391
:101610001F93CF93DF938C019090E301EC01C158AD
:10162000DF4F911003C06E01EC0101C06C0181E03D
:101630000E946307F82E85E00E9463078F0D8F7765
:1016400009F481E07E01F601812C282F30E0D801D9
:101650008C91482D481BDE01A40FB11D7C906701C1
:10166000A72CB12CD7018C9190E00196B9010E9472
:10167000F019A816B90609F47082D8018C91480FA8
:101680008FEF840FDE01A80FB11D7C90A72CB12C29
:10169000D7018C9190E00196B9010E94F019A8162B
:1016A000B90609F470824F5FDE01A40FB11D7C9072
:1016B000A72CB12CD7018C9190E00196B9010E9422
:1016C000F019A816B90609F47082D8018C918150DE
:1016D000480FDE01A40FB11D4C91BFEFEB1AFB0ABE
:1016E000A42EB12CD6018C9190E00196B9010E94F4
:1016F000F019A816B90609F4408383943196BFE720
:101700008B12A5CF81E098269092E301DF91CF91D3
:101710001F910F91FF90EF90DF90CF90BF90AF900F
:101720009F908F907F900895AF92BF92CF92DF925B
:10173000EF92FF920F931F93CF93DF93EC011091E1
:10174000E20181589F4F111105C0F82E092FDC2EA0
:10175000ED2E04C0D82EE92EFC2E0D2F81E00E9424
:101760006307C82E85E00E9463078C0DBE0141E02F
:10177000480FAD2CBE2CEF2DF02F582F5195550F43
:1017800090E00FEFF82EF094DB013D91BD012C911C
:101790002170E22E232F21702E0D392F381B6E0160
:1017A000C30ED11CD6013C913170230F3FEF390F8E
:1017B0006E01C30ED11CD6013C913170230F3EEF58
:1017C000340F6E01C30ED11CD6013C913170230F32
:1017D000392F380F6E01C30ED11CD6013C913170E8
:1017E000230F6E01C40ED11CD6013C913170230F22
:1017F000342F350F6E01C30ED11CD6013C913170D0
:10180000230F3F2D390F6E01C30ED11CD6013C9121
:101810003170230FD5013D915D0130FF06C02230AC
:1018200010F0243030F0108205C0233011F4008312
:1018300001C030839F5F4F5F31969F3709F0A4CF7F
:1018400081E018271093E201DF91CF911F910F9152
:10185000FF90EF90DF90CF90BF90AF9008950F93DF
:101860001F93CF93DF93EC0181E00E946307182F51
:1018700085E00E946307810F282F30E0AFEF8901D8
:10188000BFEFB9016F5F7F4FAE01460F511DFA01E7
:101890009081913810F094E001C090E0AE01420FC9
:1018A000511DFA014081413808F09260A8014A0FA9
:1018B000511DFE01E40FF11D4081413808F0916097
:1018C000280F488150E002C0559547959A95E2F758
:1018D00030E02C0F3D1FF90140FF02C0108201C013
:1018E000B083AF5F9B01AE3F61F6DF91CF911F9157
:1018F0000F9108954F925F927F928F929F92AF9235
:10190000BF92CF92DF92EF92FF920F931F93CF93EC
:10191000DF931F92CDB7DEB7FC019080E18080900D
:10192000DF0181589F4F811003C05F01FC0101C09E
:101930005C0185012F012FEF8AE0C82ED12CF12CFC
:10194000F80181918F01F2018083891510F08F5782
:1019500040C0882311F08F5F3BC081E1820F8F77F9
:1019600091EF920F9F77F501E90FF11D9081992377
:1019700011F09915C0F0F501E80FF11D8081882361
:1019800011F0891580F0822F8F77F501E80FF11D96
:101990008081882311F0891530F0F8018081882337
:1019A000C9F08915B8F481E029830E946307782E75
:1019B00085E00E946307482F50E0CA01870D911D02
:1019C000B6010E94F01929818E159F051CF481E053
:1019D000F2018083FFEF4F1A5F0A2F5F2E3709F065
:1019E000AFCF81E088268092DF010F90DF91CF9109
:1019F0001F910F91FF90EF90DF90CF90BF90AF902D
:101A00009F908F907F905F904F9008950F931F93BA
:101A1000CF93DF932091EC012D30C1F4C62F20919C
:101A20003E03260F8C01020F111D81E00E94630707
:101A3000D82F85E00E9463078D0FF8018083809185
:101A40003E038F5F80933E038C2F04C0C091FC0245
:101A5000862F8C0FDF91CF911F910F910895FF92E8
:101A60000F931F93CF93DF931F92CDB7DEB78C01F7
:101A700081E069830E946307F82E85E00E94630776
:101A80008F0D282F23709091FB026981211102C0D4
:101A90009F5F09C0213011F4915005C0223011F42C
:101AA000905F01C090519093FB028091FB02F8017E
:101AB000E80FF11D80818093FA0281E080934F034B
:101AC0008091FC02860F0F90DF91CF911F910F91B3
:101AD000FF900895CF92DF92EF92FF921F93CF93E2
:101AE000DF931F92CDB7DEB76C019091FB029F5F31
:101AF0007601E90EF11C81E069830E946307182FCB
:101B000085E00E946307810FF70180838091FB02CB
:101B1000F601E80FF11D80818093FA0281E0809345
:101B20004F038091FC026981860F0F90DF91CF9166
:101B30001F91FF90EF90DF90CF9008950F931F9328
:101B4000CF93DF93EC01162F81E0860FFE01E80FA3
:101B5000F11D80811816B4F481E00E946307082FFC
:101B600085E00E946307282F30E0C901800F911D96
:101B70006AE070E00E94F019049724F4C10FD11DAF
:101B80008FEF88838091FC02810FDF91CF911F91AD
:101B90000F9108950F931F93CF93DF93EC01162FAE
:101BA00081E0860FFE01E80FF11D808181111EC0CA
:101BB0008FEF860FFE01E80FF11D80811816B4F437
:101BC00081E00E946307082F85E00E946307282FA9
:101BD00030E0C901800F911D6AE070E00E94F019A9
:101BE000049724F4C10FD11D81E088838091FC0209
:101BF000810FDF91CF911F910F910895FF920F9365
:101C00001F93CF93DF931F92CDB7DEB72091FB02D6
:101C10008C01020F111D81E069830E946307F82E79
:101C200085E00E9463078F0DF8018083698181E060
:101C3000860F0F90DF91CF911F910F91FF90089524
:101C40001F93CF93DF931F92CDB7DEB781E06983F7
:101C50000E946307182F85E00E946307810F80931D
:101C6000FB028091FC026981860F0F90DF91CF917A
:101C70001F910895CF93DF931F92CDB7DEB781E018
:101C800069830E9463078093FB028091FC02698153
:101C9000860F0F90DF91CF91089581E00E94630736
:101CA0009091FC02890F0895FF920F931F93CF9399
:101CB000DF931F92CDB7DEB72091FB028C01020F9C
:101CC000111D81E069830E946307F82E85E00E9460
:101CD00063078F0DF80180838091FC026981860F74
:101CE0000F90DF91CF911F910F91FF9008950F9367
:101CF0001F93CF93DF931F92CDB7DEB78C01060FF2
:101D0000111D81E069830E946307F801808380913F
:101D1000FC026981860F0F90DF91CF911F910F9187
:101D20000895FF920F931F93CF93DF931F92CDB728
:101D3000DEB78C01060F111D81E069830E946307E5
:101D4000F82E85E00E9463078F0DF8018083809153
:101D5000FC026981860F0F90DF91CF911F910F9147
:101D6000FF900895282F30E0215031094091EE0175
:101D7000042E000C550B81E0421753070CF480E051
:101D80000895E091EE01EE3038F4EF5FE093EE015C
:101D9000F0E0E15CFC4F808308959091EE0190317A
:101DA00058F4E92F092E000CFF0BE15CFC4F8081F9
:101DB00091509093EE01089580E00895E091EE0136
:101DC000E03138F40E2E000CFF0BE15CFC4F8081FB
:101DD000089580E00895E82FF0E0E151FE4F808102
:101DE0000895E82FF0E0E151FE4F6083089550E040
:101DF00002C0559547956A95E2F740FD02C08150B3
:101E000008958F5F0895ECE7F0E080818F778083FD
:101E1000808180648083808180628083EAE7F0E053
:101E200080818460808380818068808317B818B83F
:101E30000895AF92BF92CF92DF92EF92FF921F93DD
:101E4000CF93DF93EC017C018FEFE80EF11CCC24E3
:101E5000CA94D12C0E946A1A5C0181E00E94630737
:101E6000182F85E00E946307180F87E00E94630720
:101E70008F70212F280FC501B6010E94F019820F23
:101E80008993CE15DF0531F7DF91CF911F91FF9038
:101E9000EF90DF90CF90BF90AF900895EF92FF92B8
:101EA0001F93CF93DF931F92CDB7DEB77C0181E004
:101EB00069830E946307182F85E00E946307810FE2
:101EC0006981681B91E0960FF701E90FF11D91E020
:101ED0002081213009F090E022E0260FF701E20F87
:101EE000F11D2081213009F49F5F6D5FF701E60F3E
:101EF000F11D2081213009F49F5F680F2EEF260F1E
:101F0000F701E20FF11D2081213009F49F5FF701F5
:101F1000E60FF11D2081213009F49F5F680F8EEFDD
:101F2000860FF701E80FF11D8081813009F49F5F72
:101F30008FEF860FF701E80FF11D8081813009F4E2
:101F40009F5FF701E60FF11D8081813009F49F5FEB
:101F5000915081E0923008F080E00F90DF91CF91B6
:101F60001F91FF90EF900895AF92BF92CF92DF92B2
:101F7000EF92FF920F931F93CF93DF93EC01C090EA
:101F8000E7019C0121583F4FC11004C0E82EDD2E0F
:101F9000E90102C0E22ED32E81E00E94630785E0B2
:101FA0000E9463070E2D1D2DF12C81E8B82EAA2466
:101FB000AA94F8012081211102C0188214C0213096
:101FC00011F4A88210C02F3F11F4B8820CC0213840
:101FD00038F06F2D8E2D9D2D0E944E0F813011F007
:101FE000F80180818883F3940F5F1F4F2196FFE7EC
:101FF000FF12DFCF81E08C258093E701DF91CF9145
:102000001F910F91FF90EF90DF90CF90BF90AF9016
:102010000895CF93DF93CDB7DEB7CB5DD1090FB66F
:10202000F894DEBF0FBECDBF0E94030F81E00E9477
:102030006307182F85E00E94630790E0810F911DD0
:102040000E946F1A88E0E5E0F1E0DE01AF52BF4F79
:1020500001900D928A95E1F780E1EDE0F1E0DE017B
:10206000AB55BF4F01900D928A95E1F782E3EDE108
:10207000F1E0DE01119601900D928A95E1F78EE074
:10208000EFE4F1E0DE01AD53BF4F01900D928A9570
:10209000E1F782E1EDE5F1E0DE01AD56BF4F0190E1
:1020A0000D928A95E1F78EE0EFE6F1E0DE01AB54A8
:1020B000BF4F01900D928A95E1F788E1EDE7F1E0DD
:1020C000DE01AD5ABF4F01900D928A95E1F786E18E
:1020D000E5E9F1E0DE01A559BF4F01900D928A9527
:1020E000E1F782E1EBEAF1E0DE01AF57BF4F01908B
:1020F0000D928A95E1F780E2EDEBF1E0DE01D396F7
:1021000001900D928A95E1F781E08093FB02809324
:102110003D038FEE91E00E94190F0DEF12E060E495
:10212000E62EE00E81E00E946307F82E85E00E9413
:1021300063078F0DD8018D938D01EA12F3CF80E4F0
:102140008AB9F89483E884BD83E085BD8FE38093EA
:102150007E0081E08093FC0280933D031092E801B1
:102160001092ED01E12CF12C00E0D12C612C712CAE
:10217000212C312C412C512C10E080E00E9463076F
:10218000C82E83E00E946307282F30E0C9018C0D20
:10219000911D4C0134E0880C991C3A95E1F79401AB
:1021A0003695279536952795C752DF4F3983288373
:1021B000C95DD040540155E0B694A7945A95E1F713
:1021C00082E00E946307C82E84E00E9463078C0DA2
:1021D000382F3F70C32E41F4E12FF0E0E151FE4F64
:1021E000C080C2942FE0C2229FEF491A590A4A14B4
:1021F0005B0410F40C94A819E82FE295EF708E2F71
:1022000090E0FC013197EF30F10508F0EEC4EC5C92
:10221000FF4F0C94041AE12FF0E0E151FE4F808152
:1022200069E10E94E419FE013196E90FF11DE90F01
:10223000F11D0190F081E02D612F8FEE91E0099565
:10224000182F80913D038093FC02412C512C0C945B
:10225000A819E12FF0E0E151FE4F808167E00E9474
:10226000E419FE01ED53FF4FE90FF11DE90FF11DD8
:102270000190F081E02D612F8FEE91E00995182FEC
:10228000E82FF0E0E151FE4F80818F3F49F49091BB
:102290003D0397FF02C081E001C0911180933D038F
:1022A00080913D038093FC02412C512C0C94A81981
:1022B000E12FF0E0E151FE4F808169E00E94E419D6
:1022C000FE01ED56FF4FE90FF11DE90FF11D0190E1
:1022D000F081E02D612F8FEE91E00995182F80910C
:1022E0003D038093FC02412C512C0C94A819E12F42
:1022F000F0E0E151FE4F808167E00E94E419FE01A9
:10230000EB54FF4FE90FF11DE90FF11D0190F08132
:10231000E02D612F8FEE91E00995182F80913D03FC
:102320008093FC02412C512C0C94A819E12FF0E071
:10233000E151FE4F80816CE00E94E419FE01ED5AEC
:10234000FF4FE90FF11DE90FF11D0190F081E02D24
:10235000612F8FEE91E00995182F80913D038093B6
:10236000FC02412C512C0C94A81981E00E946307B7
:10237000B82E85E00E946307E12FF0E0E151FE4FA7
:102380008B0D808380913D03180F412C512CE0C7A9
:10239000E12FF0E0E151FE4F808169E00E94E419F5
:1023A000FE01EF57FF4FE90FF11DE90FF11D0190FD
:1023B000F081E02D612F8FEE91E00995182F80912B
:1023C0003D038093FC02412C512CC2C7E12FF0E069
:1023D000E151FE4F80816BE00E94E419FE01E55956
:1023E000FF4FE90FF11DE90FF11D0190F081E02D84
:1023F000612F8FEE91E00995182F8091E8018111EE
:1024000004C01F5F412C512CA3C7813021F411500F
:10241000412C512C9DC7823021F4105F412C512C4E
:1024200097C7833009F083C71051412C512C90C7B6
:10243000A12EB12CF501E151FE4F808169E10E948E
:10244000E419892F90E0FC013197E831F10520F47F
:10245000ED5BFF4F0C94041A1F5F412C512C78C781
:102460008091EE0118160CF069C70E94CD0EB82EAF
:102470000E94CD0E91E0B81290E0892F0E94C10E0B
:102480001F5F412C512C64C7F501E151FE4F1081B3
:10249000412C512C5DC78091EE0187FD0BC00E943D
:1024A000CD0E811107C0F501E151FE4F1081412C85
:1024B000512C4EC71F5F412C512C4AC71F5FF5019D
:1024C000E151FE4F80810E94C10E412C512C40C72A
:1024D0001F5FF501E151FE4FE081F0E0E151FE4F59
:1024E00080810E94C10E412C512C32C71F5FF50123
:1024F000E151FE4FE081F0E0E151FE4FE081F0E07C
:10250000E151FE4F80810E94C10E412C512C20C709
:102510008091EE011F5F87FD0DC00E94CD0EF50179
:10252000E151FE4FE081F0E0E151FE4F8083412C0C
:10253000512C0EC7412C512C0BC78091EE011F5F0F
:1025400087FD11C00E94CD0EF501E151FE4FE081E3
:10255000F0E0E151FE4FE081F0E0E151FE4F808379
:10256000412C512CF5C6412C512CF2C68091EE0124
:10257000181644F40E94CD0EB82E0E94CD0E8B0D7D
:102580000E94C10E1F5F412C512CE2C68091EE01CA
:1025900018164CF40E94CD0EB82E0E94CD0EB81A1B
:1025A0008B2D0E94C10E1F5F412C512CD1C68091F2
:1025B000EE0187FD05C00E94CD0E8F5F0E94C10E07
:1025C0001F5F412C512CC4C68091EE0187FD05C0D0
:1025D0000E94CD0E81500E94C10E1F5F412C512CD4
:1025E000B7C68091EE01181644F40E94CD0EB82EA5
:1025F0000E94CD0E8B210E94C10E1F5F412C512CD9
:10260000A7C68091EE01181644F40E94CD0EB82E94
:102610000E94CD0E8B290E94C10E1F5F412C512CB0
:1026200097C68091EE01181644F40E94CD0EB82E84
:102630000E94CD0E8B250E94C10E1F5F412C512C94
:1026400087C68091EE0187FD05C00E94CD0E809562
:102650000E94C10E1F5F412C512C7AC68091EE0161
:10266000BB24B394B10E1816A4F40E94CD0E90E0D2
:10267000E12FF0E0E151FE4F2081277002C09595D7
:1026800087952A95E2F70E94C10E1B2D412C512CF3
:102690005FC61B2D412C512C5BC68091EE01BB24E3
:1026A000B394B10E181694F40E94CD0EE12FF0E011
:1026B000E151FE4F9081977001C0880F9A95EAF71B
:1026C0000E94C10E1B2D412C512C42C61B2D412CAA
:1026D000512C3EC6F501E151FE4FE081F0E0E151A1
:1026E000FE4F80818F5F80831F5F412C512C30C64D
:1026F000F501E151FE4FE081F0E0E151FE4F8081B4
:10270000815080831F5F412C512C22C68091EE01A5
:1027100087FD04C00E94DE0E0E94C10E1F5F412C87
:10272000512C16C61F5FE12FF0E0E151FE4F808172
:102730008093FA0281E080934F03412C512C08C60C
:1027400081E00E946307B82E85E00E946307E12FB5
:10275000F0E0E151FE4FE081F0E0E151FE4F8B0DE2
:1027600080831F5F412C512CF3C581E00E946307D9
:10277000B82E85E00E9463078B0D8770E1EDF0E0D5
:10278000EC0FFD1FE80FF11D20812093EA01120FCD
:10279000412F50E0DA01A151BE4F5D018C916CE0F8
:1027A0000E94E419892F90E0FC013197EB30F1058C
:1027B00020F4E55AFF4F0C94041A81E00E9463074D
:1027C000582E85E00E946307D501EC91F0E0E151BD
:1027D000FE4F850D8083412C512CBAC5FA01E15181
:1027E000FE4F80818F5F8083412C512CB1C5FA014F
:1027F000E151FE4F808181508083412C512CA8C52E
:10280000210FE22FF0E0E151FE4F8081180F412CA3
:10281000512C9EC5DA01A151BE4F210FE22FF0E0ED
:10282000E151FE4F90818C91890F8C93412C512C5A
:102830008FC5DA01A151BE4F210FE22FF0E0E15127
:10284000FE4F8C919081891B8C93412C512C80C51B
:10285000FA01E151FE4F8081880F8083412C512C79
:1028600077C5FA01E151FE4F808186958083412C26
:10287000512C6EC5E091EB01E10FF0E0E151FE4F0C
:10288000808181115EC5210FE22FF0E0E151FE4F02
:102890008081180F412C512C5BC5210FE22FF0E0F5
:1028A000E151FE4F80810E94C10E412C512C50C538
:1028B0000E94CD0EE091EA01E10FF0E0E151FE4F00
:1028C0008083412C512C44C581E00E946307B82EBF
:1028D00085E00E946307E091EA01E10FF0E0E15139
:1028E000FE4F8B0D8083412C512C32C5E12FF0E03F
:1028F000E151FE4F2081822F61E20E94E419492FAD
:1029000050E0FA013A97E731F10520F4EA59FF4F18
:102910000C94041A822F6EE13CC00E94CD0EB82E9A
:102920000E94CD0EB81A7CC00E94CD0EB82E0E9417
:10293000CD0E8B199FC00E94CD0EB82E0E94CD0ED9
:102940008B9D802D112496C00E94CD0E882309F402
:10295000A9C0C552DF4F8883CB5DD0400E94CD0E09
:10296000C552DF4F6881CB5DD0400E94E41982C020
:102970000E94CD0E882309F495C0C552DF4F88838D
:10298000CB5DD0400E94CD0EC552DF4F6881CB5D3C
:10299000D0400E94E419892F6DC00E94CD0E811194
:1029A0000AC007C00E94CD0EB82E0E94CD0EB816E8
:1029B00010F481E05FC080E05DC0B6E0B093EB0151
:1029C00071C081E00E946307B82E85E00E94630712
:1029D0008B0D8370880F05C00E94CD0E811104C03D
:1029E00082E08093EB015EC0E6E0E093EB015AC029
:1029F0000E94CD0E811102C084E0F3CF1092EB0152
:102A000051C00E94CD0EB82E09C00E94CD0E8093F9
:102A1000EA010E94CD0EB82E8091EA010E94C10EFB
:102A20008B2D28C00E94CD0E3DC00E94CD0E8093FC
:102A3000FA0281E080934F0335C08091EB018770EB
:102A4000E1EDF0E0EC0FFD1FE80FF11D8081180FA4
:102A500029C00E94CD0EB82E18C00E94CD0EB82EEF
:102A60000E94CD0E8B9D802D1124E82FF0E0E151C6
:102A7000FE4F80810E94C10E15C081E00E94630755
:102A8000B82E85E00E946307B80E0E94CD0EA82ED6
:102A90000E94CD0E8A9D802D1124E82FF0E0E15197
:102AA000FE4FB0828091EB018770E1EDF0E0EC0F1A
:102AB000FD1FE80FF11D8081180F412C512C48C4D7
:102AC000812F90E09C0121513E4F5901D9015C902A
:102AD000852D6EE00E94E4199C30C1F018F491300D
:102AE00088F402C09D30E9F081E00E946307582E0F
:102AF00085E00E946307D501EC91F0E0E151FE4FC3
:102B0000850D0DC0852D0E94C10E15C08091EB0171
:102B10008E5F8093EB010E94CD0E8525F5018083A9
:102B20000AC08091EB0182508093EB010E94CD0E90
:102B30008525D5018C938091EB018770E1EDF0E064
:102B4000EC0FFD1FE80FF11D8081180F412C512C57
:102B5000FFC3E12FF0E0E151FE4F20819091EA01A7
:102B6000822F890F80838091EB01891B820F8770F0
:102B70008093EB01E1EDF0E0EC0FFD1FE80FF11D9C
:102B80008081180F2F70E5EAF0E0EC0FFD1FE20FD7
:102B9000F11D8081980F9093EA01412C512CD8C3EC
:102BA000E12FF0E0E151FE4F60818091EA01982F22
:102BB0009770A1EDB0E0AC0FBD1FA90FB11D9C91A6
:102BC000960F908367704091EF010E94F70E8093FB
:102BD000EA018770E1EDF0E0EC0FFD1FE80FF11D59
:102BE0008081180F412C512CB3C3AA24A394AD0C9F
:102BF00081E00E946307B82E85E00E946307ED2DF7
:102C0000F0E0E350FD4F8B0D8083B0E4AB1202C0C7
:102C1000D12C01C0DA2CB70193E0759567959A9590
:102C2000E1F7DB01A151BE4F2C915701E7E0AE2245
:102C3000BB24422F50E00A2C02C0559547950A94B8
:102C4000E2F7802F90E0FC0140FF03C03196EF7364
:102C5000FF27E350FD4F8081082F06950695382FFA
:102C6000327080FD09C081E090E001C0880FAA9415
:102C7000EAF78095282307C081E090E001C0880F23
:102C8000AA94EAF7282B2C93FB01E151FE4F808197
:102C90008093FA0281E080934F03311105C0F1E087
:102CA000EF1AF10858F003C03FEFE31AF30A81E08E
:102CB000E81688E0F8060CF047C303C0E12C88E072
:102CC000F82E412C512C44C3E12FF0E0E151FE4F8E
:102CD0002081822F6DE10E94E419492F50E0FA0112
:102CE0003197EC31F10520F4E358FF4F0C94041AAE
:102CF000E1E0E10FF0E0E151FE4F8081E2E0E10F21
:102D0000F0E0E151FE4FE081E10FF0E0E151FE4FD4
:102D100080831D5F412C512C1BC3E1E0E10FF0E0EB
:102D2000E151FE4FE081F0E0E151FE4F8081E2E0B1
:102D3000E10FF0E0E151FE4FE081E10FF0E0E15101
:102D4000FE4F80831D5F412C512C02C3E1E0E10F57
:102D5000F0E0E151FE4F8081E2E0E10FF0E0E1516F
:102D6000FE4FE081F0E0E151FE4FE081F0E0E15103
:102D7000FE4F80831D5F412C512CEAC2E1E0E10F40
:102D8000F0E0E151FE4FE081F0E0E151FE4F808143
:102D9000E2E0E10FF0E0E151FE4FE081F0E0E151CF
:102DA000FE4FE081F0E0E151FE4F80831D5F412C3A
:102DB000512CCEC2E2E0E10FF0E0E151FE4FE081A4
:102DC000E10FF0E0E151FE4FA1E0A10FB0E0A15111
:102DD000BE4F90818C91890F80831D5F412C512CB7
:102DE000B7C2E2E0E10FF0E0E151FE4FE081E10F18
:102DF000F0E0E151FE4FA1E0A10FB0E0A151BE4FC4
:102E0000AC91B0E0A151BE4F8C91280F20831D5F83
:102E1000412C512C9DC2E2E0E10FF0E0E151FE4F68
:102E2000E081F0E0E151FE4F9081A92FB0E0A15187
:102E3000BE4FE1E0E10FF0E0E151FE4F8081890FEC
:102E40008C931D5F412C512C83C2E2E0E10FF0E036
:102E5000E151FE4FE081F0E0E151FE4F8081A82F6B
:102E6000B0E0A151BE4FE1E0E10FF0E0E151FE4FD3
:102E7000E081F0E0E151FE4F9081890F8C931D5F5E
:102E8000412C512C65C2E2E0E10FF0E0E151FE4F30
:102E9000E081E10FF0E0E151FE4FA1E0A10FB0E0D1
:102EA000A151BE4F8C919081891B80831D5F412C65
:102EB000512C4EC2E2E0E10FF0E0E151FE4FE08123
:102EC000E10FF0E0A1E0A10FB0E0A151BE4FE15150
:102ED000FE4FAC918081A81BB0E0A151BE4F8C91F8
:102EE00080831D5F412C512C33C2E2E0E10FF0E002
:102EF000E151FE4FE081F0E0E151FE4F9081A92FBA
:102F0000B0E0A151BE4FE1E0E10FF0E0E151FE4F32
:102F10008081891B8C931D5F412C512C19C2E2E0EA
:102F2000E10FF0E0E151FE4FE081F0E0E151FE4FB2
:102F30008081A82FB0E0A151BE4FE1E0E10FF0E0A9
:102F4000E151FE4FE081F0E0E151FE4F9081981B8E
:102F50009C931D5F412C512CFBC1E1E0E10FF0E09F
:102F6000E151FE4F8081180F412C512CF1C11F5FA0
:102F7000E12FF0E0E151FE4FE081F0E0E151FE4F42
:102F80001081412C512CE4C1E2E0E10FF0E0E1516D
:102F9000FE4FE081E10FF0E0E151FE4F80818111B1
:102FA0000AC0E1E0E10FF0E0E151FE4F8081180F2F
:102FB000412C512CCDC11D5F412C512CC9C1E2E0E7
:102FC000E10FF0E0E151FE4FE081E10FF0E0E1516F
:102FD000FE4F808181110DC01F5FE12FF0E0E151B4
:102FE000FE4FE081F0E0E151FE4F1081412C512C69
:102FF000AFC11D5F412C512CABC1E2E0E10FF0E00D
:10300000E151FE4FE081F0E0E151FE4FE081F0E060
:10301000E151FE4F808181110AC0E1E0E10FF0E053
:10302000E151FE4F8081180F412C512C91C11D5F41
:10303000412C512C8DC1E2E0E10FF0E0E151FE4F57
:10304000E081F0E0E151FE4FE081F0E0E151FE4F20
:10305000808181110DC01F5FE12FF0E0E151FE4F33
:10306000E081F0E0E151FE4F1081412C512C70C104
:103070001D5F412C512C6CC1E2E0E10FF0E0E15109
:10308000FE4FE081E10FF0E0E151FE4F80818823A7
:1030900051F0E1E0E10FF0E0E151FE4F8081180FC7
:1030A000412C512C55C11D5F412C512C51C1E2E0E6
:1030B000E10FF0E0E151FE4FE081E10FF0E0E1517E
:1030C000FE4F8081882369F01F5FE12FF0E0E1511E
:1030D000FE4FE081F0E0E151FE4F1081412C512C78
:1030E00037C11D5F412C512C33C1E2E0E10FF0E00C
:1030F000E151FE4FE081F0E0E151FE4FE081F0E070
:10310000E151FE4F8081882351F0E1E0E10FF0E0D2
:10311000E151FE4F8081180F412C512C19C11D5FC8
:10312000412C512C15C1E2E0E10FF0E0E151FE4FDE
:10313000E081F0E0E151FE4FE081F0E0E151FE4F2F
:103140008081882369F01F5FE12FF0E0E151FE4F9D
:10315000E081F0E0E151FE4F1081412C512CF8C08C
:103160001D5F412C512CF4C0A2E0A10FB0E0A15191
:10317000BE4FEC91E10FF0E0E151FE4F80818150B4
:103180008083EC91E10FF0E0E151FE4F80818111ED
:103190000AC0E1E0E10FF0E0E151FE4F8081180F3D
:1031A000412C512CD5C01D5F412C512CD1C0A2E027
:1031B000A10FB0E0A151BE4FEC91E10FF0E0E15161
:1031C000FE4F808181508083EC91E10FF0E0E1516E
:1031D000FE4F808181110DC01F5FE12FF0E0E151B2
:1031E000FE4FE081F0E0E151FE4F1081412C512C67
:1031F000AFC01D5F412C512CABC0E2E0E10FF0E00D
:10320000E151FE4F20818FEF820F90E081519E4F60
:10321000DC018C91A22FB0E0A151BE4FAC91B0E087
:10322000A151BE4F8C93E081F0E0E151FE4FE0816F
:10323000F0E0E151FE4F808181110AC0E1E0E10F31
:10324000F0E0E151FE4F8081180F412C512C80C0DD
:103250001D5F412C512C7CC0E2E0E10FF0E0E15118
:10326000FE4F20818FEF820F90E081519E4FDC0155
:103270008C91A22FB0E0A151BE4FAC91B0E0A15112
:10328000BE4F8C93E081F0E0E151FE4FE081F0E031
:10329000E151FE4F8081811111C01F5FE12FF0E0ED
:1032A000E151FE4FE081F0E0E151FE4FE081F0E0BE
:1032B000E151FE4F1081412C512C4AC01D5F412C21
:1032C000512C46C01D5F412C512C42C081E00E9410
:1032D0006307B82E85E00E946307E2E0E10FF0E0AB
:1032E000E151FE4FE081E10FF0E0E151FE4F8B0D27
:1032F00080831D5F412C512C2BC081E00E9463070D
:10330000B82E85E00E946307E2E0E10FF0E0E151B2
:10331000FE4FE081F0E0E151FE4FE081F0E0E1514D
:10332000FE4F8B0D80831D5F412C512C11C0412C11
:10333000512C0EC0412C512C11E00AC0412C512CB3
:1033400007C0412C512C04C0E12CF12C412C512CF4
:10335000BFEF2B1A3B0A28143904C0F0E091E901B1
:10336000EF5FE093E90180914F03813019F41092EF
:103370004F0306C0F0E0E151FE4F80818093FA02D6
:103380008091FA02809587BD212C312CEFEF6E1AC7
:103390007E0AC752DF4F28813981C95DD04062164D
:1033A000730610F40C94BD10FE013196EC0DF11D66
:1033B000EC0DF11D02A8F3A9E02D8FEE91E0099527
:1033C000612C712C0C94BD10991B79E004C0991FDD
:1033D000961708F0961B881F7A95C9F7809508956F
:1033E00097FB072E16F4009407D077FD09D00E94B2
:1033F0000A1A07FC05D03EF4909581959F4F0895D9
:10340000709561957F4F0895EE0FFF1F0590F49121
:10341000E02D0994AA1BBB1B51E107C0AA1FBB1FCB
:10342000A617B70710F0A61BB70B881F991F5A9550
:10343000A9F780959095BC01CD0108958F929F9238
:10344000AF92BF92CF92DF92EF92FF92CF93DF9332
:10345000EC01688179818A819B8161157105810503
:10346000910521F464E279ED8BE597E02DE133EFEE
:1034700041E050E00E947A1A49015A019B01AC01D7
:10348000A7EAB1E40E94991A6B017C01ACEEB4EF9B
:10349000A50194010E94A71ADC01CB018C0D9D1D92
:1034A000AE1DBF1DB7FF03C00197A109B0488883B7
:1034B0009983AA83BB839F77DF91CF91FF90EF9091
:1034C000DF90CF90BF90AF909F908F9008950E9413
:1034D0001E1A089581E091E00E941E1A0895A0E04E
:1034E000B0E08093010190930201A0930301B09397
:1034F00004010895052E97FB1EF400940E94911A72
:1035000057FD07D00E94AC1A07FC03D04EF40C9470
:10351000911A50954095309521953F4F4F4F5F4FF1
:10352000089590958095709561957F4F8F4F9F4F2F
:1035300008950E94CE1AA59F900DB49F900DA49F50
:10354000800D911D11240895B7FF0C94991A0E94C3
:10355000991A821B930B0895A1E21A2EAA1BBB1B7A
:10356000FD010DC0AA1FBB1FEE1FFF1FA217B3074F
:10357000E407F50720F0A21BB30BE40BF50B661F65
:10358000771F881F991F1A9469F760957095809529
:1035900090959B01AC01BD01CF010895A29FB001A0
:1035A000B39FC001A39F700D811D1124911DB29F77
:0E35B000700D811D1124911D0895F894FFCF18
:1035BE001101000000F0F1010F1011FFEF010402E4
:1035CE0007030D04070809030C060B050DBE058540
:1035DE00058E059705A305200E3A0E4D0E540EAF1F
:1035EE0005C905D305DD05E705F205FE0510061B29
:1035FE00063A06770E910E4C0650065D0661069150
:10360E000E8A03A003B303CA03DB036106FF04079C
:10361E00050F051A052505FE0D32055B05610691A0
:10362E000EC604DC049E0DEE04CA0D6106910E1347
:10363E00041604360456045E0474047A0492049547
:10364E0004B8046106D202E8026A069E06D206EFAC
:10365E0006F5020C071603910E61062C07060D489F
:10366E00073D0376032F0D6A0D910E61067A077AD8
:10367E000CB800CB011602C307E2070508B40F18F9
:0E368E00092B0AFE0A2708940B2F0C7A07005E
:00000001FF
