:100000000C9499000C94B6000C94B6000C94B600B5
:100010000C94B6000C94B6000C94B6000C94B60088
:100020000C94B6000C94B6000C94B6000C94B60078
:100030000C94B6000C94B6000C94B6000C94B60068
:100040000C94B6000C94B6000C94B6000C94B60058
:100050000C94B6000C94B6000C94B6000C94B60048
:100060000C94B6000C94B6002B115A11791198110A
:10007000B711CB11E9111D12B81379146315AA1524
:10008000D1150D116416B3193512491250126312AD
:100090006D127B128D12A212BB12CB12DC12E9126E
:1000A000F612061316132613331351136D137B1315
:1000B00089139513A313F113FA1303140D141C14CD
:1000C0002B1434143D1450145B14671490149714BB
:1000D0009E14A714BB14D014D514F314E014011506
:1000E000FF14E414EF14FB14041508151515181566
:1000F000181520152C15301540158E16A816C1168A
:10010000DE16F61611172C174B1763177F179A1761
:10011000B917C317D017EC170B182A184C18681802
:100120008718A618C818EC181319421978197D19E0
:10013000951911241FBECFEFD4E0DEBFCDBF11E073
:10014000A0E0B1E0E6EFF5E302C005900D92AE3D10
:10015000B107D9F723E0AEEDB1E001C01D92A035A3
:10016000B207E1F70E940F100C94F91A0C940000EA
:100170002F923F924F925F926F927F928F929F92B7
:10018000AF92BF92CF92DF92EF92FF920F931F93A5
:10019000CF93DF93CDB7DEB728970FB6F894DEBFC5
:1001A0000FBECDBF98878F832091E10129838158AD
:1001B0009F4F211105C0EF81F88598878F8301C07B
:1001C000FC011081D180628133813C83D11002C057
:1001D000DD24D394611101C061E000910001E00FC2
:1001E000F11D8080DF0111972C91422F50E05E833A
:1001F0004D83C1804C2C512CCF014097DC016C9079
:10020000262C312C7088E72CF12C0197DC019C9076
:100210000296DC01AC90B7847189E12FF0E0FB839A
:10022000EA83CF0101974817590751F051E040E0A8
:10023000211101C050E0252F342F40E050E004C0D0
:1002400020E030E041E050E04816590619F44F5FD5
:100250005F4F04C0CC2011F02F5F3F4F28163906A6
:1002600019F44F5F5F4F04C0662011F02F5F3F4FBE
:10027000E816F90619F44F5F5F4F04C0772011F0BC
:100280002F5F3F4F911203C04F5F5F4F04C0992013
:1002900011F02F5F3F4FA11203C04F5F5F4F04C0AB
:1002A000AA2011F02F5F3F4FB11203C04F5F5F4F85
:1002B00004C0BB2011F02F5F3F4F711303C04F5F8D
:1002C0005F4F04C0772311F02F5F3F4FF02FFF7770
:1002D000CF2E81100FC0EF81F885EC0DF11D70E07D
:1002E000CA010E940A1AE62E6D2D70E0C9010E9413
:1002F0000A1A21C0482D50E0EF81F885EC0DF11D60
:1003000048175907DCF48D819E81840F951F840D59
:10031000951D820D931D8E0D9F1D890D911D8A0DBA
:10032000911D8B0D911D870F911DB9016F5F7F4F3F
:100330000E940A1AEC80E60EE08201C01082AF81B2
:10034000B885AC0DB11D8C9190E02A813B8182175C
:10035000930714F011501C930F5F0F3618F400939D
:10036000000108C081E18093000181E03981832789
:100370008093E10128960FB6F894DEBF0FBECDBF83
:10038000DF91CF911F910F91FF90EF90DF90CF9071
:10039000BF90AF909F908F907F906F905F904F90A5
:1003A0003F902F900895CF93DF93DC012C91E09143
:1003B000E001EF5FEF70E093E0017E2F7295707FB8
:1003C0007F5FF0E0AF014F5F5F4FC42FC295C07FEA
:1003D00034E0EE0FFF1F3A95E1F7E80FF91F61E0F7
:1003E00030E0DFEF472F460FDC01A40FB11D4C9129
:1003F000413810F450E001C054E0DF014181413840
:1004000008F0526031964C91413808F05160D901A2
:1004100002C0B595A7955A95E2F7AD01562F5C0F2E
:10042000DC01A50FB11D40FF02C0DC9301C01C928E
:100430006F5F6031B9F6DF91CF9108952F923F92AF
:100440004F925F926F927F928F929F92AF92BF92E4
:10045000CF92DF92EF92FF920F931F93CF93DF9390
:10046000CDB7DEB72B970FB6F894DEBF0FBECDBF6A
:100470004090DE01AC0141585F4F411003C0FC01C8
:10048000CA0101C0FA016F0141E1C40ED11C7F0114
:1004900050E1E50EF11C8F010E5E1F4FBF016F5F33
:1004A0007F4FDF019196BB87AA87F987E88732964D
:1004B000FF83EE83A885B985909628843984E2E28B
:1004C0002E0E311CAC014F5E5F4F5D834C8391E17A
:1004D000F60151916F01F70151907F01F80181916F
:1004E0008F01FB016190BF01EA85FB857190FB875D
:1004F000EA87E885F9858190F987E887EE81FF81B1
:100500009190FF83EE83AD90F101B1901F01817056
:10051000F52DF1708F0F462D4170840FE72DE1709E
:100520008E0FF82DF1708F0F492D4170840FEA2D39
:10053000E1708E0FFB2DF1708F0F833041F0252F6E
:10054000217030E0280F311D2330310529F44FEFA1
:10055000EC81FD81408303C0EC81FD8110829F5FAF
:100560004C815D814F5F5F4F5D834C839E3609F008
:10057000AFCF81E084258093DE012B960FB6F894EF
:10058000DEBF0FBECDBFDF91CF911F910F91FF90C6
:10059000EF90DF90CF90BF90AF909F908F907F9023
:1005A0006F905F904F903F902F900895862F90917D
:1005B000E801911102C091E00CC0913019F4109241
:1005C000E8010895923011F493E003C0933019F4D8
:1005D00092E09093E80108952091FB02FC01E20F64
:1005E000F11D80818093FA0281E080934F03862F72
:1005F00008953091ED0144E12091FB02FC01E20FEE
:10060000F11D5081552399F0311102C02F5F0BC0AD
:10061000313011F4215007C0323011F4205F03C093
:10062000333019F420512093FB02415029F7862FD3
:1006300008953091FB02FC01E30FF11D208122237C
:1006400039F03150FC01E30FF11D80818823A9F0BE
:100650009091E801911102C081E008C0913019F435
:100660001092E8010BC0923021F483E08093E801FE
:1006700005C0933019F482E0F9CF2083862F0895C6
:10068000362F862F67E00E94FE192091FA029330E0
:10069000C1F028F4913051F0923079F005C09530D6
:1006A000B9F090F09630C9F0220F1AC0220F220F35
:1006B0002093FA0290934F0318C0220F220F220FAB
:1006C0000FC02295207F0CC02295220F207E08C0EB
:1006D0002295220F220F207C03C0279522272795E1
:1006E0002093FA0281E080934F038091FC02830FF4
:1006F00008952FEF260FFC01E20FF11D20812095B8
:10070000208321E0260FFC01E20FF11D80818095FE
:1007100080838091FC02860F089521E0260FDC0182
:10072000A20FB11D2FEF260FFC01E20FF11D8C91DE
:100730009081890F8093FA0281E080934F0380912A
:10074000FC02860F0895FC01E60FF11D3081262F73
:10075000231BFC01E20FF11D2FEF2083360FFC015C
:10076000E30FF11D208382E0860F0895FC01E60F60
:10077000F11D208127FD0DC03FEF360FDC01A30FD7
:10078000B11D2C93208131E0360FFC01E30FF11DE8
:1007900020838091FC02860F089521E0260FFC0142
:1007A000E20FF11D10822FEF260FFC01E20FF11D69
:1007B00010828091FC02880F860F08951F93AC0170
:1007C000A62F10913D03262F30E017FF0CC0FC012F
:1007D000E20FF31F808163E00E94FE19913091F4D3
:1007E00090933D031DC012306CF0FC01E20FF31F2B
:1007F000808163E00E94FE19911104C08FEF809305
:100800003D030EC0FA01E20FF31F20811203900195
:10081000112444E0359527954A95E1F72093FC0291
:100820008091FC028A0F1F91089583E0860F08953E
:10083000262F30E042E0460FFC01E40FF11D40811D
:10084000F901E40FF11DAF01FC01E40FF11D41E0DE
:10085000460FDC01A40FB11D4C91240F311DDC01AA
:10086000A20FB11D80819C91890F808383E0860F48
:100870000895262F30E042E0460FFC01E40FF11D01
:100880004081F901E40FF11DAF01FC01E40FF11DFE
:1008900041E0460FDC01A40FB11D4C91240F311D26
:1008A000DC01A20FB11D80819C91891B808383E0B4
:1008B000860F089521E0260FFC01E20FF11D8081D3
:1008C000860F089522E0260FFC01E20FF11D208122
:1008D000260FFC01E20FF11D2081211106C06F5F80
:1008E000FC01E60FF11D8081089583E0860F0895D5
:1008F0006F5F860F911DFC018081089522E0260F15
:10090000FC01E20FF11D2081260FFC01E20FF11D19
:10091000208121502083211106C06F5FFC01E60F6A
:10092000F11D8081089583E0860F089583E0860F8E
:100930000895262F30E042E0460FFC01E40FF11D40
:100940004081F901E40FF11DDC01AE0FB11D41E062
:10095000460FFC01E40FF11D4081240F311DFC0105
:10096000E20FF11D9C918081981711F086E001C083
:1009700083E0860F089522E0260FFC01E20FF11DAF
:1009800080818093FA0281E080934F0383E0860F99
:1009900008952FEF260FDC01A20FB11D21E0260FD5
:1009A000FC01E20FF11D8C919081890F8093FA0276
:1009B00081E080934F038091FC02860F089521E02F
:1009C000260FFC01E20FF11D2081121634F4FC0108
:1009D000E60FF11D80818F5F80838091FC02860F7E
:1009E000089521E0260FFC01E20FF11D208127FF71
:1009F00005C0FC01E60FF11D81E880838091FC02B7
:100A0000860F08959091FB029F5F9093FB0281E017
:100A1000860F08959091FB0291509093FB0281E024
:100A2000860F08952091FB02FC01E20FF11D9081D9
:100A30009F5F908381E0860F08952091FB02FC0167
:100A4000E20FF11D90819150908381E0860F08950F
:100A50002091FB02FC01E20FF11D80818093FA02DC
:100A600081E080934F03860F08959C01462F80916B
:100A7000FB02F901E80FF11D808181111CC0AFE775
:100A8000A60F51E0B9E04F5F81E04F3F08F480E0EE
:100A9000840FF901E80FF11D80816B2F0E94FE1970
:100AA000963011F45F5F03C0973009F4515055231D
:100AB00011F04A13E8CF81E0840F08959C01462F7E
:100AC0008091FB02F901E80FF11D81E08083A1E82C
:100AD000A60F50E0B9E081E04F3F08F480E0840FBA
:100AE000F901E80FF11D80816B2F0E94FE199630ED
:100AF00011F45F5F03C0973009F451508FEF840FFA
:100B0000552321F08A1711F0482FE5CF842F08953F
:100B10009091FB029F5F9093FB028091FC02860FF5
:100B200008959091FB0291509093FB028091FC02FA
:100B3000860F08952091FB02FC01E20FF11D9081C8
:100B40009F5F90838091FC02860F08952091FB02A5
:100B5000FC01E20FF11D9081915090838091FC0285
:100B6000860F08952091FB02FC01E20FF11D8081A8
:100B70008093FA0281E080934F038091FC02860FFC
:100B800008958091FB028093FA0281E080934F03E5
:100B90008091FC02860F0895FC01E60FF11D908103
:100BA0009F5F90838091FC02860F0895FC01E60F01
:100BB000F11D9081915090838091FC02860F0895E1
:100BC000FC01E60FF11D9081990F90838091FC024A
:100BD000860F0895FC01E60FF11D9081990F990F82
:100BE00090838091FC02860F0895FC01E60FF11DB1
:100BF0009081990F990F990F90838091FC02860F35
:100C0000089521E0260FFC01E20FF11D2081211142
:100C100006C02091FB02FC01E20FF11D6081809172
:100C2000FC02860F089521E0260F820F911DFC0122
:100C3000808187FD8091FC02860F0895462F50E049
:100C40009A012150310971E0760F2F3FEFEF3E07F7
:100C500011F42FEF30E0FC01E20FF31F208127FD9C
:100C600008C0FC01E40FF51F2081FC01E70FF11D16
:100C700020838091FC02860F089521E0260FFC015D
:100C8000E20FF11D2081FC01E20FF11D2081FC012A
:100C9000E60FF11D20838091FC02860F089580915C
:100CA000FC02860F089580913D0387FF02C081E01A
:100CB00001C08FEF80933D038091FC02860F089561
:100CC0008091FC02860F0895FC01E60FF11D8081E2
:100CD00087BD8091FC02860F08953091ED0120912F
:100CE000FB02311102C02F5F0BC0313011F42150D3
:100CF00007C0323011F4205F03C0333019F42051A3
:100D00002093FB022091FB02FC01E20FF11D808188
:100D1000811114C09091E801911102C081E00CC0D2
:100D2000913019F41092E80109C0923011F483E077
:100D300003C0933019F482E08093E801862F089570
:100D40003091ED012091FB02311102C021500BC006
:100D5000313011F42F5F07C0323011F4205103C03D
:100D6000333019F4205F2093FB022091FB02FC0139
:100D7000E20FF11D8081811114C09091E801911161
:100D800002C081E00CC0913019F41092E80109C052
:100D9000923011F483E003C0933019F482E0809321
:100DA000E801862F0895862F9091ED01911104C0DE
:100DB0009091FB02905F11C0913021F49091FB0261
:100DC00090510BC0923021F49091FB029F5F05C0BF
:100DD000933029F49091FB0291509093FB02089577
:100DE000862F9091ED01911104C09091FB029051DA
:100DF00011C0913021F49091FB02905F0BC09230B2
:100E000021F49091FB02915005C0933029F4909108
:100E1000FB029F5F9093FB0208952091FB02FC016F
:100E2000E20FF11D8081811115C09091E8019111AF
:100E300002C081E008C0913019F41092E8010BC0A3
:100E4000923021F483E08093E80105C0933019F4D7
:100E500082E0F9CF1082862F08952091EC012C308A
:100E600089F421E0260FFC01E60FF11D3081FC0121
:100E7000E20FF11D30836F3F19F48DE08093EC0198
:100E8000822F08958091FC02860F0895262F80916D
:100E9000EC018F5F8093EC016CE30E94FE199111CD
:100EA0000AC08091FA0280958093FA0281E08093D3
:100EB0004F03822F08958091FC02820F0895909134
:100EC0007C00987F90937C0090917C008770892BA8
:100ED00080937C0080917A00806480937A00809176
:100EE0007A0084FFFCCF8091790008958F929F92C1
:100EF000AF92BF92CF92DF92EF92FF920F931F9328
:100F0000CF93DF93EC01B12CEE24EA94F12C88818D
:100F1000B81648F581E00E945F07182F85E00E940F
:100F20005F07810F8E01080F111DF801A0800E943C
:100F3000861A6C0181E00E945F07982E85E00E946E
:100F40005F07882E87E00E945F07282D290D280F54
:100F5000C601B7010E940A1A280F2F702A25F8012E
:100F60002083B394D4CFDF91CF911F910F91FF9045
:100F7000EF90DF90CF90BF90AF909F908F900895AB
:100F80001F93CF93DF93EC0181E00E945F07182F3E
:100F900085E00E945F07810F90E0392F380F28818C
:100FA000921740F4FE01E30FF11D20812F5F208393
:100FB0009F5FF3CFDF91CF911F9108951F93CF9340
:100FC000DF93EC0181E00E945F07182F85E00E940B
:100FD0005F07810F90E02881921768F421E0280FC5
:100FE000FE01E20FF11D2081FE01E80FF11D2083BB
:100FF0008E5F9F5FF0CFDF91CF911F9108951F9378
:10100000CF93DF93EC0181E00E945F07182F85E00A
:101010000E945F07810F982F2881392F381B3217C4
:1010200060F49F5F2981290FFE01E20FF11D2081ED
:10103000FE01E90FF11D2083EFCFDF91CF911F91CA
:1010400008954F925F926F927F928F929F92AF928C
:10105000BF92CF92DF92EF92FF920F931F93CF93A5
:10106000DF938C01D090E601EC01C158DF4FD11025
:1010700003C05E01EC0101C05C0181E00E945F07DA
:1010800085E00E945F07D8011196FC901197129697
:10109000EC90F11002C0FF24F394E11002C0EE24A2
:1010A000E394F50131969E012F5F3F4F41E0D80157
:1010B0001496CC907C2D7095740F7F77DE01A70F6E
:1010C000B11D8C91D8019C9151E0891350E061E0F1
:1010D000811101C060E077247394770EB72DBF773C
:1010E0007B2EDE01A70DB11D7C91791301C05F5FDE
:1010F00071116F5F7394A72DAF777A2EDE01A70D64
:10110000B11DBC90B91201C05F5FB1106F5FCA948E
:10111000CA947C0CB72DBF777B2EDE01A70DB11DC5
:10112000AC90A91201C05F5FA1106F5F7394A72DEF
:10113000AF777A2EDE01A70DB11D9C90991201C0E8
:101140005F5F91106F5F7394B72DBF777B2EDE01C9
:10115000A70DB11D8C90891201C05F5F81106F5F78
:10116000C70CAC2DAF77CA2EDE01AC0DB11D7C9043
:10117000791201C05F5F71106F5FC394BC2DBF77A0
:10118000CB2EDE01AC0DB11D6C90691201C05F5F0A
:1011900061106F5FA1E0AC0DAF772E014A0E511CBC
:1011A000D201CC90C91201C05F5FC1106F5FD9013D
:1011B0005D909D0151100CC0862F6F2D0E94FE196D
:1011C000A82F852F6E2D0E94FE19A80FA08317C08F
:1011D0005916A0F4870F8B0D8A0D890D880D870D88
:1011E000860D8C0D90E070E06F5F7F4F0E940A1AB1
:1011F000D80113968C91860F808301C01082D8018C
:101200008C919081891708F480834F5F31964F3716
:1012100009F04DCF81E08D258093E601DF91CF91DC
:101220001F910F91FF90EF90DF90CF90BF90AF9004
:101230009F908F907F906F905F904F9008952F9226
:101240003F924F925F926F927F928F929F92AF9256
:10125000BF92CF92DF92EF92FF920F931F93CF93A3
:10126000DF93EC013090E50181589F4F311004C0AD
:101270008C01BC2EFD2E03C0B82EF92E8E0181E00C
:101280000E945F07C82E85E00E945F07C80EE980B4
:10129000DA80E11002C0EE24E394D11002C0DD2414
:1012A000D394F8010B2D1F2DF12C2C2C20944424C9
:1012B00043944C184F2D4C19822D8F0DDE01A80F31
:1012C000B11D6C91288130E021503109862F90E0CA
:1012D0008217930739F0BB24B394611101C0B12C7C
:1012E00080E002C0B12C81E0DE01A40FB11D7C9131
:1012F000472F50E04217530711F48F5F02C071115E
:10130000B394A42CAF0CDE01AA0DB11D9C91492F02
:1013100050E04217530711F48F5F02C09111B3944C
:101320006C80A60C4EEF4A0DDE01A40FB11D8C900F
:10133000482D50E04217530711F48F5F02C081100F
:10134000B3944FEF4A0DDE01A40FB11D7C90472DE1
:1013500050E04217530711F48F5F02C07110B3942D
:10136000DE01AA0DB11D9C90492D50E04217530794
:1013700011F48F5F02C09110B394A60C4EEF4A0D8A
:10138000DE01A40FB11D6C90462D50E042175307AB
:1013900011F48F5F02C06110B3944FEF4A0DDE016C
:1013A000A40FB11D5C90452D50E04217530711F476
:1013B0008F5F02C05110B394DE01AA0DB11DAC9035
:1013C0004A2D50E04217530711F48F5F02C0A1105D
:1013D000B394D8014D918D0141110BC06D2D0E9428
:1013E000FE19282F8B2D6E2D0E94FE19280F2083A9
:1013F00019C050E042175307A4F4960F970F990DA8
:10140000980D970D9A0D960D950D892F90E06B2DE7
:1014100070E06F5F7F4F0E940A1A8B81860F808376
:1014200001C010824881242F30E0808190E0821733
:10143000930714F041504083F3943196BFE7FB12B9
:1014400039CF81E083258093E501DF91CF911F9112
:101450000F91FF90EF90DF90CF90BF90AF909F9053
:101460008F907F906F905F904F903F902F90089556
:101470007F928F929F92AF92BF92CF92DF92EF9224
:10148000FF920F931F93CF93DF93EC012091E40120
:1014900081589F4F211105C0382F292F5C2F4D2FC8
:1014A00004C0582F492F3C2F2D2FC880C294C694BA
:1014B00067E0C62289816AE00E94FE19982EE52E17
:1014C000F42E032F122FB12CD12C7EEF872E81E02A
:1014D0000E945F07782E85E00E945F07870D3B2DF5
:1014E000381B41E0430F242F280F820F9FEF930FEB
:1014F000FE01E90FF11D90819170FE01E40FF11DD5
:1015000040814170940FFE01E30FF11D3081317075
:10151000930FFE01E20FF11D30813170930F3EEF0A
:10152000320FFE01E30FF11D30813170930F215016
:10153000FE01E20FF11D20812170920FFE01E80FE4
:10154000F11D20812170920F2EEF280FFE01E20F76
:10155000F11D20812170920F8150FE01E80FF11DD5
:1015600080818170980FA90EF7018081882381F115
:101570008E3F71F180FD15C081E00E945F07782EDB
:1015800085E00E945F07282F30E0270D311DA99CC0
:10159000A00111244217530724F0F70180818160D4
:1015A00017C0F701808180FF11C081E00E945F07B2
:1015B000782E85E00E945F07282F30E0270D311D2F
:1015C000C216D3061CF0F801808204C0F7018081A6
:1015D000F8018083B394FFEFEF1AFF0A0F5F1F4FEC
:1015E0008FE7B81274CF8091E40191E0892780934E
:1015F000E401DF91CF911F910F91FF90EF90DF9069
:10160000CF90BF90AF909F908F907F9008957F92E2
:101610008F929F92AF92BF92CF92DF92EF92FF9202
:101620000F931F93CF93DF93EC019090E3018C0114
:1016300001581F4F911004C0D02EF12E8C0102C012
:10164000D82EFD2E81E00E945F07E82E85E00E94E3
:101650005F078E0D8F7709F481E09801ED2DFF2D46
:1016600040E0E82EF12C8881742E781AD801A70D5D
:10167000B11D8C905901C82CD12CD9018C9190E0CE
:101680000196B7010E940A1AC816D90609F4808289
:101690008880870C8FEF880DD801A80FB11D7C9032
:1016A000C72CD12CD9018C9190E00196B7010E94F2
:1016B0000A1AC816D90609F470828394D801A80DB5
:1016C000B11D7C90C72CD12CD9018C9190E0019652
:1016D000B7010E940A1AC816D90609F470828881D7
:1016E0008150880DD801A80FB11D8C902F5F3F4FFE
:1016F000C82CD12CD5018C9190E00196B7010E94A5
:101700000A1AC816D90609F480824F5F31964F37FE
:1017100009F0A9CF81E089258093E301DF91CF9182
:101720001F910F91FF90EF90DF90CF90BF90AF90FF
:101730009F908F907F900895AF92BF92CF92DF924B
:10174000EF92FF920F931F93CF93DF93EC011091D1
:10175000E20181589F4F111105C0F82E092FDC2E90
:10176000ED2E04C0D82EE92EFC2E0D2F81E00E9414
:101770005F07C82E85E00E945F078C0D9E0171E017
:10178000780FAD2CBE2CEF2DF02F082F0195000FF8
:1017900060E0FF24FA94E82EE094D9014D919D0178
:1017A0009C9191704170940F462F481BDE01A40F4D
:1017B000B11D4C914170940F4FEF460FDE01A40F05
:1017C000B11D4C914170940F4EEF470FDE01A40FF5
:1017D000B11D4C914170940F462F480FDE01A40FAC
:1017E000B11D4C914170940FAE01470F511DDA01AC
:1017F0004C914170940F472F400FDE01A40FB11D93
:101800004C914170940F4E2D460FDE01A40FB11D77
:101810004C914170940FD5014D915D0140FF06C080
:10182000923010F0943030F0108205C0933011F4F3
:10183000F08201C040836F5F7F5F31966F3709F0A0
:10184000ACCF81E081278093E201DF91CF911F919E
:101850000F91FF90EF90DF90CF90BF90AF900895E1
:101860000F931F93CF93DF93EC0181E00E945F07FA
:10187000182F85E00E945F07810F182F110F20E0BD
:1018800030E090E0FC0131960FEFAF01420F531FA3
:10189000DE01A40FB11D4C91413810F470E001C07D
:1018A00074E0A901480F591FDE01A40FB11D4C912E
:1018B000413808F07260622F4FEF420FDC01A40F35
:1018C000B11DAD01DE01A40FB11D4C91413808F0EE
:1018D0007160610F488150E002C0559547957A9537
:1018E000E2F770E0DE01A60FB71F40FF02C01C92B6
:1018F00001C00C932F5F3F4F2F3F310531F6DF9131
:10190000CF911F910F9108954F925F927F928F9286
:101910009F92AF92BF92CF92DF92EF92FF920F937E
:101920001F93CF93DF931F92CDB7DEB7FC0190805A
:10193000A1808090DF0181589F4F811003C08F01EB
:10194000FC0101C08C0178012F012FEFEAE0CE2EBF
:10195000D12CB12CF70181917F01F201808389158F
:1019600010F08F573EC0882311F08F5F39C081E19E
:10197000820F8F7791EF920F9F77F801E90FF11D9A
:101980009081992311F09915C0F0F801E80FF11D2D
:101990008081882311F0891580F0822F8F77F801DC
:1019A000E80FF11D8081882311F0891530F0F701CF
:1019B00080818823B9F08915A8F481E029830E94E9
:1019C0005F07782E85E00E945F0790E0870D911DEC
:1019D000B6010E940A1A29818A159B051CF481E030
:1019E000F2018083FFEF4F1A5F0A2F5F2E3709F055
:1019F000B1CF81E088258093DF010F90DF91CF91F7
:101A00001F910F91FF90EF90DF90CF90BF90AF901C
:101A10009F908F907F905F904F900895EF92FF92EC
:101A20001F93CF93DF931F92CDB7DEB72091EC01C8
:101A30002D30C9F420913E03260F7C01E20EF11CEB
:101A400081E069830E945F07182F85E00E945F078D
:101A5000810FF701808380913E038F5F80933E0367
:101A60006981862F03C08091FC02860F0F90DF9161
:101A7000CF911F91FF90EF900895EF92FF921F93E7
:101A8000CF93DF931F92CDB7DEB77C0181E06983EE
:101A90000E945F07182F85E00E945F07810F837007
:101AA0009091FB026981811102C09F5F09C0813062
:101AB00011F4915005C0823011F4905F01C0905133
:101AC0009093FB028091FB02F701E80FF11D8081EA
:101AD0008093FA0281E080934F038091FC02860F8D
:101AE0000F90DF91CF911F91FF90EF900895CF92CB
:101AF000DF92FF920F931F93CF93DF931F92CDB787
:101B0000DEB76C019091FB029F5F8601090F111DEA
:101B100081E069830E945F07F82E85E00E945F07DD
:101B20008F0DF80180838091FB02F601E80FF11D13
:101B300080818093FA0281E080934F038091FC02C0
:101B40006981860F0F90DF91CF911F910F91FF90C8
:101B5000DF90CF9008950F931F93CF93DF93EC0105
:101B6000162F81E0860FFE01E80FF11D8081181607
:101B7000A4F481E00E945F07082F85E00E945F07C0
:101B800090E0800F911D6AE070E00E940A1A0497AD
:101B900024F4C10FD11D8FEF88838091FC02810F47
:101BA000DF91CF911F910F9108950F931F93CF93C2
:101BB000DF93EC01162F81E0860FFE01E80FF11D87
:101BC000808181111CC08FEF860FFE01E80FF11D8F
:101BD00080811816A4F481E00E945F07082F85E039
:101BE0000E945F0790E0800F911D6AE070E00E9404
:101BF0000A1A049724F4C10FD11D81E088838091D3
:101C0000FC02810FDF91CF911F910F910895EF9208
:101C1000FF921F93CF93DF931F92CDB7DEB7209132
:101C2000FB027C01E20EF11C81E069830E945F07E8
:101C3000182F85E00E945F07810FF701808369817B
:101C400081E0860F0F90DF91CF911F91FF90EF9071
:101C500008951F93CF93DF931F92CDB7DEB781E036
:101C600069830E945F07182F85E00E945F07810F3C
:101C70008093FB028091FC026981860F0F90DF91B7
:101C8000CF911F910895CF93DF931F92CDB7DEB709
:101C900081E069830E945F078093FB028091FC02D0
:101CA0006981860F0F90DF91CF91089581E00E94A6
:101CB0005F079091FC02890F0895EF92FF921F93A6
:101CC000CF93DF931F92CDB7DEB72091FB027C014B
:101CD000E20EF11C81E069830E945F07182F85E006
:101CE0000E945F07810FF70180838091FC02698168
:101CF000860F0F90DF91CF911F91FF90EF90089585
:101D00000F931F93CF93DF931F92CDB7DEB78C0154
:101D1000060F111D81E069830E945F07F80180832F
:101D20008091FC026981860F0F90DF91CF911F9106
:101D30000F910895EF92FF921F93CF93DF931F921D
:101D4000CDB7DEB77C01E60EF11C81E069830E940D
:101D50005F07182F85E00E945F07810FF7018083DE
:101D60008091FC026981860F0F90DF91CF911F91C6
:101D7000FF90EF900895282F30E0215031094091D5
:101D8000EE01552747FD509581E0421753070CF4AB
:101D900080E00895E091EE01EE3038F4EF5FE093DB
:101DA000EE01F0E0E15CFC4F808308959091EE013C
:101DB000903158F4E92FFF27E7FDF095E15CFC4FE7
:101DC000808191509093EE01089580E00895E09114
:101DD000EE01E03138F4FF27E7FDF095E15CFC4FC0
:101DE0008081089580E00895E82FF0E0E151FE4FF2
:101DF00080810895E82FF0E0E151FE4F608308955F
:101E000050E002C0559547956A95E2F740FD02C043
:101E1000815008958F5F0895ECE7F0E080818F771F
:101E20008083808180648083808180628083EAE710
:101E3000F0E080818460808380818068808317B82F
:101E400018B80895BF92CF92DF92EF92FF920F934E
:101E50001F93CF93DF93EC01DD24DA940FEF10E0B2
:101E60000E94861A7C0181E00E945F07C82E85E0EF
:101E70000E945F07B82E87E00E945F072B2D2C0D74
:101E80008F70280FC701B8010E940A1A280F2993E2
:101E9000DA9431F7DF91CF911F910F91FF90EF907E
:101EA000DF90CF90BF900895EF92FF921F93CF9352
:101EB000DF931F92CDB7DEB77C0181E069830E947A
:101EC0005F07182F85E00E945F07810F6981681BFB
:101ED00091E0960FF701E90FF11D91E0208121308B
:101EE00009F090E022E0260FF701E20FF11D2081BA
:101EF000213009F49F5F6D5FF701E60FF11D20812E
:101F0000213009F49F5F680F2EEF260FF701E20FD3
:101F1000F11D2081213009F49F5FF701E60FF11DCB
:101F20002081213009F49F5F860F2EEF280FF701E3
:101F3000E20FF11D2081213009F49F5F2FEF280F60
:101F4000F701E20FF11D2081213009F49F5FF701B5
:101F5000E80FF11D8081813009F49F5F915081E08D
:101F6000923008F080E00F90DF91CF911F91FF90A9
:101F7000EF900895AF92BF92CF92DF92EF92FF92CF
:101F80000F931F93CF93DF93EC01C090E7019C0167
:101F900021583F4FC11004C0E82EDD2EE90102C0D8
:101FA000E22ED32E81E00E945F0785E00E945F074A
:101FB0000E2D1D2DF12CF1E8BF2EAA24AA94F801B4
:101FC0002081211102C0188214C0213011F4A8828E
:101FD00010C02F3F11F4B8820CC0213838F06F2D9B
:101FE0008E2D9D2D0E94540F813011F0F8018081BB
:101FF0008883F3940F5F1F4F2196FFE7FF12DFCF17
:1020000081E08C258093E701DF91CF911F910F91A3
:10201000FF90EF90DF90CF90BF90AF900895CF9357
:10202000DF93CDB7DEB7CB5DD1090FB6F894DEBF35
:102030000FBECDBF0E940C0F81E00E945F07182FDA
:1020400085E00E945F0790E0810F911D0E948B1A2E
:1020500088E0E5E0F1E0DE01AF52BF4F01900D9264
:102060008A95E1F780E1EDE0F1E0DE01AB55BF4F8D
:1020700001900D928A95E1F782E3EDE1F1E0DE0156
:10208000119601900D928A95E1F78EE0EFE4F1E070
:10209000DE01AD53BF4F01900D928A95E1F782E1C9
:1020A000EDE5F1E0DE01AD56BF4F01900D928A954E
:1020B000E1F78EE0EFE6F1E0DE01AB54BF4F0190B7
:1020C0000D928A95E1F788E1EDE7F1E0DE01AD5A86
:1020D000BF4F01900D928A95E1F786E1E5E9F1E0C5
:1020E000DE01A559BF4F01900D928A95E1F782E17B
:1020F000EBEAF1E0DE01AF57BF4F01900D928A95F8
:10210000E1F780E2EDEBF1E0DE01D39601900D9274
:102110008A95E1F781E08093FB0280933D038FEE87
:1021200091E00E94220F0DEF12E081E00E945F0714
:10213000F82E85E00E945F078F0DD8018D938D01E9
:10214000B3E00D331B0789F780E48AB9F89483E87C
:1021500084BD83E085BD8FE380937E0081E0809322
:10216000FC0280933D031092E8011092ED01E12CF6
:10217000F12C512C812C212C312C612C712C00E064
:1021800010E0412C80E00E945F07B82E83E00E949F
:102190005F07C82ED12CCB0CD11C94E0CC0CDD1CDD
:1021A0009A95E1F7F601F695E795F695E795C7520A
:1021B000DF4FF983E883C95DD040560135E0B6941E
:1021C000A7943A95E1F782E00E945F07982E84E099
:1021D0000E945F07282F290DF22FFF709F2E41F4D8
:1021E000E42DF0E0E151FE4F908092948FE0982230
:1021F0000F5F1F4F0A151B0510F40C94C219822F94
:1022000082958F7090E0FC013197EF30F10508F076
:10221000EDC4EC5CFF4F0C941E1AE42DF0E0E1518C
:10222000FE4F808169E10E94FE19FE013196E90F9F
:10223000F11DE90FF11D0190F081E02D642D8FEE6D
:1022400091E00995482E80913D038093FC0200E0C7
:1022500010E00C94C219E42DF0E0E151FE4F8081B2
:1022600067E00E94FE19FE01ED53FF4FE90FF11DDB
:10227000E90FF11D0190F081E02D642D8FEE91E0CA
:102280000995482EE82FF0E0E151FE4F80818F3F05
:1022900049F490913D0397FF02C081E001C0911184
:1022A00080933D0380913D038093FC0200E010E0A9
:1022B0000C94C219E42DF0E0E151FE4F808169E0F9
:1022C0000E94FE19FE01ED56FF4FE90FF11DE90FC7
:1022D000F11D0190F081E02D642D8FEE91E00995C4
:1022E000482E80913D038093FC0200E010E00C94A6
:1022F000C219E42DF0E0E151FE4F808167E00E94B9
:10230000FE19FE01EB54FF4FE90FF11DE90FF11D1E
:102310000190F081E02D642D8FEE91E00995482E1B
:1023200080913D038093FC0200E010E00C94C21900
:10233000E42DF0E0E151FE4F80816CE00E94FE1937
:10234000FE01ED5AFF4FE90FF11DE90FF11D01905C
:10235000F081E02D642D8FEE91E00995482E80915B
:102360003D038093FC0200E010E00C94C21981E070
:102370000E945F07182F85E00E945F07E42DF0E0C0
:10238000E151FE4F810F808380913D03480E00E0B4
:1023900010E00C94C219E42DF0E0E151FE4F808171
:1023A00069E00E94FE19FE01EF57FF4FE90FF11D92
:1023B000E90FF11D0190F081E02D642D8FEE91E089
:1023C0000995482E80913D038093FC0200E010E0C7
:1023D000D9C7E42DF0E0E151FE4F80816BE00E940F
:1023E000FE19FE01E559FF4FE90FF11DE90FF11D3F
:1023F0000190F081E02D642D8FEE91E00995482E3B
:102400008091E801811104C0439400E010E0BAC754
:10241000813021F44A9400E010E0B4C7823029F4FE
:1024200080E1480E00E010E0ADC7833009F098C7A6
:1024300090EF490E00E010E0A5C7042D10E0F80170
:10244000E151FE4F808169E10E94FE19892F90E0E1
:10245000FC013197E831F10520F4ED5BFF4F0C945E
:102460001E1A439400E010E08DC78091EE0118160B
:102470000CF07EC70E94D60E182F0E94D60E91E057
:10248000181390E0892F0E94CA0E439400E010E0D8
:1024900079C7F801E151FE4F408000E010E072C7BB
:1024A0008091EE0187FD0BC00E94D60E811107C0FE
:1024B000F801E151FE4F408000E010E063C7439413
:1024C00000E010E05FC74394F801E151FE4F8081C6
:1024D0000E94CA0E00E010E055C74394F801E15194
:1024E000FE4FE081F0E0E151FE4F80810E94CA0E74
:1024F00000E010E047C74394F801E151FE4FE0814E
:10250000F0E0E151FE4FE081F0E0E151FE4F8081CB
:102510000E94CA0E00E010E035C78091EE0143949E
:1025200087FD0DC00E94D60EF801E151FE4FE081FB
:10253000F0E0E151FE4F808300E010E023C700E0AF
:1025400010E020C78091EE01439487FD11C00E94E6
:10255000D60EF801E151FE4FE081F0E0E151FE4F6F
:10256000E081F0E0E151FE4F808300E010E00AC717
:1025700000E010E007C78091EE01181644F40E94B5
:10258000D60E182F0E94D60E810F0E94CA0E4394B9
:1025900000E010E0F7C68091EE0118164CF40E949E
:1025A000D60E182F0E94D60E181B812F0E94CA0E1D
:1025B000439400E010E0E6C68091EE0187FD05C07F
:1025C0000E94D60E8F5F0E94CA0E439400E010E076
:1025D000D9C68091EE0187FD05C00E94D60E8150BC
:1025E0000E94CA0E439400E010E0CCC68091EE0138
:1025F000181644F40E94D60E182F0E94D60E81237E
:102600000E94CA0E439400E010E0BCC68091EE0127
:10261000181644F40E94D60E182F0E94D60E812B55
:102620000E94CA0E439400E010E0ACC68091EE0117
:10263000181644F40E94D60E182F0E94D60E812739
:102640000E94CA0E439400E010E09CC68091EE0107
:1026500087FD05C00E94D60E80950E94CA0E439445
:1026600000E010E08FC68091EE0111E0140D181605
:10267000A4F40E94D60E90E0E42DF0E0E151FE4F6C
:102680002081277002C0959587952A95E2F70E94D0
:10269000CA0E412E00E010E075C6412E00E010E0A9
:1026A00071C68091EE0111E0140D181694F40E9489
:1026B000D60EE42DF0E0E151FE4F9081977001C0FD
:1026C000880F9A95EAF70E94CA0E412E00E010E0AA
:1026D00059C6412E00E010E055C6F801E151FE4F09
:1026E000E081F0E0E151FE4F80818F5F8083439471
:1026F00000E010E047C6F801E151FE4FE081F0E054
:10270000E151FE4F808181508083439400E010E0CE
:1027100039C68091EE0187FD04C00E94E70E0E9439
:10272000CA0E439400E010E02DC64394E42DF0E07F
:10273000E151FE4F80818093FA0281E080934F0344
:1027400000E010E01FC681E00E945F07182F85E0BF
:102750000E945F07E42DF0E0E151FE4FE081F0E0E0
:10276000E151FE4F810F8083439400E010E00AC6E0
:1027700081E00E945F07182F85E00E945F07810FAC
:102780008770E1EDF0E0EC0FFD1FE80FF11D4081D7
:102790004093EA01440E242D30E0890101511E4F7F
:1027A000D8018C916CE00E94FE19892F90E0FC0109
:1027B0003197EB30F10520F4E55AFF4F0C941E1AC7
:1027C00081E00E945F07B82E85E00E945F07D80174
:1027D000EC91F0E0E151FE4F8B0D808300E010E0C2
:1027E000D1C5F901E151FE4F80818F5F808300E008
:1027F00010E0C8C5F901E151FE4F8081815080830E
:1028000000E010E0BFC5440DE42FF0E0E151FE4FC1
:102810008081480E00E010E0B5C5D901A151BE4F3E
:10282000440DE42FF0E0E151FE4F80819C91890F2F
:102830008C9300E010E0A6C5D901A151BE4F440D14
:10284000E42FF0E0E151FE4F8C919081891B8C9335
:1028500000E010E097C5F901E151FE4F8081880F3B
:10286000808300E010E08EC5F901E151FE4F8081C8
:102870008695808300E010E085C5E091EB01E40DD2
:10288000F0E0E151FE4F8081811175C5440DE42FC8
:10289000F0E0E151FE4F8081480E00E010E072C58B
:1028A000440DE42FF0E0E151FE4F80810E94CA0EFA
:1028B00000E010E067C50E94D60EE091EA01E40D49
:1028C000F0E0E151FE4F808300E010E05BC581E065
:1028D0000E945F07182F85E00E945F07E091EA01E0
:1028E000E40DF0E0E151FE4F810F808300E010E045
:1028F00049C5E42DF0E0E151FE4F2081822F61E2D5
:102900000E94FE19492F50E0FA013A97E731F1058C
:1029100020F4EA59FF4F0C941E1A822F6EE13CC03E
:102920000E94D60E182F0E94D60E181B7CC00E9443
:10293000D60E182F0E94D60E811B9FC00E94D60E65
:10294000182F0E94D60E819F802D112496C00E94C0
:10295000D60E882309F4A9C0C552DF4F8883CB5D0A
:10296000D0400E94D60EC552DF4F6881CB5DD0406B
:102970000E94FE1982C00E94D60E882309F495C0D9
:10298000C552DF4F8883CB5DD0400E94D60EC55222
:10299000DF4F6881CB5DD0400E94FE19892F6DC04A
:1029A0000E94D60E81110AC007C00E94D60E182FB1
:1029B0000E94D60E181710F481E05FC080E05DC061
:1029C000B6E0B093EB0171C081E00E945F07182F61
:1029D00085E00E945F07810F8370880F05C00E9409
:1029E000D60E811104C082E08093EB015EC0E6E068
:1029F000E093EB015AC00E94D60E811102C084E020
:102A0000F3CF1092EB0151C00E94D60E182F09C0CF
:102A10000E94D60E8093EA010E94D60E182F809154
:102A2000EA010E94CA0E812F28C00E94D60E3DC026
:102A30000E94D60E8093FA0281E080934F0335C046
:102A40008091EB018770E1EDF0E0EC0FFD1FE80FE6
:102A5000F11D8081480E29C00E94D60E182F18C083
:102A60000E94D60E182F0E94D60E819F802D112411
:102A7000E82FF0E0E151FE4F80810E94CA0E15C0A0
:102A800081E00E945F07182F85E00E945F07180F02
:102A90000E94D60E082F0E94D60E809F802D1124F2
:102AA000E82FF0E0E151FE4F10838091EB01877039
:102AB000E1EDF0E0EC0FFD1FE80FF11D8081480E05
:102AC00000E010E05FC4042D10E001511E4FD8015A
:102AD000BC908B2D6EE00E94FE199C30C1F018F462
:102AE000913088F402C09D30E9F081E00E945F07D8
:102AF000B82E85E00E945F07D801EC91F0E0E1512B
:102B0000FE4F8B0D0DC08B2D0E94CA0E15C08091FB
:102B1000EB018E5F8093EB010E94D60E8B25F801AE
:102B200080830AC08091EB0182508093EB010E9468
:102B3000D60E8B25D8018C938091EB018770E1ED47
:102B4000F0E0EC0FFD1FE80FF11D8081480E00E062
:102B500010E018C4E42DF0E0E151FE4F2081909187
:102B6000EA01822F890F80838091EB01891B820FFC
:102B700087708093EB01E1EDF0E0EC0FFD1FE80FB3
:102B8000F11D8081480E2F70E5EAF0E0EC0FFD1F8B
:102B9000E20FF11D8081890F8093EA0100E010E0CF
:102BA000F1C3E42DF0E0E151FE4F60818091EA0134
:102BB000982F9770A1EDB0E0AC0FBD1FA90FB11D0C
:102BC0009C91960F908367704091EF010E94000FD7
:102BD0008093EA018770E1EDF0E0EC0FFD1FE80F54
:102BE000F11D8081480E00E010E0CCC311E0180D0B
:102BF00081E00E945F07082F85E00E945F07E82DB3
:102C0000F0E0E350FD4F800F8083103411F0812EEF
:102C100001C0812CA701B3E055954795BA95E1F71E
:102C2000DA01A151BE4F2C91B70167707727822F2F
:102C300090E0062E02C0959587950A94E2F7E52D5F
:102C4000F0E080FF03C03196EF73FF27E350FD4FA4
:102C50008081582E56945694382F327080FD0BC0C8
:102C600081E090E0062E01C0880F0A94EAF7809573
:102C700082238C9309C081E090E0062E01C0880F6A
:102C80000A94EAF7282B2C93FA01E151FE4F808138
:102C90008093FA0281E080934F03311105C0B1E0C7
:102CA000EB1AF10858F003C0FFEFEF1AFF0A81E0BA
:102CB000E81688E0F8060CF061C303C0E12CA8E038
:102CC000FA2E00E010E05EC3E42DF0E0E151FE4F8B
:102CD0002081822F6DE10E94FE19492F50E0FA01F8
:102CE0003197EC31F10520F4E358FF4F0C941E1A94
:102CF000E1E0E40DF0E0E151FE4F8081E2E0E40D1F
:102D0000F0E0E151FE4FE081E40DF0E0E151FE4FD3
:102D1000808393E0490E00E010E034C3E1E0E40D6D
:102D2000F0E0E151FE4FE081F0E0E151FE4F8081A3
:102D3000E2E0E40DF0E0E151FE4FE081E40DF0E06F
:102D4000E151FE4F8083A3E04A0E00E010E01AC379
:102D5000E1E0E40DF0E0E151FE4F8081E2E0E40DBE
:102D6000F0E0E151FE4FE081F0E0E151FE4FE08103
:102D7000F0E0E151FE4F8083B3E04B0E00E010E045
:102D800001C3E1E0E40DF0E0E151FE4FE081F0E04D
:102D9000E151FE4F8081E2E0E40DF0E0E151FE4FB1
:102DA000E081F0E0E151FE4FE081F0E0E151FE4FC3
:102DB0008083E3E04E0E00E010E0E4C2E2E0E40DC8
:102DC000F0E0E151FE4FE081E40DF0E0E151FE4F13
:102DD000A1E0A40DB0E0A151BE4F80819C91890F6C
:102DE0008083F3E04F0E00E010E0CCC2E2E0E40D9F
:102DF000F0E0E151FE4FE081E40DF0E0E151FE4FE3
:102E0000A1E0A40DB0E0A151BE4FAC91B0E0A15142
:102E1000BE4F8C91820F808383E0480E00E010E06B
:102E2000B1C2E2E0E40DF0E0E151FE4FE081F0E0FC
:102E3000E151FE4F9081E92FF0E0E151FE4FA1E01A
:102E4000A40DB0E0A151BE4F8C91890F808393E017
:102E5000490E00E010E096C2E2E0E40DF0E0E1513E
:102E6000FE4FE081F0E0E151FE4F9081E92FF0E06C
:102E7000E151FE4FA1E0A40DB0E0A151BE4FAC91D5
:102E8000B0E0A151BE4F8C91890F8083A3E04A0E20
:102E900000E010E077C2E2E0E40DF0E0E151FE4F27
:102EA000E081E40DF0E0E151FE4FA1E0A40DB0E0BF
:102EB000A151BE4F8C919081891B8083B3E04B0E52
:102EC00000E010E05FC2E2E0E40DF0E0E151FE4F0F
:102ED000E081E40DF0E0A1E0A40DB0E0A151BE4F0F
:102EE000E151FE4FAC918081A81BB0E0A151BE4FD3
:102EF0008C918083E3E04E0E00E010E043C2E2E0FC
:102F0000E40DF0E0E151FE4FE081F0E0E151FE4FD1
:102F10009081E92FF0E0E151FE4FA1E0A40DB0E077
:102F2000A151BE4F8C91891B8083F3E04F0E00E0CE
:102F300010E028C2E2E0E40DF0E0E151FE4FE08154
:102F4000F0E0E151FE4F9081E92FF0E0E151FE4FBA
:102F5000A1E0A40DB0E0A151BE4FAC91B0E0A151F1
:102F6000BE4F8C91891B808383E0480E00E010E007
:102F700009C2E1E0E40DF0E0E151FE4F8081480E2E
:102F800000E010E0FFC14394E42DF0E0E151FE4F7A
:102F9000E081F0E0E151FE4F408000E010E0F2C13E
:102FA000E2E0E40DF0E0E151FE4FE081E40DF0E0FD
:102FB000E151FE4F808181110AC0E1E0E40DF0E0B3
:102FC000E151FE4F8081480E00E010E0DBC193E04C
:102FD000490E00E010E0D6C1E2E0E40DF0E0E1517E
:102FE000FE4FE081E40DF0E0E151FE4F8081811160
:102FF0000DC04394E42DF0E0E151FE4FE081F0E09C
:10300000E151FE4F408000E010E0BCC1A3E04A0E59
:1030100000E010E0B7C1E2E0E40DF0E0E151FE4F66
:10302000E081F0E0E151FE4FE081F0E0E151FE4F40
:10303000808181110AC0E1E0E40DF0E0E151FE4F32
:103040008081480E00E010E09DC1B3E04B0E00E02F
:1030500010E098C1E2E0E40DF0E0E151FE4FE081C4
:10306000F0E0E151FE4FE081F0E0E151FE4F808160
:1030700081110DC04394E42DF0E0E151FE4FE08159
:10308000F0E0E151FE4F408000E010E07BC1E3E062
:103090004E0E00E010E076C1E2E0E40DF0E0E15118
:1030A000FE4FE081E40DF0E0E151FE4F8081882386
:1030B00051F0E1E0E40DF0E0E151FE4F8081480E77
:1030C00000E010E05FC1F3E04F0E00E010E05AC1F5
:1030D000E2E0E40DF0E0E151FE4FE081E40DF0E0CC
:1030E000E151FE4F8081882369F04394E42DF0E0A4
:1030F000E151FE4FE081F0E0E151FE4F408000E001
:1031000010E040C183E0480E00E010E03BC1E2E087
:10311000E40DF0E0E151FE4FE081F0E0E151FE4FBF
:10312000E081F0E0E151FE4F8081882351F0E1E041
:10313000E40DF0E0E151FE4F8081480E00E010E028
:1031400021C193E0490E00E010E01CC1E2E0E40D73
:10315000F0E0E151FE4FE081F0E0E151FE4FE0810F
:10316000F0E0E151FE4F8081882369F04394E42D23
:10317000F0E0E151FE4FE081F0E0E151FE4F408090
:1031800000E010E0FFC0A3E04A0E00E010E0FAC04B
:10319000E2E0E40DF0E0E151FE4FA081A40DB0E0CB
:1031A000A151BE4F8C9181508C93E081E40DF0E0F1
:1031B000E151FE4F808181110AC0E1E0E40DF0E0B1
:1031C000E151FE4F8081480E00E010E0DBC0B3E02B
:1031D0004B0E00E010E0D6C0E2E0E40DF0E0E1517B
:1031E000FE4FA081A40DB0E0A151BE4F8C91815043
:1031F0008C93E081E40DF0E0E151FE4F808181117C
:103200000DC04394E42DF0E0E151FE4FE081F0E089
:10321000E151FE4F408000E010E0B4C0E3E04E0E0C
:1032200000E010E0AFC0E2E0E40DF0E0E151FE4F5D
:103230008081AFEFA80FB0E0A151BE4F9C91A82FA5
:10324000B0E0A151BE4FAC91B0E0A151BE4F9C93F4
:10325000E081F0E0E151FE4FE081F0E0E151FE4F0E
:10326000808181110AC0E1E0E40DF0E0E151FE4F00
:103270008081480E00E010E085C0F3E04F0E00E0D2
:1032800010E080C0E2E0E40DF0E0E151FE4F80810B
:10329000AFEFA80FB0E0A151BE4F9C91A82FB0E0B6
:1032A000A151BE4FAC91B0E0A151BE4F9C93E081C3
:1032B000F0E0E151FE4FE081F0E0E151FE4F80810E
:1032C000811111C04394E42DF0E0E151FE4FE08103
:1032D000F0E0E151FE4FE081F0E0E151FE4F40802F
:1032E00000E010E04FC083E0480E00E010E04AC06C
:1032F00093E0490E00E010E045C081E00E945F07C6
:10330000182F85E00E945F07E2E0E40DF0E0E15154
:10331000FE4FE081E40DF0E0E151FE4F810F80832C
:10332000A3E04A0E00E010E02DC081E00E945F079C
:10333000182F85E00E945F07E2E0E40DF0E0E15124
:10334000FE4FE081F0E0E151FE4FE081F0E0E1511D
:10335000FE4F810F8083B3E04B0E00E010E012C0FF
:1033600000E010E00FC000E010E0442443940AC0E5
:1033700000E010E007C000E010E004C0E12CF12CF8
:1033800000E010E0EFEF6E1A7E0A6C147D04C0F0CE
:10339000E091E901EF5FE093E90180914F03813013
:1033A00019F410924F0306C0F0E0E151FE4F808106
:1033B0008093FA028091FA02809587BD612C712C6E
:1033C000FFEF2F1A3F0AC752DF4F88819981C95DED
:1033D000D0402816390610F40C94C210FE01319624
:1033E000E90DF11DE90DF11D02A8F3A9E02D8FEE05
:1033F00091E00995212C312C0C94C210991B79E095
:1034000004C0991F961708F0961B881F7A95C9F774
:103410008095089597FB072E16F4009407D077FD4A
:1034200009D00E94241A07FC05D03EF4909581959E
:103430009F4F0895709561957F4F0895EE0FFF1F80
:103440000590F491E02D0994AA1BBB1B51E107C024
:10345000AA1FBB1FA617B70710F0A61BB70B881F24
:10346000991F5A95A9F780959095BC01CD010895B3
:103470008F929F92AF92BF92CF92DF92EF92FF9284
:10348000CF93DF93EC01688179818A819B816115FB
:1034900071058105910521F464E279ED8BE597E0F2
:1034A0002DE133EF41E050E00E94961A49015A01A4
:1034B0009B01AC01A7EAB1E40E94B51A6B017C0143
:1034C000ACEEB4EFA50194010E94C31AC60ED71E3C
:1034D000E81EF91EF7FE06C081E0C81AD108E1080F
:1034E00080E8F80AC882D982EA82FB82C6019F7707
:1034F000DF91CF91FF90EF90DF90CF90BF90AF9092
:103500009F908F9008950E94381A089581E091E06D
:103510000E94381A0895A0E0B0E0809301019093D2
:103520000201A0930301B09304010895052E97FBB7
:103530001EF400940E94AD1A57FD07D00E94C81ACD
:1035400007FC03D04EF40C94AD1A5095409530957D
:1035500021953F4F4F4F5F4F0895909580957095FF
:1035600061957F4F8F4F9F4F08950E94EA1AA59F44
:10357000900DB49F900DA49F800D911D112408956E
:10358000B7FF0C94B51A0E94B51A821B930B0895CD
:10359000A1E21A2EAA1BBB1BFD010DC0AA1FBB1F57
:1035A000EE1FFF1FA217B307E407F50720F0A21BC9
:1035B000B30BE40BF50B661F771F881F991F1A9436
:1035C00069F760957095809590959B01AC01BD0160
:1035D000CF010895A29FB001B39FC001A39F700DBA
:1035E000811D1124911DB29F700D811D1124911D0B
:0635F0000895F894FFCFDE
:1035F6001101000000F0F1010F1011FFEF010402AC
:1036060007030D04070809030C060B050DC1058801
:103616000591059A05A605290E430E560E5D0EB2B6
:1036260005CC05D605E005EA05F505010613061ED7
:10363600063D06800E9A0E4F065306600664069AED
:103646000E8D03A303B603CD03DE03640602050A4B
:103656000512051D052805070E35055E0564069A43
:103666000EC904DF04AB0DF104D50D64069A0E15E0
:1036760004180439045A04620478047E04960499F2
:1036860004BB046406D602EC026D06A006D306F05F
:1036960006F9020D0719039A0E64062D070E0D464C
:1036A60007400379033D0D770D9A0E64067607846D
:1036B6000CB800D3011E02C007DE07FF07BA0F1FB2
:0E36C60009380A070B21089C0B300C76070010
:00000001FF
