:100000000C9434000C9451000C9451000C94510049
:100010000C9451000C9451000C9451000C9451001C
:100020000C9451000C9451000C9451000C9451000C
:100030000C9451000C9451000C9451000C945100FC
:100040000C9451000C9451000C9451000C945100EC
:100050000C9451000C9451000C9451000C945100DC
:100060000C9451000C94510011241FBECFEFD4E02A
:10007000DEBFCDBF11E0A0E0B1E0EEE9F7E102C0E4
:1000800005900D92A03BB107D9F712E0A0EBB1E0CB
:1000900001C01D92AC3FB107E1F70E9406080C9425
:1000A000CD0B0C940000ECE7F0E080818F7780832B
:1000B000808180648083808180628083EAE7F0E0D1
:1000C0008081846080838081826080838081806879
:1000D000808380818860808317B818B808959091D4
:1000E0007C00987F90937C0090917C008770892B96
:1000F00080937C0080917A00806480937A00809164
:100100007A0084FFFCCF809179000895EF92FF92EE
:100110001F93CF93DF937C01C0E0D0E080E00E948A
:100120006F00182F85E00E946F00F701EC0FFD1F94
:10013000180F10832196CF3FD10581F7DF91CF9122
:100140001F91FF90EF9008950090D90202C0880F90
:10015000991F0A94E2F7909389008093880008958C
:100160000090D90202C0969587950A94E2F7909381
:1001700089008093880008952091D90230E0AC0175
:10018000429FC001439F900D529F900D1124909368
:1001900089008093880008956091D90270E06F5FB4
:1001A0007F4F0E94B20A709389006093880008957F
:1001B0000F931F93CF93DF93EC0100E010C080E01A
:1001C0000E946F00182F85E00E946F00810FFE01D2
:1001D000E80FF11D8F709081982790830F5F8881C1
:1001E000081768F3DF91CF911F910F9108952F9217
:1001F0003F924F925F926F927F928F929F92AF92B7
:10020000BF92CF92DF92EF92FF920F931F93DF93F3
:10021000CF93CDB7DEB728970FB6F894DEBF0FBEE9
:10022000CDBF2090B301FC01E158FF4F222019F40B
:100230007F01FC0101C07C0110819180A28033808C
:10024000992011F499249394AA2011F4AA24A39438
:100250002091AA012E83C22EDD24EC0DFD1D3081DC
:100260003D8382913196282F30E00181402F50E06C
:100270005C834B837097B08070964B2C552480889C
:10028000682C7724719760813296B0813F9677858C
:10029000A189E12FF0E0FA83E983AF01415050409A
:1002A0002417350719F481E090E00BC0882339F05A
:1002B00080E090E0E1E0F0E0F887EF8304C080E0C8
:1002C00090E018861F82EB81FC81E417F50711F49A
:1002D000019607C0002329F0EF81F8853196F88751
:1002E000EF834416550611F4019607C0BB2029F090
:1002F000EF81F8853196F887EF836416750611F45F
:10030000019607C0882029F0EF81F8853196F8879B
:10031000EF83611711F4019607C0662329F0EF817E
:10032000F8853196F887EF83B11711F4019607C06D
:10033000BB2329F0EF81F8853196F887EF83711799
:1003400011F4019607C0772329F0EF81F8853196E3
:10035000F887EF83A11711F4019607C0AA2329F0AB
:10036000EF81F8853196F887EF83FD81FF2399F4BB
:10037000F601EF77F070EE0DFF1D6A2D70E00E9420
:10038000C60A262F8F819885692D70E00E94C60AC3
:10039000260F208331C0ED818E2F90E0EFE7AE2E47
:1003A000B12CAC20BD208417950714F5AE0CBF1CF2
:1003B000280F391F4B815C81240F351F240D351DFB
:1003C000260D371D260F311D2B0F311D270F311D17
:1003D0008F819885019698878F83C9018A0F911D17
:1003E0006F8178850E94C60A360ED5013C9204C002
:1003F000AE0CBF1CF5011082F601EF77F070EE0D28
:10040000FF1D808190E029813A818217930714F0C3
:10041000115010838E818F5F8093AA018F3638F040
:1004200081E18093AA0181E028262092B3012896D9
:100430000FB6F894DEBF0FBECDBFCF91DF911F91F5
:100440000F91FF90EF90DF90CF90BF90AF909F9073
:100450008F907F906F905F904F903F902F90089576
:10046000CF93DF93EC0128818091B2018F5F8F7071
:100470008093B20190E00196382F3295307FDC01F5
:100480001197F4E0AA0FBB1FFA95E1F7AC0FBD1F5F
:1004900040E050E0622F70E03F5F2FEF12968C91AA
:1004A0001297813810F094E001C090E011968C9181
:1004B0001197813808F092608C91813808F0916032
:1004C000FB0102C0F595E7959A95E2F7E0FF07C0BA
:1004D000832F840FFE01E80FF11D208306C0832FB8
:1004E000840FFE01E80FF11D10824F5F5F4F1196E0
:1004F0004F30510599F6DF91CF9108951F93CF9317
:10050000DF93AC011091B00181589F4F112321F46A
:10051000782F692F9A0104C09C01CA01742F692F9A
:10052000D9015196F901872F962FEC0131E14FEF58
:100530009C912289217080898170280F818181702E
:10054000280F50968C9150978170280F8081817070
:10055000280F82818170280F80A18170280F519609
:100560008C9151978170280F233041F0892F90E0B2
:1005700081709070820F911D039711F4498B01C017
:10058000198A3F5F1196319621963E3689F681E0B1
:1005900018271093B001DF91CF911F91089580919A
:1005A000C102882311F481E00CC0813019F410924B
:1005B000C10209C0823011F483E003C0833019F412
:1005C00082E08093C102862F0895862F089520919E
:1005D000DA02FC01E20FF11D808187BD862F0895AC
:1005E000FC018091C402882321F48091DA028F5F9C
:1005F00011C0813021F48091DA0281500BC0823029
:1006000021F48091DA02805F05C0833029F4809163
:10061000DA0280518093DA028091DA02E80FF11D4C
:1006200080818823A1F48091C102882311F481E0A4
:100630000CC0813019F41092C10209C0823011F44B
:1006400083E003C0833019F482E08093C102862FD7
:100650000895FC018091C402882321F48091DA027C
:10066000815011C0813021F48091DA028F5F0BC07C
:10067000823021F48091DA02805105C0833029F460
:100680008091DA02805F8093DA028091DA02E80FCB
:10069000F11D80818823A1F48091C102882311F487
:1006A00081E00CC0813019F41092C10209C082307F
:1006B00011F483E003C0833019F482E08093C10217
:1006C000862F08958091C402882321F48091DA0254
:1006D000805F11C0813021F48091DA0280510BC01B
:1006E000823021F48091DA028F5F05C0833029F4D3
:1006F0008091DA0281508093DA02862F08958091EA
:10070000C402882321F48091DA02805111C0813023
:1007100021F48091DA02805F0BC0823021F4809155
:10072000DA02815005C0833029F48091DA028F5FAC
:100730008093DA02862F0895DC013091C40240E0F4
:1007400014C0332311F42F5F0BC0313011F421504A
:1007500007C0323011F4205F03C0333019F4205148
:100760002093DA024F5F443141F02091DA02FD011B
:10077000E20FF11D8081882321F7862F08952091B3
:10078000DA02FC01E20FF11D80818823A9F4809137
:10079000C102882311F481E008C0813019F410925D
:1007A000C1020BC0823021F483E08093C10205C0F6
:1007B000833019F482E0F9CF1082862F08952091BA
:1007C000DA02FC01E20FF11DE081EE2339F0215045
:1007D000DC01A20FB11D8C918823A9F08091C10288
:1007E000882311F481E008C0813019F41092C1020D
:1007F0000BC0823021F483E08093C10205C08330B6
:1008000019F482E0F9CFEC93862F0895DC018091F2
:10081000F9028C3079F4962F9F5FFD01E90FF11DED
:10082000A60FB11D8C9180836F3F39F48DE08093CA
:10083000F90203C09091DD02960F892F0895EF927F
:10084000FF920F931F939C01062F8091F9028D3028
:10085000B1F48091E102860F7901E80EF11C80E08D
:100860000E946F00182F85E00E946F00180FF7019B
:1008700010838091E1028F5F8093E10203C0809139
:10088000DD02080F802F1F910F91FF90EF900895C8
:10089000262F8091F9028F5F8093F9026CE30E940A
:1008A000A60A992321F487B5809587BD03C080915E
:1008B000DD02280F822F0895862F9091DD02890F87
:1008C0000895FC01862F8150DF01A80FB11D9C9176
:1008D00090959C938E5FE80FF11D815090819095CB
:1008E00090839091DD02890F08950F931F93CF930A
:1008F000DF93EC01062F80E00E946F00182F85E047
:100900000E946F00810F837021F48091DA028F5F63
:1009100005C0813031F48091DA0281508093DA028F
:1009200009C09091DA02823011F4905F01C09051B9
:100930009093DA028091DA02C80FD11D888187BDB9
:100940008091DD02800FDF91CF911F910F9108956B
:10095000EF92FF920F931F93062F2091DA022F5FE1
:100960007C01E20EF11C80E00E946F00182F85E0F0
:100970000E946F00180FF70110838091DD02800F35
:100980001F910F91FF90EF900895862F9091DD02B7
:10099000890F0895FC01862F8F5FDF01A80FB11D1D
:1009A0008250E80FF11D8F5F9C912081920F97BDBF
:1009B0009091DD02890F0895FC01862FDF01A60FBB
:1009C000B11D9FEF9C938F5FE80FF11D90838F5FA8
:1009D0000895CF93DF93DC01EC01C60FD11D888110
:1009E00087FD0BC06150FD01E60FF11D80836E5F36
:1009F000A60FB11D615088818C938091DD02860F16
:100A0000DF91CF910895DC01862F8F5FFD01E80F04
:100A1000F11D10828250A80FB11D8F5F1C92909122
:100A2000DD02890F0895DC01462F2091E00227FFA7
:100A30000CC0FC01E60FF11D808163E00E94A60A54
:100A4000913019F49093E00225C022306CF0FD0142
:100A5000E40FF11D808163E00E94A60A992321F42E
:100A60008FEF8093E00216C0A40FB11D8C9190E02F
:100A7000332727FD3095BC01629FC001639F900D15
:100A8000729F900D1124A4E095958795AA95E1F7A2
:100A90008093DD028091DD02840F0895862F8D5FA3
:100AA0000895DC01862F462F50E08E5FFD01E80F90
:100AB000F11D90819A01290F311DBD01620F711D39
:100AC0008150FD01E80FF11D9081490F511DA40FC8
:100AD000B11DFB0190812C91920F90838E5F089540
:100AE000DC01862F462F50E08E5FFD01E80FF11DDF
:100AF00090819A01290F311DBD01620F711D815036
:100B0000FD01E80FF11D9081490F511DA40FB11D8A
:100B1000FB0190812C91921B90838E5F08956F5FF3
:100B2000FC01E60FF11D61508081860F0895DC0104
:100B30006E5FFC01E60FF11D62508081860FFD01A2
:100B4000E80FF11D8081882329F46F5FA60FB11D86
:100B50008C910895862F8D5F08956F5FFC01E60FDD
:100B6000F11D80810895DC016E5FFC01E60FF11D2F
:100B700062508081860FFD01E80FF11D8081815058
:100B80008083882329F46F5FA60FB11D8C9108958F
:100B9000862F8D5F0895862F8D5F0895DC01262FA7
:100BA00030E06E5FFC01E60FF11D8081A901480F66
:100BB000511DCA01AD01480F511D6150FD01E60FE5
:100BC000F11D61508081280F311DA20FB11DFA0166
:100BD00090818C91981719F0862F8A5F0895862F3F
:100BE0008D5F0895862F8D5F08956E5FFC01E60F7F
:100BF000F11D808187BD862F8F5F0895862F90918C
:100C0000DD02890F0895FC01862F8150DF01A80FB6
:100C1000B11D8E5FE80FF11D81509C912081920FD4
:100C200097BD9091DD02890F08959C016F5FFC01D3
:100C3000E60FF11D61508081181634F4F901E60FBA
:100C4000F11D80818F5F80838091DD02860F089582
:100C5000DC016F5FFC01E60FF11D6150808187FFB1
:100C600004C0A60FB11D81E88C938091DD02860F30
:100C70000895862F9091DA029F5F9093DA028F5F3A
:100C80000895862F9091DA0291509093DA028F5F47
:100C900008952091DA02FC01E20FF11D80818F5F3F
:100CA0008083862F8F5F08952091DA02FC01E20F86
:100CB000F11D808181508083862F8F5F0895862F5C
:100CC0008F5F08952091DA02FC01E20FF11D80810F
:100CD00087BD862F8F5F0895EF92FF920F931F932A
:100CE000062F2091DA027C01E20EF11C80E00E94C6
:100CF0006F00182F85E00E946F00180FF701108316
:100D0000802F8F5F1F910F91FF90EF90089580913A
:100D1000C0028F5F8093C002843110F01092C00235
:100D2000E091C002F0E0EB51FD4F6083862F8F5FB2
:100D300008952091DA02FC01E20FF11D80818823E1
:100D400051F0E091C002F0E0EB51FD4F8081282F7F
:100D500030E0215030408091C00281508093C00229
:100D6000822F0895862F9091DA029F5F9093DA0286
:100D70009091DD02890F08950F931F93162F80E045
:100D80000E946F00082F85E00E946F00080F0093FB
:100D9000DA028091DD02810F1F910F9108951F9358
:100DA000162F82E00E946F008093DA028091DD02AC
:100DB000810F1F91089582E00E946F009091DD02E3
:100DC000890F0895EF92FF920F931F93062F2091A2
:100DD000DA027C01E20EF11C80E00E946F00182F05
:100DE00085E00E946F00180FF70110838091DD02EB
:100DF000800F1F910F91FF90EF900895862F909193
:100E0000DA0291509093DA029091DD02890F0895F1
:100E10002091DA02FC01E20FF11D80818F5F808357
:100E20008091DD02860F08952091DA02FC01E20F25
:100E3000F11D8081815080838091DD02860F0895AD
:100E4000862F9091DD02890F08952091DA02FC012E
:100E5000E20FF11D808187BD8091DD02860F08952C
:100E6000862F9091DD02890F0895862F9091DA02E6
:100E700097BD9091DD02890F0895FC01E60FF11DE9
:100E800080818F5F80838091DD02860F0895FC0151
:100E9000E60FF11D8081815080838091DD02860FF5
:100EA0000895FC01E60FF11D8081880F80838091F9
:100EB000DD02860F0895FC01E60FF11D8081880F89
:100EC000880F80838091DD02860F0895FC01E60F74
:100ED000F11D8081880F880F880F80838091DD024B
:100EE000860F0895DC016F5FFC01E60FF11D615074
:100EF0008081882329F48091DA02A80FB11D6C91BA
:100F00008091DD02860F08956F5FFC01E60FF11DF1
:100F10006150808187FD02C0860F08958091DD02B7
:100F2000860F0895DC01E62FF0E031978FEFEF3F59
:100F3000F80711F4EFEFF0E0EA0FFB1F808187FD67
:100F400009C06F5FFD01E60FF11D6150A60FB11DD5
:100F50008C9180838091DD02860F0895FC01862F9D
:100F60009F01260F311D8F5FDF01A80FB11D81503A
:100F70009C91E90FF11D9081F90190839091DD0220
:100F8000890F0895862F9091DD02890F0895809131
:100F9000E00287FF02C081E001C08FEF8093E00292
:100FA0008091DD02860F0895862F9091DD02890FD2
:100FB0000895FF920F931F938C01F62E82E00E94FA
:100FC0006F000F0D111DF80180838091DD028F0DE0
:100FD0001F910F91FF900895EF92FF920F931F932F
:100FE0008C01E62E80E00E946F00F82E85E00E94C2
:100FF0006F000E0D111DF80EF801F0828091DD02D8
:101000008E0D1F910F91FF90EF9008956F927F9238
:101010008F929F92AF92BF92CF92DF92EF92FF9208
:101020000F931F93DF93CF93CDB7DEB7CA5AD0404B
:101030000FB6F894DEBF0FBECDBFDE01A958BF4F7B
:10104000E6E7F1E084E301900D928150E1F7DE01E3
:101050005B96E6E6F1E080E101900D928150E1F7C8
:10106000DE01DB96E4E5F1E082E101900D92815032
:10107000E1F7DE011196E8E4F1E08CE001900D92D9
:101080008150E1F7DE01AF59BF4FE2E3F1E086E1C5
:1010900001900D928150E1F7DE01A35BBF4FEEE1BD
:1010A000F1E084E101900D928150E1F7DE011D969F
:1010B000E0E1F1E08EE001900D928150E1F7DE0178
:1010C0009B96E0E0F1E080E101900D928150E1F724
:1010D0000E94530084EB91E00E94860091E080E43E
:1010E0008AB983E884BD83E085BD8FE380937E0069
:1010F0001092BF029093DD029093E0021092C10221
:101100001092C40280E887BDEE24FF246E0108948B
:10111000C11CD11C11E6A12EB12CAC0EBD1EBDE42C
:101120008B2E912C8C0E9D1EA7E76A2E712C6C0EB7
:101130007D1E82E00E946F008093DF0282E00E94A9
:101140006F00082F84E00E946F0010E0080F111D4F
:1011500015950795159507950093DF020770009385
:10116000C20281E00E946F00182F83E00E946F008E
:10117000612F70E0680F711D759567958091C202AF
:10118000882321F48091BF028093C2020894E11C5D
:10119000F11C1091DF021695169516951093C30257
:1011A0008091C20287708093DE02862F8F5F8093CA
:1011B000E3026F5F7F4FC7010E94B20A892B09F0DB
:1011C000F3C0133009F46BC0143040F4113021F136
:1011D0002091BF02123008F04EC00DC0153009F446
:1011E00091C0153008F47BC0163009F499C017304F
:1011F00009F0DAC0ABC0E22FF0E0EC54FE4F808182
:101200008093DC026AE10E94A60AE92FF0E0EE0F6B
:10121000FF1FE60DF71D55C06091BF02E62FF0E0FD
:10122000EC54FE4FE081E093DC02F0E0E770F070F8
:10123000EE0FFF1FEC0DFD1D028CF38DE02D84EBF6
:1012400091E00995E82F8093BF028091E00280939E
:10125000DD02F0E0EC54FE4FE081EF3F09F0A4C066
:1012600087FF03C01093E0029FC0882309F49CC04D
:10127000E093E00299C0E22FF0E0EC54FE4F808151
:101280008093DC0269E00E94A60AE92FF0E0EE0FED
:10129000FF1FEC0DFD1D02ACF3ADE02D15C020913C
:1012A000BF02E22FF0E0EC54FE4F80818093DC021D
:1012B00066E00E94A60AE92FF0E0EE0FFF1FEC0D9A
:1012C000FD1D0190F081E02D84EB91E0622F0995E6
:1012D0008093BF028091E0028093DD0265C020917F
:1012E000BF02E22FF0E0EC54FE4F80818093DC02DD
:1012F0006BE00E94A60AE92FF0E0EE0FFF1FEA0D57
:10130000FB1DDFCF9091BF02E92FF0E0EC54FE4FC0
:1013100080818093DC0287BD8091E002890F42C00A
:101320002091BF02E22FF0E0EC54FE4F80818093C9
:10133000DC0267E00E94A60AE92FF0E0EE0FFF1F33
:10134000EC0DFD1D0484F585E02DBECF2091BF027C
:10135000E22FF0E0EC54FE4F80818093DC026AE0E3
:101360000E94A60AE92FF0E0EE0FFF1FE80DF91D1D
:101370000190F081E02D84EB91E0622F099580933C
:10138000BF029091C102992311F48F5F0BC091307D
:1013900011F4815007C0923011F4805F03C0933084
:1013A00019F480518093BF026091E302C70170E09D
:1013B0000E94B20A892B09F0BCCEE091DE02F0E077
:1013C000EE0FFF1FEC0DFD1D02A4F3A5E02D84EB35
:1013D00091E00995AECE1F93CF93DF93EC01162FCA
:1013E0001F5FFC01E10FF11D115080818823A1F4E2
:1013F0001150FE01E10FF11D1F5F8081181664F48A
:101400000E942A0B6AE070E00E94C60A049724F446
:10141000C10FD11D81E088838091DD02810FDF91B2
:10142000CF911F9108951F93CF93DF93EC01162F57
:101430001F5FFC01E10FF11D11508081181664F44B
:101440000E942A0B6AE070E00E94C60A049724F406
:10145000C10FD11D8FEF88838091DD02810FDF9155
:10146000CF911F910895AF92BF92CF92DF92EF92EA
:10147000FF920F931F93CF93DF93FC01E080618174
:101480008091B1019F0121583F4F882339F4C90150
:10149000522F492FCF013E2F292F06C0C901322FCD
:1014A000292FCF015E2F492F832F922FEC01852FFB
:1014B000942F8C0190E1F92EC62EDD24AA24A3944A
:1014C00081E8B82E8889F801808B8E1510F0B08ADB
:1014D00025C0882321F08F5FF801808B1FC0888191
:1014E000882311F08E1578F088A1882311F08E15CD
:1014F00050F08F85882311F08E1528F08989882374
:1015000069F08E1558F40E942A0B6AE070E00E9480
:10151000C60A8C159D0514F4F801A08AF39421964F
:101520000F5F1F4FFFE6FF1669F68091B10191E052
:1015300089278093B101DF91CF911F910F91FF9087
:10154000EF90DF90CF90BF90AF900895991B79E016
:1015500004C0991F961708F0961B881F7A95C9F743
:1015600080950895AA1BBB1B51E107C0AA1FBB1F92
:10157000A617B70710F0A61BB70B881F991F5A951F
:10158000A9F780959095BC01CD01089597FB092E90
:1015900007260AD077FD04D0E5DF06D000201AF434
:1015A000709561957F4F0895F6F7909581959F4FBF
:1015B0000895A0E0B0E0EFEDFAE00C947C0BEC01B4
:1015C000A880B980CA80DB80A114B104C104D10411
:1015D00041F484E2A82E89EDB82E8BE5C82E87E071
:1015E000D82EC601B5012DE133EF41E050E00E9455
:1015F000590B27EA31E440E050E00E943A0B7B01AE
:101600008C01C601B5012DE133EF41E050E00E94AD
:10161000590BCA01B9012CEE34EF4FEF5FEF0E9476
:101620003A0B6E0D7F1D801F911F97FF04C0615004
:10163000704080409048688379838A839B839B01B4
:101640003F77C901CDB7DEB7EAE00C94980B0E9452
:10165000D90A08958BEA91E00E94D90A0895A0E082
:10166000B0E08093AB019093AC01A093AD01B09337
:10167000AE010895629FD001739FF001829FE00D3B
:10168000F11D649FE00DF11D929FF00D839FF00D01
:10169000749FF00D659FF00D9927729FB00DE11DAD
:1016A000F91F639FB00DE11DF91FBD01CF0111248A
:1016B000089597FB092E05260ED057FD04D04BD078
:1016C0000AD0001C38F450954095309521953F4F35
:1016D0004F4F5F4F0895F6F79095809570956195FF
:1016E0007F4F8F4F9F4F08952F923F924F925F925F
:1016F0006F927F928F929F92AF92BF92CF92DF9222
:10170000EF92FF920F931F93CF93DF93CDB7DEB786
:10171000CA1BDB0B0FB6F894DEBF0FBECDBF09941A
:101720002A88398848885F846E847D848C849B8471
:10173000AA84B984C884DF80EE80FD800C811B817F
:10174000AA81B981CE0FD11D0FB6F894DEBF0FBEAE
:10175000CDBFED010895A1E21A2EAA1BBB1BFD010E
:101760000DC0AA1FBB1FEE1FFF1FA217B307E40780
:10177000F50720F0A21BB30BE40BF50B661F771FD8
:10178000881F991F1A9469F76095709580959095B8
:0E1790009B01AC01BD01CF010895F894FFCF7D
:10179E00D800330AF7003002F700330A7E02D80071
:1017AE0006041F0448045C0461047504A804CF02F7
:1017BE00E502E702F002290362037F039C03BF03E5
:1017CE00DF034E05510570058F059705AD05B30571
:1017DE00CB05CE05F205F505FE0503061506130A23
:1017EE002806EB0939064106490654065F066206CD
:1017FE006C0687069906D907EC07C504CA04DC04F3
:10180E00E9040305130530073507B206FE0608077F
:10181E001407BC06CF06DB06E206200725073D07A8
:10182E00470751075B076607720784079207AE07E3
:10183E00D907EC07C207C707D40711010000000043
:00000001FF
