:100000000C948A000C94A7000C94A7000C94A700F1
:100010000C94A7000C94A7000C94A7000C94A700C4
:100020000C94A7000C94A7000C94A7000C94A700B4
:100030000C94A7000C94A7000C94A7000C94A700A4
:100040000C94A7000C94A7000C94A7000C94A70094
:100050000C94A7000C94A7000C94A7000C94A70084
:100060000C94A7000C94A700071202120D1249125B
:10007000521273128D12AB12CD12F51221135713B7
:100080008D13B313D9130F1445147B14A114DA1470
:1000900013152415351554156415881688168816F9
:1000A0008816881688168816881688168816981650
:1000B000B616E5161617471778179E17FC17FE1782
:1000C0001118D617DA17EC17011814183F187518FD
:1000D0007E188718BF18F418131A2A1A451A5E1AC0
:1000E0007B1A941AB01ACB1AEA1A031B201B3B1B6B
:1000F0005A1B651B721B901BB01BD11BF41B121CDF
:10010000321C531C761C9C1CC41CF61C2E1D331D5B
:10011000381D521D11241FBECFEFD4E0DEBFCDBF6E
:1001200011E0A0E0B1E0EEEAFDE302C005900D921F
:10013000AE3DB107D9F713E0AEEDB1E001C01D92BD
:10014000AE34B107E1F70E949C0F0C94D51E0C94BD
:10015000000090917C00987F90937C0090917C00AF
:100160008770892B80937C0080917A0080648093D3
:100170007A0080917A0084FFFCCF80917900089505
:1001800040E090E001972091EE01332727FD309564
:10019000281739070CF041E0842F0895E091EE0113
:1001A000EE3048F4EF5FE093EE01FF27E7FDF095B6
:1001B000E85DFC4F808308959091EE01903110F03E
:1001C00080E00895E92FFF27E7FDF095E85DFC4FFB
:1001D000808191509093EE010895E091EE01E0311D
:1001E00010F080E00895FF27E7FDF095E85DFC4FF3
:1001F00080810895EFEEF1E0E80FF11D8081089510
:10020000EFEEF1E0E80FF11D6083089550E002C0C9
:10021000559547956A95E2F740FD02C081500895D3
:100220008F5F0895ECE7F0E080818F778083808195
:1002300080648083808180628083EAE7F0E080814F
:100240008460808380818068808317B818B808959F
:100250001F93CF93DF93EC0181E00E94A900182F38
:1002600085E00E94A900382F310F90E007C0FE0101
:10027000E20FF11D80818F5F80839F5F292F230F05
:1002800088819817A0F3DF91CF911F910895CF93A4
:10029000DF93EC0181E00E94A90085E00E94A900A3
:1002A00090E001C09F5F88819817E0F3DF91CF91C4
:1002B00008951F93CF93DF93EC0181E00E94A90082
:1002C000182F85E00E94A900982F910F20E00CC004
:1002D0009F5FDE01A90FB11D8981890FFE01E80F23
:1002E000F11D80818C932F5F8881281788F3DF911F
:1002F000CF911F9108950F931F93CF93DF93EC013C
:10030000062F81E00E94A900182F85E00E94A90015
:10031000982F910F0F5F091B20E0FE01E00FF11DE8
:100320008081813009F421E00F5FFE01E00FF11DB3
:100330008081813009F42F5F0F5FFE01E00FF11D16
:100340008081813009F42F5F9250090F9E5FFE017A
:10035000E00FF11D8081813009F42F5F0E5FFE01F7
:10036000E00FF11D8081813009F42F5F9150900FD3
:10037000FE01E90FF11D8081813009F42F5F9F5F3D
:10038000FE01E90FF11D8081813009F42F5F9F5F2D
:10039000C90FD11D8881813009F42F5F80E0215081
:1003A000223008F481E0DF91CF911F910F910895E1
:1003B000AF92BF92CF92DF92EF92FF920F931F9373
:1003C000CF93DF939C01C090E70181589F4FCC20D1
:1003D00029F47C01C901B22ED92E03C0B82ED92E22
:1003E000790181E00E94A90085E00E94A9008B2D7F
:1003F0009D2D8C01E701FF2481E8A82EEE24EA94CC
:10040000F8018081882311F4188214C0813011F41E
:10041000E88210C08F3F11F4A8820CC0813838F0F8
:100420008B2D9D2D6F2D0E947B01813011F0F801E5
:1004300080818883F3940F5F1F4F2196FFE7FF169B
:10044000F9F681E0C826C092E701DF91CF911F91B4
:100450000F91FF90EF90DF90CF90BF90AF900895F5
:100460005F926F927F928F929F92AF92BF92CF9244
:10047000DF92EF92FF920F931F93CF93DF938C0144
:100480008090E60181589F4F882019F47C01E80193
:1004900002C0EC01780181E00E94A90085E00E9481
:1004A000A900F80161807280662011F466246394CB
:1004B000772011F4772473946E0199249394F801B2
:1004C0005481952F9095990D9F77FE01E90FF11DAD
:1004D000A080F801408130E0A41609F431E02A2D13
:1004E000A11021E0622F9F5F9F77FE01E90FF11DB0
:1004F0008081841709F43F5F882311F0622F6F5FBA
:100500009F5F9F77FE01E90FF11DB080B41609F4DB
:100510003F5FB1106F5F252F2250920F9F77FE0132
:10052000E90FF11DB081B41709F43F5FB1116F5F9E
:100530009F5F9F77FE01E90FF11DA081A41709F4C9
:100540003F5FA1116F5F9F5F9F77FE01E90FF11D74
:100550007081741709F43F5F71116F5F920F9F777D
:10056000FE01E90FF11D5081541709F43F5F51114D
:100570006F5F9F5F9F77FE01E90FF11D20812417B8
:1005800009F43F5F21116F5F9F5F9F77FE01E90FC5
:10059000F11D5080541609F43F5F51106F5FF60152
:1005A0009181992369F4862F662D0E94AE1D282F14
:1005B000832F672D0E94AE1D280FF701218318C0DD
:1005C0009417A0F48A0D8B0D8B0F8A0F870F850F60
:1005D000820F70E06F5F7F4F850D90E00E94BA1D23
:1005E000F8018381860FF701818302C0F701118230
:1005F000F8019081F7018181981708F49183939411
:100600000894E11CF11C0894C11CD11CFFE79F1643
:1006100009F055CF81E088268092E601DF91CF91E5
:100620001F910F91FF90EF90DF90CF90BF90AF9010
:100630009F908F907F906F905F9008954F925F9200
:100640006F927F928F929F92AF92BF92CF92DF92E2
:10065000EF92FF920F931F93CF93DF93EC01709073
:10066000E50181589F4F772031F4F82E092FCE01F4
:10067000DC2EE92E05C0D82EE92ECE01FC2E092F46
:1006800081E00E94A900182F85E00E94A900282F70
:100690002195211B59806A80552011F455245394CB
:1006A000662011F4662463948F2D902F8C018D2D7C
:1006B0009E2D5C01F22E9FE7492E420EFA94FE0118
:1006C000EF0DF11DF394B0818881482F50E0415027
:1006D00050408B2F90E08417950711F421E006C05D
:1006E000BB2319F020E0A1E002C020E0A0E0FE0161
:1006F000EF0DF11D8080882D90E08417950711F48F
:100700002F5F02C08110AF5FF394FE01EF0DF11D6A
:100710009080892D90E08417950711F42F5F02C017
:100720009110AF5F3C813250632F6F0DFE01E60FD9
:10073000F11DC0808C2D90E08417950711F42F5F78
:1007400002C0C110AF5F6F5FFE01E60FF11DD080E8
:100750008D2D90E08417950711F42F5F02C0D11002
:10076000AF5F6F5FFE01E60FF11DE0808E2D90E020
:100770008417950711F42F5F02C0E110AF5F360FA9
:10078000FE01E30FF11D7081872F90E0841795071C
:1007900011F42F5F02C07111AF5F3F5FFE01E30FE5
:1007A000F11D6081862F90E08417950711F42F5F6B
:1007B00002C06111AF5F3F5FFE01E30FF11D3081A9
:1007C000832F90E08417950711F42F5F02C0311139
:1007D000AF5FF5018081882369F4822F662D0E9426
:1007E000AE1D282F8A2F652D0E94AE1D280FF801FF
:1007F00020831BC090E084179507ACF4B90DB80DA9
:10080000BC0DBD0DBE0DB70FB60F6A2F70E06F5F48
:100810007F4F8B2F830F90E00E94BA1D8B81860F34
:10082000F801808302C0F80110824881242F30E053
:10083000F801808190E08217930714F041504083C3
:100840000F5F1F4F0894A11CB11CF41409F036CFA0
:1008500081E078267092E501DF91CF911F910F9191
:10086000FF90EF90DF90CF90BF90AF909F908F90D0
:100870007F906F905F904F9008955F926F927F92FC
:100880008F929F92AF92BF92CF92DF92EF92FF92A0
:100890000F931F93CF93DF93EC019090E401815865
:1008A0009F4F992031F4E82F592FCE014C2F392F2B
:1008B00005C0482F392FCE01EC2F592F28812295C2
:1008C0002695277089816AE00E94AE1D882E842FAC
:1008D000932F5C018E2F952F6C01EE24EA94622EEB
:1008E00077242EEF522E81E00E94A900182F85E078
:1008F0000E94A900810F9E2D981B392F3F5F432F27
:100900004F5F8250582F540F652F6F5F762F7F5F98
:10091000870F282F2F5FFE01E90FF11D9081917045
:10092000F90EFE01E30FF11D90819170F90EFE01A9
:10093000E40FF11D90819170F90EFE01E50FF11D9C
:1009400090819170F90EFE01E60FF11D908191707A
:10095000F90EFE01E70FF11D90819170F90EFE0175
:10096000E80FF11D80818170F80EFE01E20FF11D8C
:1009700080818170F80E2F5FFE01E20FF11D8081F2
:100980008170F80EF5018081882371F18E3F61F14D
:1009900080FD14C081E00E94A900082F85E00E941C
:1009A000A90010E0080F111DF89CC0011124801748
:1009B000910724F0F5018081816016C0F5018081E6
:1009C00080FF10C081E00E94A900082F85E00E94EE
:1009D000A90010E0080F111D601671061CF0F60149
:1009E000508204C0F5018081F6018083E39408946D
:1009F000A11CB11C0894C11CD11CFEE7EF1609F024
:100A000072CF81E098269092E401DF91CF911F91FF
:100A10000F91FF90EF90DF90CF90BF90AF909F909D
:100A20008F907F906F905F9008958F929F92AF927A
:100A3000BF92CF92DF92EF92FF920F931F93CF93CB
:100A4000DF936C018090E30181589F4F882021F44F
:100A5000982EA92E760104C07C01C6019C2CA92EDB
:100A600081E00E94A900182F85E00E94A900B82EFD
:100A7000B10E11F4BB24B3948701892D9A2DEC019A
:100A80009924D6018C91A92CA81AF701EA0DF11D21
:100A9000E0812E2F30E0D8018C9190E001966B2DF3
:100AA00070E00E94BA1D2817390709F4E883F6019F
:100AB000408141504A0DF701E40FF11DE0812E2FD6
:100AC00030E0D8018C9190E001966B2D70E00E948F
:100AD000BA1D2817390709F4E8834E5FF701E40FC0
:100AE000F11DE0812E2F30E0D8018C9190E001962D
:100AF0006B2D70E00E94BA1D2817390709F4E883AE
:100B0000F60180818150840FF701E80FF11DE0812B
:100B10002E2F30E0D8018C9190E001966B2D70E083
:100B20000E94BA1D2817390709F4E88393940F5FD0
:100B30001F4F2196BFE79B1609F0A3CF81E08826BF
:100B40008092E301DF91CF911F910F91FF90EF9081
:100B5000DF90CF90BF90AF909F908F9008958F922D
:100B60009F92AF92BF92CF92DF92EF92FF920F933C
:100B70001F93CF93DF93EC01B090E20181589F4F18
:100B8000BB2019F47C014E0102C04C017E0181E0C2
:100B90000E94A900182F85E00E94A900C82EC10E4E
:100BA000DD24D394DC188E01D7013C2D60E070E089
:100BB000EC2CE094AA24AA94962FF32EF394F80137
:100BC0002181217080818170280FFE01ED0DF11DC2
:100BD00080818170280FFE01E30FF11D80818170FB
:100BE000280F3150FE01E30FF11D80818170280F25
:100BF000FE01EF0DF11D80818170280F862F8C1969
:100C0000FE01E80FF11D80818170280F9150FE01D7
:100C1000E90FF11D9F5F80818170280F9E0DFE01FD
:100C2000E90FF11D80818170280FF401E60FF71F95
:100C3000E0818E2F90E0AC0141705070E0FF06C063
:100C4000223010F0243010F01C9207C0452B21F404
:100C5000233011F4AC9201C0EC936F5F7F4FD394BB
:100C60000F5F1F4F11966F37710511F03F2DA4CF05
:100C700081E0B826B092E201DF91CF911F910F91F0
:100C8000FF90EF90DF90CF90BF90AF909F908F90AC
:100C900008950F931F93CF93DF93EC0181E00E949F
:100CA000A900182F85E00E94A900180FA12FB0E01D
:100CB000110FAD014F5F5F4F60E070E00FEFFE017D
:100CC000E40FF11D8081813810F034E001C030E084
:100CD00041505040FE01E40FF11D4F5F5F4F808196
:100CE000813808F03260262F2150CD01820F911DEE
:100CF0002F5FFE01E80FF11D8081813808F031601F
:100D0000210F888190E002C0959587953A95E2F78A
:100D1000E22FF0E080FF04C0EC0FFD1F108203C043
:100D2000EC0FFD1F00836F5F7F4F4F5F5F4F6F3F83
:100D3000710529F6DF91CF911F910F9108952F92A0
:100D40003F924F925F926F927F928F929F92AF925B
:100D5000BF92CF92DF92EF92FF920F931F93DF9398
:100D6000CF93CDB7DEB728970FB6F894DEBF0FBE8E
:100D7000CDBF2090E101FC01E158FF4F222019F482
:100D80007F01FC0101C07C0110819180A280338031
:100D9000992011F499249394AA2011F4AA24A394DD
:100DA0002091D8012E83C22EDD24EC0DFD1D308153
:100DB0003D8382913196282F30E00181402F50E011
:100DC0005C834B837097B08070964B2C5524808841
:100DD000682C7724719760813296B0813F96778531
:100DE000A189E12FF0E0FA83E983AF01415050403F
:100DF0002417350719F481E090E00BC0882339F0FF
:100E000080E090E0E1E0F0E0F887EF8304C080E06C
:100E100090E018861F82EB81FC81E417F50711F43E
:100E2000019607C0002329F0EF81F8853196F887F5
:100E3000EF834416550611F4019607C0BB2029F034
:100E4000EF81F8853196F887EF836416750611F403
:100E5000019607C0882029F0EF81F8853196F88740
:100E6000EF83611711F4019607C0662329F0EF8123
:100E7000F8853196F887EF83B11711F4019607C012
:100E8000BB2329F0EF81F8853196F887EF8371173E
:100E900011F4019607C0772329F0EF81F885319688
:100EA000F887EF83A11711F4019607C0AA2329F050
:100EB000EF81F8853196F887EF83FD81FF2399F460
:100EC000F601EF77F070EE0DFF1D6A2D70E00E94C5
:100ED000BA1D262F8F819885692D70E00E94BA1D5A
:100EE000260F208331C0ED818E2F90E0EFE7AE2EEC
:100EF000B12CAC20BD208417950714F5AE0CBF1C97
:100F0000280F391F4B815C81240F351F240D351D9F
:100F1000260D371D260F311D2B0F311D270F311DBB
:100F20008F819885019698878F83C9018A0F911DBB
:100F30006F8178850E94BA1D360ED5013C9204C09F
:100F4000AE0CBF1CF5011082F601EF77F070EE0DCC
:100F5000FF1D808190E029813A818217930714F068
:100F6000115010838E818F5F8093D8018F3638F0B7
:100F700081E18093D80181E028262092E101289622
:100F80000FB6F894DEBF0FBECDBFCF91DF911F919A
:100F90000F91FF90EF90DF90CF90BF90AF909F9018
:100FA0008F907F906F905F904F903F902F9008951B
:100FB000CF93DF93EC0128818091E0018F5F8F70E8
:100FC0008093E00190E00196382F3295307FDC016C
:100FD0001197F4E0AA0FBB1FFA95E1F7AC0FBD1F04
:100FE00040E050E0622F70E03F5F2FEF12968C914F
:100FF0001297813810F094E001C090E011968C9126
:101000001197813808F092608C91813808F09160D6
:10101000FB0102C0F595E7959A95E2F7E0FF07C05E
:10102000832F840FFE01E80FF11D208306C0832F5C
:10103000840FFE01E80FF11D10824F5F5F4F119684
:101040004F30510599F6DF91CF9108958F929F927D
:10105000AF92BF92CF92DF92EF92FF920F931F93C6
:10106000CF93DF93DC01BC9011964C911197A09027
:10107000DF0181589F4FAA2021F4382F292F7D01AD
:1010800004C07C01CD013A2F292F832F922FEC0130
:10109000CC24DD24842E9924F701EC0DFD1DE08184
:1010A000E883EB1510F0EF5703C0EE2319F0EF5F64
:1010B000E88341C09C2D8C2D80518F77F701E80F7C
:1010C000F11DE081EE2311F0EB1500F1892F805F17
:1010D0008F77F701E80FF11DE081EE2311F0EB159A
:1010E000A8F0892F81508F77F701E80FF11DE0817B
:1010F000EE2311F0EB1550F09F5F9F77F701E90F9A
:10110000F11D80818823B9F08B15A8F481E00E943D
:10111000A900082F85E00E94A90010E09801280F7F
:10112000311DC9016AE070E00E94BA1D8815990559
:1011300014F481E088830894C11CD11C21963FE7F8
:10114000C316D10409F0A8CF81E0A826A092DF0140
:10115000DF91CF911F910F91FF90EF90DF90CF9093
:10116000BF90AF909F908F9008951F93CF93DF9380
:10117000AC011091DE0181589F4F112321F4782F8B
:10118000692F9A0104C09C01CA01742F692FD901EB
:101190005196F901872F962FEC0131E14FEF9C9189
:1011A0002289217080898170280F81818170280FA8
:1011B00050968C9150978170280F80818170280FF4
:1011C00082818170280F80A18170280F51968C91A7
:1011D00051978170280F233041F0892F90E0817062
:1011E0009070820F911D039711F4498B01C0198AE9
:1011F0003F5F1196319621963E3689F681E0182799
:101200001093DE01DF91CF911F9108958091E90144
:10121000882311F481E00CC0813019F41092E901A7
:1012200009C0823011F483E003C0833019F482E0F6
:101230008093E901862F0895862F089520910F034A
:10124000FC01E20FF11D808180930E0381E0809309
:101250004D03862F0895FC018091ED01882321F430
:1012600080910F038F5F11C0813021F480910F03B3
:1012700081500BC0823021F480910F03805F05C044
:10128000833029F480910F03805180930F03809164
:101290000F03E80FF11D80818823A1F48091E901FB
:1012A000882311F481E00CC0813019F41092E90117
:1012B00009C0823011F483E003C0833019F482E066
:1012C0008093E901862F0895FC018091ED01882328
:1012D00021F480910F03815011C0813021F480915D
:1012E0000F038F5F0BC0823021F480910F03805178
:1012F00005C0833029F480910F03805F80930F0332
:1013000080910F03E80FF11D80818823A1F4809163
:10131000E901882311F481E00CC0813019F41092A6
:10132000E90109C0823011F483E003C0833019F46D
:1013300082E08093E901862F08958091ED01882352
:1013400021F480910F03805F11C0813021F48091DE
:101350000F0380510BC0823021F480910F038F5F07
:1013600005C0833029F480910F03815080930F03CF
:10137000862F08958091ED01882321F480910F0339
:10138000805111C0813021F480910F03805F0BC028
:10139000823021F480910F03815005C0833029F4FD
:1013A00080910F038F5F80930F03862F0895DC01D8
:1013B0003091ED0140E014C0332311F42F5F0BC0D6
:1013C000313011F4215007C0323011F4205F03C0D6
:1013D000333019F4205120930F034F5F443141F013
:1013E00020910F03FD01E20FF11D8081882321F779
:1013F000862F089520910F03FC01E20FF11D8081DB
:101400008823A9F48091E901882311F481E008C0C0
:10141000813019F41092E9010BC0823021F483E08D
:101420008093E90105C0833019F482E0F9CF10827E
:10143000862F089520910F03FC01E20FF11DE0813A
:10144000EE2339F02150DC01A20FB11D8C918823CD
:10145000A9F08091E901882311F481E008C081306E
:1014600019F41092E9010BC0823021F483E08093DB
:10147000E90105C0833019F482E0F9CFEC93862F9F
:101480000895DC0180914C038C3079F4962F9F5F96
:10149000FD01E90FF11DA60FB11D8C9180836F3FF7
:1014A00039F48DE080934C0303C090912503960F8F
:1014B000892F0895EF92FF920F931F939C01062F9F
:1014C00080914C038D30B1F480912703860F790110
:1014D000E80EF11C81E00E94A900182F85E00E940F
:1014E000A900180FF7011083809127038F5F809365
:1014F000270303C080912503080F802F1F910F91B0
:10150000FF90EF900895262F80914C038F5F80937A
:101510004C036CE30E94AE1D992349F480910E03A5
:10152000809580930E0381E080934D0303C08091EA
:101530002503280F822F0895262F862F67E00E940B
:10154000AE1D9330F9F0943038F4913071F0809101
:101550000E03923098F407C09530F9F09530B8F04A
:10156000963061F521C0880F24C080910E03880F4A
:10157000880F80930E0390934D0320C0880F880F2F
:10158000880F17C080910E038295807F12C08091D2
:101590000E038295880F807E0CC080910E03829589
:1015A000880F880F807C05C080910E03879588275F
:1015B000879580930E0381E080934D0380912503EE
:1015C000820F0895FC01862F8150DF01A80FB11D05
:1015D0009C9190959C938E5FE80FF11D81509081B6
:1015E0009095908390912503890F08950F931F93F1
:1015F000CF93DF93EC01062F81E00E94A900182F02
:1016000085E00E94A900810F837021F480910F036F
:101610008F5F05C0813031F480910F03815080933A
:101620000F0309C090910F03823011F4905F01C045
:10163000905190930F0380910F03C80FD11D8881A3
:1016400080930E0381E080934D0380912503800FEA
:10165000DF91CF911F910F910895CF92DF92EF927A
:10166000FF920F931F937C01062F80910F038F5FD2
:101670006701C80ED11C81E00E94A900182F85E0E7
:101680000E94A900180FF601108380910F03E80E45
:10169000F11CF701808180930E0381E080934D035C
:1016A00080912503800F1F910F91FF90EF90DF90A5
:1016B000CF900895862F90912503890F0895FC01FE
:1016C000862F8F5FDF01A80FB11D8250E80FF11D3B
:1016D0008F5F9C912081920F90930E0391E09093E5
:1016E0004D0390912503890F0895DC01862FFD019C
:1016F000E60FF11D2081962F921BFD01E90FF11DD0
:101700009FEF9083260FA20FB11D9C938E5F0895CB
:10171000CF93DF93DC01EC01C60FD11D888187FDDB
:101720000BC06150FD01E60FF11D80836E5FA60FB7
:10173000B11D615088818C9380912503860FDF91C4
:10174000CF910895DC016F5FFC01E60FF11D10825F
:101750006250A60FB11D6F5F1C9280912503880F08
:10176000860F0895DC01462F2091260327FF0CC029
:10177000FC01E60FF11D808163E00E94AE1D9130F7
:1017800019F49093260325C022306CF0FD01E40F7C
:10179000F11D808163E00E94AE1D992321F48FEF3B
:1017A0008093260316C0A40FB11D8C9190E03327BF
:1017B00027FD3095BC01629FC001639F900D729F11
:1017C000900D1124A4E095958795AA95E1F7809353
:1017D000250380912503840F0895862F8D5F08953A
:1017E000DC01862F462F50E08E5FFD01E80FF11DD2
:1017F00090819A01290F311DBD01620F711D815029
:10180000FD01E80FF11D9081490F511DA40FB11D7D
:10181000FB0190812C91920F90838E5F0895DC01E3
:10182000862F462F50E08E5FFD01E80FF11D90815D
:101830009A01290F311DBD01620F711D8150FD01FB
:10184000E80FF11D9081490F511DA40FB11DFB013F
:1018500090812C91921B90838E5F08956F5FFC01A5
:10186000E60FF11D61508081860F0895DC016E5FE7
:10187000FC01E60FF11D62508081860FFD01E80F2B
:10188000F11D8081882329F46F5FA60FB11D8C9113
:101890000895862F8D5F08956F5FFC01E60FF11D9F
:1018A00080810895DC016E5FFC01E60FF11D62503E
:1018B0008081860FFD01E80FF11D808181508083BA
:1018C000882329F46F5FA60FB11D8C910895862F90
:1018D0008D5F0895862F8D5F0895DC01262F30E0FF
:1018E0006E5FFC01E60FF11D8081A901480F511DBB
:1018F000CA01AD01480F511D6150FD01E60FF11DF8
:1019000061508081280F311DA20FB11DFA01908115
:101910008C91981719F0862F8A5F0895862F8D5F16
:101920000895862F8D5F08956E5FFC01E60FF11D0F
:10193000808180930E0381E080934D03862F8F5F1B
:101940000895862F90912503890F0895FC01862F15
:101950008150DF01A80FB11D8E5FE80FF11D81508E
:101960009C912081920F90930E0391E090934D03F0
:1019700090912503890F08959C016F5FFC01E60F8C
:10198000F11D61508081181634F4F901E60FF11D44
:1019900080818F5F808380912503860F0895FF9259
:1019A0000F931F93CF93DF93EC01F62EF394FC017A
:1019B000EF0DF11DFA9480811816B4F481E00E94B5
:1019C000A900082F85E00E94A90010E09801280FC7
:1019D000311DC9016AE070E00E94BA1D049724F429
:1019E000CF0DD11D8FEF8883809125038F0DDF915F
:1019F000CF911F910F91FF900895DC016F5FFC0163
:101A0000E60FF11D6150808187FF04C0A60FB11D54
:101A100081E88C9380912503860F0895FF920F93A0
:101A20001F93CF93DF93EC01F62EF394FC01EF0D9F
:101A3000F11DFA9480818823F1F4FA94FE01EF0DF0
:101A4000F11DF39480811816B4F481E00E94A9007E
:101A5000082F85E00E94A90010E09801280F311D91
:101A6000C9016AE070E00E94BA1D049724F4CF0D0A
:101A7000D11D81E08883809125038F0DDF91CF9167
:101A80001F910F91FF900895862F90910F039F5FF4
:101A900090930F038F5F0895862F90910F039150BD
:101AA00090930F038F5F089520910F03FC01E20FC5
:101AB000F11D80818F5F8083862F8F5F0895209135
:101AC0000F03FC01E20FF11D808181508083862F7E
:101AD0008F5F0895862F8F5F089520910F03FC017B
:101AE000E20FF11D808180930E0381E080934D030E
:101AF000862F8F5F0895EF92FF920F931F93062F0B
:101B000020910F037C01E20EF11C81E00E94A900EC
:101B1000182F85E00E94A900180FF7011083802F6D
:101B20008F5F1F910F91FF90EF9008958091E801D2
:101B30008F5F8093E801843110F01092E801E0910A
:101B4000E801F0E0E85CFC4F6083862F8F5F08952A
:101B500020910F03FC01E20FF11D8081882351F0D9
:101B6000E091E801F0E0E85CFC4F8081282F30E054
:101B7000215030408091E80181508093E801822F0C
:101B80000895862F90910F039F5F90930F0390917C
:101B90002503890F08950F931F93162F81E00E944C
:101BA000A900082F85E00E94A900080F00930F03E9
:101BB00080912503810F1F910F9108951F93162F78
:101BC00081E00E94A90080930F0380912503810F7B
:101BD0001F91089581E00E94A90090912503890F2B
:101BE0000895EF92FF920F931F93062F20910F03FA
:101BF0007C01E20EF11C81E00E94A900182F85E013
:101C00000E94A900180FF701108380912503800F0F
:101C10001F910F91FF90EF900895862F90910F03E1
:101C2000915090930F0390912503890F089520916F
:101C30000F03FC01E20FF11D80818F5F8083809193
:101C40002503860F089520910F03FC01E20FF11D7B
:101C500080818150808380912503860F0895862F8F
:101C600090912503890F089520910F03FC01E20F45
:101C7000F11D808180930E0381E080934D0380915C
:101C80002503860F0895862F90912503890F0895C7
:101C9000862F90910F0390930E0391E090934D0344
:101CA00090912503890F0895FC01E60FF11D8081B5
:101CB0008F5F808380912503860F0895FC01E60FD6
:101CC000F11D80818150808380912503860F0895C6
:101CD000FC01E60FF11D8081880F80838091250330
:101CE000860F0895FC01E60FF11D8081880F880F93
:101CF000808380912503860F0895FC01E60FF11D76
:101D00008081880F880F880F808380912503860F3C
:101D10000895DC016F5FFC01E60FF11D61508081C9
:101D2000882329F480910F03A80FB11D6C91809135
:101D30002503860F08956F5FFC01E60FF11D6150CA
:101D4000808187FD02C0860F089580912503860F4C
:101D50000895DC01E62FF0E031978FEFEF3FF807B1
:101D600011F4EFEFF0E0EA0FFB1F808187FD09C05F
:101D70006F5FFD01E60FF11D6150A60FB11D8C9143
:101D8000808380912503860F0895FC01862F9F0193
:101D9000260F311D8F5FDF01A80FB11D81509C916F
:101DA000E90FF11D9081F901908390912503890F2E
:101DB0000895862F90912503890F08958091260319
:101DC00087FF02C081E001C08FEF809326038091DE
:101DD0002503860F0895862F90912503890F089576
:101DE000FF920F931F938C01F62E81E00E94A900B1
:101DF0000F0D111DF8018083809125038F0D1F9118
:101E00000F91FF900895EF92FF920F931F938C0113
:101E1000E62E81E00E94A900F82E85E00E94A9002C
:101E20000E0D111DF80EF801F082809125038E0D24
:101E30001F910F91FF90EF900895FC01E60FF11DA7
:101E4000808187BD80912503860F0895AF92BF9250
:101E5000CF92DF92EF92FF920F931F93CF93DF9376
:101E6000EC01CC2428C081E00E94A900182F85E055
:101E70000E94A900180F5E01A10EB11CF50100819E
:101E80000E94321E7C0181E00E94A900D82E85E0CC
:101E90000E94A900182F87E00E94A9001D0D180FAD
:101EA000C7016FEF70E00E94BA1D180F1F70012765
:101EB000F5010083C3948881C816A8F2DF91CF9101
:101EC0001F910F91FF90EF90DF90CF90BF90AF9058
:101ED0000895CF92DF92EF92FF920F931F93CF93CB
:101EE000DF936C01C0E0D0E00E94321E7C0181E0F3
:101EF0000E94A900082F85E00E94A900182F87E002
:101F00000E94A900F601EC0FFD1F100F180FC7016A
:101F10006FEF70E00E94BA1D180F1F70108321969A
:101F2000CF3FD10509F7DF91CF911F910F91FF901E
:101F3000EF90DF90CF9008952F923F924F925F9253
:101F40006F927F928F929F92AF92BF92CF92DF92C9
:101F5000EF92FF920F931F93DF93CF93CDB7DEB72E
:101F6000CC5DD0400FB6F894DEBF0FBECDBFDE0112
:101F70001196E0EDF1E088E001900D928150E1F7DB
:101F8000DE019596E0ECF1E080E101900D92815048
:101F9000E1F7DE01A955BF4FEEE8F1E082E30190E1
:101FA0000D928150E1F7DE011996E0E8F1E08EE054
:101FB00001900D928150E1F7DE01D596EEE6F1E059
:101FC00082E101900D928150E1F7DE015796E0E643
:101FD000F1E08EE001900D928150E1F7DE01A15910
:101FE000BF4FE8E4F1E088E101900D928150E1F704
:101FF000DE01A75ABF4FE2E3F1E086E101900D92C6
:102000008150E1F7DE01A95BBF4FE0E2F1E082E140
:1020100001900D928150E1F7DE01A957BF4FE0E03A
:10202000F1E080E201900D928150E1F701E0009330
:102030000F030E9412018FEE91E00E94690F00933E
:10204000260380E48AB9F89481E00E94A900082F51
:1020500085E00E94A900202F30E0280F311DC90122
:102060000E94371E83E884BD83E085BD8FE38093A3
:102070007E0081E080932503809326031092E9017E
:102080001092ED0110E0EE24FF24882499246624A8
:1020900077245E010894A11CB11C86E0482E07E855
:1020A000202E312C2C0E3D1E01C0102F80E00E94EE
:1020B000A900082F83E00E94A900C02EDD24C80ECD
:1020C000D11CB4E0CC0CDD1CBA95E1F782E00E9493
:1020D000A900082F84E00E94A900282F200FAFE05C
:1020E0005A2E522241F4E12FF0E0E151FE4F508090
:1020F0005294FFE05F220894E11CF11CC601E5E068
:1021000096958795EA95E1F7E816F90618F4012FF8
:102110000C94741DF22EF2947FE0F72237E0F31650
:1021200009F421C13F15D0F083E0F81609F4A9C0E5
:102130008F1550F091E0F91609F457C0E12FF0E047
:102140009F1508F482C031C0A5E0FA1609F4D7C083
:10215000E12FF0E0AF1508F4E6C0B1C0BBE0FB161C
:1021600011F40C942E19BF1558F0E9E0FE1609F48D
:10217000C2C4E12FF0E029E02F1508F4B4C52DC149
:102180003DE0F31611F40C94AA19F31610F40C9414
:1021900086198EE0F81611F40C94D4199FE0F91604
:1021A00011F00C946E1D0C94FC19E151FE4F8081CE
:1021B00069E10E94AE1DE92FF0E0EE0FFF1FA7EAD4
:1021C000B0E0AC0FBD1FEA0FFB1F0190F081E02DC6
:1021D0008FEE91E0612F0995082F8091260380935F
:1021E0002503EE24FF240C94741DE12FF0E0E1514F
:1021F000FE4F808167E00E94AE1DE92FF0E0EE0FF8
:10220000FF1FEA0DFB1D0084F185E02D8FEE91E0AC
:10221000612F0995082FE82FF0E0E151FE4FE08192
:10222000EF3F59F48091260387FF03C0F092260305
:1022300004C0882311F0E093260380912603809345
:102240002503EE24FF240C94741DE151FE4F808180
:1022500069E00E94AE1DE92FF0E0EE0FFF1FEA0DCE
:10226000FB1D04A8F5A9E02D8FEE91E0612F0995E3
:10227000082F8091260380932503EE24FF240C94DD
:10228000741DE12FF0E0E151FE4F808167E00E9474
:10229000AE1DE92FF0E0EE0FFF1FEA0DFB1D0688D3
:1022A000F789E02D8FEE91E0612F0995082F80913D
:1022B000260380932503EE24FF240C94741DE15122
:1022C000FE4F80816CE00E94AE1DE92FF0E0EE0F22
:1022D000FF1F2FE630E02C0F3D1FE20FF31F019090
:1022E000F081E02D8FEE91E0612F0995082F80910C
:1022F000260380932503EE24FF240C94741D81E0B3
:102300000E94A900082F85E00E94A900E12FF0E0BB
:10231000E151FE4F080F008300912603010FEE24C8
:10232000FF240C94741DE151FE4F808169E00E94EE
:10233000AE1DE92FF0E0EE0FFF1F87E490E08C0F59
:102340009D1FE80FF91F0190F081E02D8FEE91E0C5
:10235000612F0995082F8091260380932503EE2491
:10236000FF240C94741DE12FF0E0E151FE4F8081B9
:102370006BE00E94AE1DE92FF0E0EE0FFF1FA9E514
:10238000B0E0AC0FBD1FEA0FFB1F0190F081E02D04
:102390008FEE91E0612F0995082F8091E901882344
:1023A00029F40F5FEE24FF240C94741D813029F46E
:1023B0000150EE24FF240C94741D823029F4005F38
:1023C000EE24FF240C94741D833011F00C94721DC4
:1023D0000051EE24FF240C94741DE151FE4F8081C6
:1023E00069E10E94AE1DE92FF0E0E931F10510F03E
:1023F0000C946E1DEC5CFF4FEE0FFF1F0590F491E7
:10240000E02D099401E0EE24FF240C94741D012FAB
:102410000F5FEE24FF240C94741D8091EE011816BA
:1024200014F00C946E1D803110F090E00AC0E82F7B
:10243000FF27E7FDF095E85DFC4F90818150809388
:10244000EE018091EE01803110F0E0E00AC0E82F4B
:10245000FF27E7FDF095E85DFC4FE0818150809318
:10246000EE018091EE018E3070F48F5F8093EE016B
:10247000A82FBB27A7FDB095A85DBC4F1C929E1747
:1024800011F481E08C93012F0F5FEE24FF240C9454
:10249000741DE12FF0E0E151FE4F0081EE24FF2496
:1024A0000C94741D9091EE0197FD17C0903160F46B
:1024B000E92FFF27E7FDF095E85DFC4F8081915003
:1024C0009093EE01882349F4E12FF0E0E151FE4FB3
:1024D0000081EE24FF240C94741D012F0F5FEE2465
:1024E000FF240C94741D012F0F5FE12FF0E0E151E8
:1024F000FE4F2081E091EE01EE3010F00C94721D41
:10250000EF5FE093EE01FF27E7FDF095E85DFC4FFC
:102510002083EE24FF240C94741D012F0F5FE12F04
:10252000F0E0E151FE4FE081F0E0E151FE4F20810B
:10253000E091EE01EE3010F00C94721DEF5FE0932D
:10254000EE01FF27E7FDF095E85DFC4F2083EE24C8
:10255000FF240C94741D012F0F5FE12FF0E0E15177
:10256000FE4FE081F0E0E151FE4FE081F0E0E1510B
:10257000FE4F2081E091EE01EE3010F00C94721DC0
:10258000EF5FE093EE01FF27E7FDF095E85DFC4F7C
:102590002083EE24FF240C94741D8091EE0187FDAE
:1025A0001EC0E12FF0E0E151FE4F2081803110F09C
:1025B00090E00AC0E82FFF27E7FDF095E85DFC4FAB
:1025C000908181508093EE01012F0F5FE22FF0E0A8
:1025D000E151FE4F9083EE24FF240C94741D012FD3
:1025E0000F5FEE24FF240C94741D8091EE0187FD93
:1025F00022C0E12FF0E0E151FE4FE081F0E0E15137
:10260000FE4F2081803110F090E00AC0E82FFF27B4
:10261000E7FDF095E85DFC4F908181508093EE01DD
:10262000012F0F5FE22FF0E0E151FE4F9083EE2487
:10263000FF240C94741D012F0F5FEE24FF240C94D3
:10264000741D8091EE01181664F5803110F020E0C1
:102650000AC0E82FFF27E7FDF095E85DFC4F2081D9
:1026600081508093EE018091EE01803110F090E076
:102670000AC0E82FFF27E7FDF095E85DFC4F908149
:1026800081508093EE01E091EE01EE3050F4EF5F67
:10269000E093EE01FF27E7FDF095E85DFC4F920F18
:1026A0009083012F0F5FEE24FF240C94741D809102
:1026B000EE01181664F5803110F090E00AC0E82FA2
:1026C000FF27E7FDF095E85DFC4F908181508093F6
:1026D000EE018091EE01803110F020E00AC0E82F79
:1026E000FF27E7FDF095E85DFC4F20818150809346
:1026F000EE01E091EE01EE3050F4EF5FE093EE0179
:10270000FF27E7FDF095E85DFC4F921B9083012FBA
:102710000F5FEE24FF240C94741D8091EE0187FD61
:102720001CC0803110F090E00AC0E82FFF27E7FDC1
:10273000F095E85DFC4F908181508093EE01E0912F
:10274000EE01EE3050F4EF5FE093EE01FF27E7FD7E
:10275000F095E85DFC4F9F5F9083012F0F5FEE24A3
:10276000FF240C94741D8091EE0187FD1CC0803104
:1027700010F090E00AC0E82FFF27E7FDF095E85D34
:10278000FC4F908181508093EE01E091EE01EE309C
:1027900050F4EF5FE093EE01FF27E7FDF095E85D71
:1027A000FC4F91509083012F0F5FEE24FF240C9477
:1027B000741D8091EE01181664F5803110F020E050
:1027C0000AC0E82FFF27E7FDF095E85DFC4F208168
:1027D00081508093EE018091EE01803110F090E005
:1027E0000AC0E82FFF27E7FDF095E85DFC4F9081D8
:1027F00081508093EE01E091EE01EE3050F4EF5FF6
:10280000E093EE01FF27E7FDF095E85DFC4F922392
:102810009083012F0F5FEE24FF240C94741D809190
:10282000EE01181664F5803110F020E00AC0E82FA0
:10283000FF27E7FDF095E85DFC4F208181508093F4
:10284000EE018091EE01803110F090E00AC0E82F97
:10285000FF27E7FDF095E85DFC4F90818150809364
:10286000EE01E091EE01EE3050F4EF5FE093EE0107
:10287000FF27E7FDF095E85DFC4F922B9083012F39
:102880000F5FEE24FF240C94741D8091EE01181646
:1028900064F5803110F020E00AC0E82FFF27E7FD43
:1028A000F095E85DFC4F208181508093EE0180918E
:1028B000EE01803110F090E00AC0E82FFF27E7FD1D
:1028C000F095E85DFC4F908181508093EE01E0919E
:1028D000EE01EE3050F4EF5FE093EE01FF27E7FDED
:1028E000F095E85DFC4F92279083012F0F5FEE2457
:1028F000FF240C94741D8091EE0187FD1CC0803173
:1029000010F090E00AC0E82FFF27E7FDF095E85DA2
:10291000FC4F908181508093EE01E091EE01EE300A
:1029200050F4EF5FE093EE01FF27E7FDF095E85DDF
:10293000FC4F90959083012F0F5FEE24FF240C94A1
:10294000741D2091EE0112167CF5203110F080E00C
:102950000AC0E22FFF27E7FDF095E85DFC4F80817C
:1029600021502093EE01012F0F5FE12FF0E0E151A4
:10297000FE4F2081E091EE01EE3010F00C94721DBC
:10298000EF5FE093EE01FF27E7FDF095E85DFC4F78
:1029900090E0277002C0959587952A95E2F780838D
:1029A000EE24FF240C94741D012F0F5FEE24FF24EE
:1029B0000C94741D2091EE0112167CF5203110F05C
:1029C00080E00AC0E22FFF27E7FDF095E85DFC4FAD
:1029D000808121502093EE01012F0F5FE12FF0E065
:1029E000E151FE4F2081E091EE01EE3010F00C94A9
:1029F000721DEF5FE093EE01FF27E7FDF095E85DC4
:102A0000FC4F90E0277002C0880F991F2A95E2F7CB
:102A10008083EE24FF240C94741D012F0F5FEE249D
:102A2000FF240C94741D012F0F5FE12FF0E0E151A2
:102A3000FE4FE081F0E0E151FE4F80818F5F8083A7
:102A4000EE24FF240C94741D012F0F5FE12FF0E0A2
:102A5000E151FE4FE081F0E0E151FE4F8081815075
:102A60008083EE24FF240C94741D8091EE0187FD79
:102A700015C0803198F4E82FFF27E7FDF095E85D59
:102A8000FC4F90818E3050F4E82FEF5FE093EE0121
:102A9000FF27E7FDF095E85DFC4F9083012F0F5F66
:102AA000EE24FF240C94741D012F0F5FE02FF0E043
:102AB000E151FE4F808180930E0381E080934D03AE
:102AC000EE24FF240C94741D012F0F5FE12FF0E022
:102AD000E151FE4FE08081E00E94A900F82E85E0E0
:102AE0000E94A900EE2DF0E0E151FE4FF80EF082B9
:102AF000EE24FF24F9C781E00E94A900082F85E099
:102B00000E94A900080F0770F501E00FF11DF08089
:102B1000F092EB010F2D010FA02FB0E0A151BE4F9D
:102B20002C91822F6DE00E94AE1D953009F467C094
:102B3000963088F4923009F443C0933030F49923EE
:102B400001F1913009F0CEC731C09330F1F19430EA
:102B500009F0C8C744C0983009F470C0993038F4FF
:102B6000963009F457C0973009F0BCC75DC09B3060
:102B700009F48FC09C3009F4A5C09A3009F0B2C79F
:102B800071C0E02FF0E0E151FE4FE08081E00E9453
:102B9000A900F82E85E00E94A900EE2DF0E0E15199
:102BA000FE4FF80EF082EE24FF249EC7E02FF0E0E7
:102BB000E151FE4F80818F5F8083EE24FF2494C714
:102BC00021502C93EE24FF248FC7F00EEF2DF0E060
:102BD000E151FE4F8081080FEE24FF2485C7A02F0E
:102BE000B0E0A151BE4FF00EEF2DF0E0E151FE4FED
:102BF00080819C91890F8C93EE24FF2475C7F00E81
:102C0000EF2DF0E0E151FE4F8081281B2C93EE2444
:102C1000FF246AC7E02FF0E0E151FE4F8081880F6A
:102C20008083EE24FF2460C7E02FF0E0E151FE4FE7
:102C3000808186958083EE24FF2456C7E091EC01C5
:102C4000E00FF0E0E151FE4F8081882309F04AC790
:102C5000F00EEF2DF0E0E151FE4F8081080FEE24E1
:102C6000FF2442C7F00EEF2DF0E0E151FE4F8081CE
:102C7000E091EE01EE3008F035C7EF5FE093EE0132
:102C8000FF27E7FDF095E85DFC4F8083EE24FF24ED
:102C90002BC78091EE01803110F090E00AC0E82F40
:102CA000FF27E7FDF095E85DFC4F90818150809310
:102CB000EE01F00EEF2DF0E0E151FE4F9083EE2497
:102CC000FF2412C781E00E94A900E82E85E00E943F
:102CD000A900F00EEF2DF0E0E151FE4FE80EE0828A
:102CE000EE24FF2401C7E151FE4F2081822F6FE1C6
:102CF0000E94AE1DE92FF0E0EF31F10508F0A3C20C
:102D0000E35BFF4FEE0FFF1F0590F491E02D099458
:102D1000E091EE01EE3008F096C2EF5FE093EE0135
:102D2000FF27E7FDF095E85DFC4F822F6EE1DDC0E7
:102D30008091EE01803110F090E00AC0E82FFF276B
:102D4000E7FDF095E85DFC4F908181508093EE01A6
:102D50008091EE01803110F020E028C0E82FFF279D
:102D6000E7FDF095E85DFC4F20811DC08091EE01EC
:102D7000803110F020E00AC0E82FFF27E7FDF09532
:102D8000E85DFC4F208181508093EE018091EE013F
:102D9000803110F090E00AC0E82FFF27E7FDF095A2
:102DA000E85DFC4F908181508093EE01E091EE014F
:102DB000EE3008F048C2EF5FE093EE01FF27E7FD39
:102DC000F095E85DFC4F921BD8C18091EE018031F7
:102DD00010F020E00AC0E82FFF27E7FDF095E85D3E
:102DE000FC4F208181508093EE019091EE01903153
:102DF00010F080E00AC0E92FFF27E7FDF095E85DBD
:102E0000FC4F808191509093EE01E091EE01EE3005
:102E100008F019C2EF5FE093EE01FF27E7FDF095A0
:102E2000E85DFC4F829F802D1124DCC18091EE0172
:102E3000803108F008C2E82FFF27E7FDF095E85D34
:102E4000FC4F6081982F91509093EE01662309F416
:102E5000FAC1903110F080E00AC0E92FFF27E7FDAA
:102E6000F095E85DFC4F808191509093EE01E091E8
:102E7000EE01EE3008F0E7C1EF5FE093EE01FF27CF
:102E8000E7FDF095E85DFC4F0E94AE1DABC180915F
:102E9000EE01803108F0D7C1E82FFF27E7FDF0955C
:102EA000E85DFC4F6081982F91509093EE0166236E
:102EB00009F4C9C1903110F080E00AC0E92FFF2762
:102EC000E7FDF095E85DFC4F808191509093EE0115
:102ED000E091EE01EE3008F0B6C1EF5FE093EE0155
:102EE000FF27E7FDF095E85DFC4F0E94AE1D45C150
:102EF0009091EE01903168F4E92FFF27E7FDF095FE
:102F0000E85DFC4F8081292F21502093EE0188231A
:102F100079F4E091EE01EE3008F095C1EF5FE093B7
:102F2000EE01FF27E7FDF095E85DFC4F81E05AC117
:102F30002E3008F088C19093EE0136C08091EE01EA
:102F4000803110F0E0E00AC0E82FFF27E7FDF095A0
:102F5000E85DFC4FE08181508093EE019091EE019D
:102F60009031A8F4A92FBB27A7FDB095A85DBC4F51
:102F70008C91292F21502093EE01E81740F42E3038
:102F800008F061C19093EE0181E08C935CC1E09107
:102F9000EE01EE3008F057C1EF5FE093EE01FF273E
:102FA000E7FDF095E85DFC4F10824DC184E0809311
:102FB000EC0149C181E00E94A900082F85E00E9430
:102FC000A900E02FF0E0E80FF11DE370F070EE0FC4
:102FD000FF1FE093EC0137C19091EE01903160F456
:102FE000E92FFF27E7FDF095E85DFC4F80819150C8
:102FF0009093EE01882311F482E0D9CF4092EC0146
:1030000022C19091EE01903188F6E92FFF27E7FD6C
:10301000F095E85DFC4F808191509093EE018823FC
:1030200029F21092EC010FC18091EE01803110F075
:1030300090E00AC0E82FFF27E7FDF095E85DFC4F20
:10304000908181508093EE01E091EE01EE3048F4E2
:10305000EF5FE093EE01FF27E7FDF095E85DFC4FA1
:103060009083E091EE01EE3008F0EDC0EF5FE09369
:10307000EE01FF27E7FDF095E85DFC4F7EC08091F3
:10308000EE01803110F0E0E00AC0E82FFF27E7FDF5
:10309000F095E85DFC4FE08181508093EE01E09374
:1030A000EB018091EE01803110F0E0E00AC0E82FE2
:1030B000FF27E7FDF095E85DFC4FE08181508093AC
:1030C000EE01E093EC018091EB01E091EE01EE3036
:1030D00048F4EF5FE093EE01FF27E7FDF095E85D30
:1030E000FC4F80838091EC0171C08091EE018031B2
:1030F00008F0A9C081508093EE01A5C08091EC0139
:103100008770F501E80FF11D8081180F9CC0809138
:10311000EE01803110F030E00AC0E82FFF27E7FD14
:10312000F095E85DFC4F308181508093EE018091F5
:10313000EE01803110F020E00AC0E82FFF27E7FD04
:10314000F095E85DFC4F208181508093EE018091E5
:10315000EE01803110F090E00AC0E82FFF27E7FD74
:10316000F095E85DFC4F908181508093EE01239FA4
:10317000E02D1124F0E0E151FE4F908364C0809176
:10318000EE01803110F090E00AC0E82FFF27E7FD44
:10319000F095E85DFC4F908181508093EE01809125
:1031A000EE01803110F0E0E00AC0E82FFF27E7FDD4
:1031B000F095E85DFC4FE08181508093EE01E99F3E
:1031C000E02D1124F0E0E151FE4F8081E091EE010D
:1031D000EE30C8F5EF5FE093EE01FF27E7FDF095D5
:1031E000E85DFC4F80832FC08091EE01803110F0AC
:1031F000EE240AC0E82FFF27E7FDF095E85DFC4FBD
:10320000E08081508093EE018091EE01803110F0DA
:10321000FF240AC0E82FFF27E7FDF095E85DFC4F8B
:10322000F08081508093EE0181E00E94A900082F78
:1032300085E00E94A900FE9CE02D1124F0E0E15100
:10324000FE4F080F00838091EC018770F501E80FB5
:10325000F11D0081010FEE24FF2446C4A12FB0E030
:10326000FD01E151FE4FF0808F2D6EE00E94AE1DFA
:103270009C3018F49130A0F405C09C30F9F09D30DA
:10328000D1F520C081E00E94A900082F85E00E94AE
:10329000A900EF2DF0E0E151FE4F080F00832BC095
:1032A000E091EE01EE3038F5EF5FE093EE01FF279D
:1032B000E7FDF095E85DFC4FF0821DC08091EC01C8
:1032C0008E5F03C08091EC0182508093EC0180916D
:1032D000EE01803110F0E0E00AC0E82FFF27E7FDA3
:1032E000F095E85DFC4FE08181508093EE01A151A3
:1032F000BE4FEF25EC938091EC018770F501E80F4C
:10330000F11D0081010FEE24FF24EEC3E12FF0E058
:10331000E151FE4F90812091EB01892F820F808334
:103320008091EC01821B890F87708093EC01F5017D
:10333000E80FF11D0081010F9F70E5E2F0E0EC0F56
:10334000FD1FE90FF11D8081280F2093EB01EE2472
:10335000FF24CAC3A12FB0E0A151BE4F2C913091E0
:10336000EB01832F8770F501E80FF11D8081820F3B
:103370008C938091EF0190E0277002C0959587951E
:103380002A95E2F780FD03C0832F815002C0832F6E
:103390008F5F8093EB018770F501E80FF11D0081CD
:1033A000010FEE24FF24A0C38091EE018F3074F052
:1033B0008F3011F090E005C0909137038EE080933C
:1033C000EE01E12FF0E0E151FE4F10C0E12FF0E0FF
:1033D000E151FE4F90818E3050F4E82FEF5FE09383
:1033E000EE01FF27E7FDF095E85DFC4F9083012F8C
:1033F0000F5FEE24FF2478C3E12FF0E0E151FE4F90
:103400002081822F6EE10E94AE1DE92FF0E0EE31A7
:10341000F10508F063C3E459FF4FEE0FFF1F05905D
:10342000F491E02D09941E5FE12FF0E01250E1517C
:10343000FE4FA081A10FB0E0A151BE4F1F5FE12F51
:10344000F0E0E151FE4F80818C93012F0E5FEE245E
:10345000FF244AC31E5FE12FF0E01250E151FE4FFE
:10346000A081A10FB0E0A151BE4F1F5FE12FF0E09E
:10347000E151FE4FE081F0E0E151FE4F80818C93FD
:10348000012F0E5FEE24FF242FC31E5FE12FF0E01B
:10349000E151FE4FE081F0E0E151FE4FA081B0E04C
:1034A000A151BE4F1150E12FF0E0E151FE4F80815C
:1034B0008C93012F0E5FEE24FF2416C31E5FE12FB5
:1034C000F0E0E151FE4FE081F0E0E151FE4FA081DC
:1034D000B0E0A151BE4F1150E12FF0E0E151FE4F9D
:1034E000E081F0E0E151FE4F80818C93012F0E5F6F
:1034F000EE24FF24F9C21E5FE12FF0E01250E151EB
:10350000FE4FE081E10FF0E0E151FE4F1F5FA12F80
:10351000B0E0A151BE4F80819C91890F8083012F23
:103520000E5FEE24FF24E0C21E5FE12FF0E0125098
:10353000E151FE4FA081A10FB0E0A151BE4F1F5F2E
:10354000E12FF0E0E151FE4FE081F0E0E151FE4F6C
:103550008081820F8C93012F0E5FEE24FF24C4C262
:103560001E5FE12FF0E0E151FE4FE081F0E0E1511C
:10357000FE4F9081A92FB0E0A151BE4F1150E12F15
:10358000F0E0E151FE4F8081980F9C93012F0E5F78
:10359000EE24FF24A9C21E5FE12FF0E0E151FE4FAF
:1035A000E081F0E0E151FE4F9081A92FB0E0A15100
:1035B000BE4F1150E12FF0E0E151FE4FE081F0E00D
:1035C000E151FE4F8081890F8C93012F0E5FEE2415
:1035D000FF248AC21E5FE12FF0E01250E151FE4F3E
:1035E000A081A10FB0E0A151BE4F1F5FE12FF0E01D
:1035F000E151FE4F80819C91891B8C93012F0E5FBE
:10360000EE24FF2471C21E5FE12FF0E01250E15161
:10361000FE4FA081A10FB0E0A151BE4F1F5FE12F6F
:10362000F0E0E151FE4FE0818C91E81BF0E0E151C8
:10363000FE4F80818C93012F0E5FEE24FF2454C235
:103640001E5FE12FF0E0E151FE4FE081F0E0E1513B
:10365000FE4F9081A92FB0E0A151BE4F1150E12F34
:10366000F0E0E151FE4F8081891B8C93012F0E5FAA
:10367000EE24FF2439C21E5FE12FF0E0E151FE4F3E
:10368000E081F0E0E151FE4F9081A92FB0E0A1511F
:10369000BE4F1150E12FF0E0E151FE4FE081F0E02C
:1036A000E151FE4F8081891B8C93012F0E5FEE2428
:1036B000FF241AC21F5FE12FF0E01150E151FE4FCD
:1036C0000081010FEE24FF240FC21F5FE12FF0E005
:1036D000E151FE4FE081F0E0E151FE4F0081EE2428
:1036E000FF2402C21E5FE12FF0E01250E151FE4FB5
:1036F000E081E10FF0E0E151FE4F8081882359F431
:103700001F5FE12FF0E01150E151FE4F0081010FEA
:10371000EE24FF24E9C1012F0D5FEE24FF24E4C154
:103720001E5FE12FF0E01250E151FE4FE081E10F0A
:10373000F0E0E151FE4F8081882369F41F5FE12FA3
:10374000F0E0E151FE4FE081F0E0E151FE4F0081F9
:10375000EE24FF24C9C1012F0D5FEE24FF24C4C154
:103760001E5FE12FF0E01250E151FE4FE081F0E0EA
:10377000E151FE4FE081F0E0E151FE4F808188236E
:1037800059F41F5FE12FF0E01150E151FE4F00812D
:10379000010FEE24FF24A8C1012F0D5FEE24FF24AA
:1037A000A3C11E5FE12FF0E01250E151FE4FE08116
:1037B000F0E0E151FE4FE081F0E0E151FE4F808109
:1037C000882369F41F5FE12FF0E0E151FE4FE081B3
:1037D000F0E0E151FE4F0081EE24FF2485C1012F6E
:1037E0000D5FEE24FF2480C11E5FE12FF0E0125038
:1037F000E151FE4FE081E10FF0E0E151FE4F8081A9
:10380000882359F01F5FE12FF0E01150E151FE4F86
:103810000081010FEE24FF2467C1012F0D5FEE240C
:10382000FF2462C11E5FE12FF0E01250E151FE4F14
:10383000E081E10FF0E0E151FE4F8081882369F0E3
:103840001F5FE12FF0E0E151FE4FE081F0E0E15138
:10385000FE4F0081EE24FF2447C1012F0D5FEE24AF
:10386000FF2442C11E5FE12FF0E01250E151FE4FF4
:10387000E081F0E0E151FE4FE081F0E0E151FE4FE8
:103880008081882359F01F5FE12FF0E01150E15152
:10389000FE4F0081010FEE24FF2426C1012F0D5F92
:1038A000EE24FF2421C11E5FE12FF0E01250E15110
:1038B000FE4FE081F0E0E151FE4FE081F0E0E151A8
:1038C000FE4F8081882369F01F5FE12FF0E0E15116
:1038D000FE4FE081F0E0E151FE4F0081EE24FF2435
:1038E00003C1012F0D5FEE24FF24FEC01E5FA12F38
:1038F000B0E01250A151BE4FEC91E10FF0E0E15168
:10390000FE4F808181508083EC91E10FF0E0E15126
:10391000FE4F8081882359F41F5FE12FF0E01150A2
:10392000E151FE4F0081010FEE24FF24DDC0012F85
:103930000D5FEE24FF24D8C01E5FA12FB0E012500F
:10394000A151BE4FEC91E10FF0E0E151FE4F8081BB
:1039500081508083EC91E10FF0E0E151FE4F8081D6
:10396000882369F41F5FE12FF0E0E151FE4FE08111
:10397000F0E0E151FE4F0081EE24FF24B5C0012F9D
:103980000D5FEE24FF24B0C01E5F212F30E01250E7
:1039900021513E4FF901A081EA2FF0E0E151FE4FA5
:1039A000E081F0E0E151FE4FA150B0E0A151BE4FE7
:1039B0008C918083D901EC91F0E0E151FE4FE081E0
:1039C000F0E0E151FE4F8081882359F41F5FE12F21
:1039D000F0E01150E151FE4F0081010FEE24FF2471
:1039E00083C0012F0D5FEE24FF247EC01E5F212FB8
:1039F00030E0125021513E4FF901A081EA2FF0E052
:103A0000E151FE4FE081F0E0E151FE4FA150B0E006
:103A1000A151BE4F8C918083D901EC91F0E0E1512E
:103A2000FE4FE081F0E0E151FE4F8081882389F470
:103A30001F5FE12FF0E0E151FE4FE081F0E0E15146
:103A4000FE4FE081F0E0E151FE4F0081EE24FF24C3
:103A50004BC0012F0D5FEE24FF2446C0012F0D5FE8
:103A6000EE24FF2441C0012F0D5FEE24FF243CC053
:103A70001E5FE12FF0E01250E151FE4FF080F10E99
:103A800081E00E94A900082F85E00E94A900EF2D87
:103A9000F0E0E151FE4F080F0083012F0D5FEE248F
:103AA000FF2422C01E5FE12FF0E0E151FE4FE081D4
:103AB000F0E0E151FE4FF08081E00E94A900082F64
:103AC00085E00E94A900EF2DF0E0E151FE4F080FC4
:103AD0000083012F0F5FEE24FF2406C0012FEE2488
:103AE000FF2402C0EE24FF240894811C911C8C1436
:103AF0009D04C0F0E091EA01EF5FE093EA0180915C
:103B00004D03813019F410924D0306C0F0E0E151ED
:103B1000FE4F808180930E0380910E03809587BDB8
:103B2000882499240894611C711CD694C794D69457
:103B3000C7946C147D0410F40C945510E52DF0E03E
:103B4000EE0FFF1FE20DF31D0190F081E02D8FEECF
:103B500091E00995662477240C945510991B79E01F
:103B600004C0991F961708F0961B881F7A95C9F70D
:103B70008095089597FB092E07260AD077FD04D07B
:103B80000CD006D000201AF4709561957F4F0895EF
:103B9000F6F7909581959F4F0895AA1BBB1B51E1A5
:103BA00007C0AA1FBB1FA617B70710F0A61BB70BAD
:103BB000881F991F5A95A9F780959095BC01CD0152
:103BC0000895A0E0B0E0E7EEFDE10C94841EEC0166
:103BD000A880B980CA80DB80A114B104C104D104DB
:103BE00041F484E2A82E89EDB82E8BE5C82E87E03B
:103BF000D82EC601B5012DE133EF41E050E00E941F
:103C0000611E27EA31E440E050E00E94421E7B0141
:103C10008C01C601B5012DE133EF41E050E00E9477
:103C2000611ECA01B9012CEE34EF4FEF5FEF0E9425
:103C3000421E6E0D7F1D801F911F97FF04C06150B3
:103C4000704080409048688379838A839B839B017E
:103C50003F77C901CDB7DEB7EAE00C94A01E0E9401
:103C6000E11D089589ED91E00E94E11D0895A0E015
:103C7000B0E08093D9019093DA01A093DB01B09377
:103C8000DC010895629FD001739FF001829FE00DD7
:103C9000F11D649FE00DF11D929FF00D839FF00DCB
:103CA000749FF00D659FF00D9927729FB00DE11D77
:103CB000F91F639FB00DE11DF91FBD01CF01112454
:103CC000089597FB092E05260ED057FD04D04BD042
:103CD0000AD0001C38F450954095309521953F4FFF
:103CE0004F4F5F4F0895F6F79095809570956195C9
:103CF0007F4F8F4F9F4F08952F923F924F925F9229
:103D00006F927F928F929F92AF92BF92CF92DF92EB
:103D1000EF92FF920F931F93CF93DF93CDB7DEB750
:103D2000CA1BDB0B0FB6F894DEBF0FBECDBF0994E4
:103D30002A88398848885F846E847D848C849B843B
:103D4000AA84B984C884DF80EE80FD800C811B8149
:103D5000AA81B981CE0FD11D0FB6F894DEBF0FBE78
:103D6000CDBFED010895A1E21A2EAA1BBB1BFD01D8
:103D70000DC0AA1FBB1FEE1FFF1FA217B307E4074A
:103D8000F50720F0A21BB30BE40BF50B661F771FA2
:103D9000881F991F1A9469F7609570958095909582
:0E3DA0009B01AC01BD01CF010895F894FFCF47
:103DAE00260F26089F06D807B50828014701590196
:103DBE00D8011E033D0415053002AF054906260F36
:103DCE00410A5A0A830A9C0AE20AF60A2D0B030FCD
:103DDE001D0F06091E092B0964099D09BA09D70989
:103DEE00FA091A0A030F1D0F030FED0BF00B0F0C40
:103DFE002E0C360C4C0C520C6A0C6D0C940C1D0FC8
:103E0E00030FA60CBC0CCF0CFD0C0E0D1D0F440D9C
:103E1E004C0D540D5F0D6D0D7B0D960DA80D1D0FE8
:103E2E00030F5F0B750B880BA20BB20B1D0F480E09
:103E3E00C10D0D0E170E230ECB0DDE0DEA0DF10D7D
:103E4E00340E540E5E0E680E720E7D0E890E9B0E93
:103E5E00A90EC50EF00E030FD90EDE0EEB0E1D0FC2
:103E6E0001040207030D04070809030C060B050DD8
:0E3E7E00F0F1010F1011FFEF11010000000024
:00000001FF
