:100000000C947F000C949C000C949C000C949C001D
:100010000C949C000C949C000C949C000C949C00F0
:100020000C949C000C949C000C949C000C949C00E0
:100030000C949C000C949C000C949C000C949C00D0
:100040000C949C000C949C000C949C000C949C00C0
:100050000C949C000C949C000C949C000C949C00B0
:100060000C949C000C949C00CC1936124A1251122C
:100070006512711281129512AE12CB12DB12EC12C4
:10008000F9120613161326133613431361137D1347
:100090008B139913A513B213BA14C114C814D11435
:1000A000E514FA14FF141F1521152B1527150A1531
:1000B0001B1523152E1532153F15421542154915EE
:1000C000551559156915BA16D316EB1607171E17CD
:1000D0003817521770178717A217BC17DA17E417CB
:1000E000F2170D182C184A186C188718A618C4187F
:1000F000E618091930195E1994199819AF191124C5
:100100001FBECFEFD4E0DEBFCDBF11E0A0E0B1E075
:10011000EEE3F6E302C005900D92AE3DB107D9F7CC
:1001200013E0AEEDB1E001C01D92A035B107E1F7DB
:100130000E94ED0F0C941D1B0C9400002F923F9217
:100140004F925F926F927F928F929F92AF92BF92E7
:10015000CF92DF92EF92FF920F931F93CF93DF9393
:10016000CDB7DEB728970FB6F894DEBF0FBECDBF70
:100170002091E4012983FC01E158FF4F211104C0C3
:10018000FE83ED83FC0102C09E838D831081D180AC
:10019000628133813C83D11002C0DD24D39461118C
:1001A00001C061E000910001E00FF11D9080DF01CE
:1001B00011978C91482F50E058874F838180482CAD
:1001C000512C9F0120513109D9016C90262C312CE2
:1001D0007088E72CF12C9F0121513109D901AC9095
:1001E0009F012F503109D901BC90C7847189E12F3B
:1001F000F0E0FB83EA83AF01415051092F8138853C
:100200002417350729F0811108C020E030E007C02D
:1002100020E030E081E090E004C021E030E080E0C8
:1002200090E04416550611F4019604C0882011F0A0
:100230002F5F3F4F2416350611F4019604C0662047
:1002400011F02F5F3F4FE416F50611F4019604C03C
:10025000772011F02F5F3F4FA11202C0019604C01A
:10026000AA2011F02F5F3F4FB11202C0019604C0C7
:10027000BB2011F02F5F3F4FC11202C0019604C096
:10028000CC2011F02F5F3F4F711302C0019604C0C4
:10029000772311F02F5F3F4FE02FEF77911011C0C0
:1002A0004D815E814E0F511DFA0170E00E94311A9E
:1002B000462F6D2DC90170E00E94311A460F408310
:1002C0002BC0892D90E08417950704F54D815E8140
:1002D0004E0F511DFA01AF81B8858A0F9B1F840D07
:1002E000951D820D931D8E0D9F1D8A0D911D8B0DE9
:1002F000911D8C0D911D870F911DB9016F5F7F4F6F
:100300000E94311AEC80E60EE08206C02D813E810B
:100310002E0F311DF9011082802F8F77AD81BE81A4
:10032000A80FB11D8C9190E04A815B8184179507DD
:1003300014F011501C930F5F0F3618F40093000156
:1003400008C081E18093000181E0E9818E278093DC
:10035000E40128960FB6F894DEBF0FBECDBFDF9143
:10036000CF911F910F91FF90EF90DF90CF90BF90B2
:10037000AF909F908F907F906F905F904F903F9045
:100380002F900895CF93DF93DC012C91E091E5014C
:10039000EF5FEF70E093E5017E2F7295707F7F5FD6
:1003A000F0E0AF014F5F5F4FC42FC295C07F34E0D4
:1003B000EE0FFF1F3A95E1F7E80FF91F61E030E01B
:1003C000DFEF472F460FDC01A40FB11D4C914138E0
:1003D00010F450E001C054E0DF014181413808F0E1
:1003E000526031964C91413808F05160D90102C0F9
:1003F000B595A7955A95E2F7AD01562F5C0FDC0134
:10040000A50FB11D40FF02C0DC9301C01C926F5FBD
:100410006031B9F6DF91CF9108952F923F924F92BC
:100420005F926F927F928F929F92AF92BF92CF9284
:10043000DF92EF92FF920F931F93CF93DF93CDB78D
:10044000DEB72B970FB6F894DEBF0FBECDBF40903E
:10045000E701DC01A158BF4F411003C06D01FC0151
:1004600002C0FD016C011F0181E1280E311CDF017A
:100470005096BD83AC83CF0142969F838E83AF019C
:100480004F5F5F4FBF016F5D7F4FDF018F010E5FD9
:100490001F4F7F0190E2E90EF11CB296FA83E983C7
:1004A000C60141969B878A87E1E1CE2EF1019191A9
:1004B0001F01EC81FD815190FD83EC83EE81FF8172
:1004C000D190FF83EE83FA016190AF01FB0171903F
:1004D000BF018D90F80191908F01F701A1907F01EC
:1004E000E981FA81B190FA83E983F1E0DF225F22AA
:1004F000D50C6F22D60C7F22D70C8F22D80C9F22CE
:10050000D90CAF22DA0CBF22DB0C83E0D81641F005
:10051000292F217030E02D0D311D2330310529F4B4
:100520008FEFEA85FB85808303C0EA85FB85108217
:10053000C3948A859B8501969B878A879EE6C9120C
:10054000B5CF81E084258093E7012B960FB6F89410
:10055000DEBF0FBECDBFDF91CF911F910F91FF90F6
:10056000EF90DF90CF90BF90AF909F908F907F9053
:100570006F905F904F903F902F900895862F9091AD
:10058000E801911102C091E00CC0913019F4109271
:10059000E8010895923011F493E003C0933019F408
:1005A00092E09093E80108952091FB02FC01E20F94
:1005B000F11D80818093FA0281E080934F03862FA2
:1005C00008953091ED0144E113C0311102C02F5F55
:1005D0000BC0313011F4215007C0323011F4205FCC
:1005E00003C0333019F420512093FB02415041F0F5
:1005F0002091FB02FC01E20FF11D50815111E5CF6A
:10060000862F08953091FB02FC01E30FF11D20813C
:10061000222339F03150FC01E30FF11D8081882342
:10062000A9F09091E801911102C081E008C09130D9
:1006300019F41092E8010BC0923021F483E080930A
:10064000E80105C0933019F482E0F9CF2083862FAA
:100650000895362F862F67E00E94251A9330E9F01F
:100660002091FA02943028F4913061F0923031F404
:1006700010C09530E9F0C0F09630F9F09091FA0290
:10068000990F0FC0220F220F2093FA0290934F036D
:100690001CC0220F220F220F13C09091FA029295D4
:1006A000907F9093FA020EC02295220F207E08C000
:1006B0002295220F220F207C03C027952227279501
:1006C0002093FA0281E080934F038091FC02830F14
:1006D0000895262F2150FC01E20FF11D2081209565
:1006E0002083262F2F5FFC01E20FF11D8081809572
:1006F00080838091FC02860F0895262F2F5FDC01F6
:10070000A20FB11D2250FC01E20FF11D8C919081CE
:10071000890F8093FA0281E080934F038091FC025D
:10072000860F0895FC01E60FF11D3081262F231B53
:10073000FC01E20FF11D2FEF2083360FFC01E30FC8
:10074000F11D2083862F8E5F0895FC01E60FF11DB9
:10075000208127FD0CC0362F3150DC01A30FB11DC5
:100760002C9320813E5FFC01E30FF11D20838091DB
:10077000FC02860F0895262F2F5FFC01E20FF11D6A
:1007800010822250FC01E20FF11D10828091FC02C8
:10079000880F860F08951F939C01A62F10913D038B
:1007A000462F50E017FF0CC0FC01E40FF51F8081BD
:1007B00063E00E94251A913091F490933D031DC08F
:1007C00012306CF0FC01E40FF51F808163E00E94A1
:1007D000251A911104C08FEF80933D030EC0F901DB
:1007E000EA0FF11D2081120390011124F4E03595E8
:1007F0002795FA95E1F72093FC028091FC028A0F7D
:100800001F910895862F8D5F0895262F30E0462F83
:100810004E5FFC01E40FF11D4081F901E40FF11D71
:10082000AF01FC01E40FF11D462F4F5FDC01A40F67
:10083000B11D4C91240F311DDC01A20FB11D80812F
:100840009C91890F8083862F8D5F0895262F30E03D
:10085000462F4E5FFC01E40FF11D4081F901E40FCA
:10086000F11DAF01FC01E40FF11D462F4F5FDC01CC
:10087000A40FB11D4C91240F311DDC01A20FB11D3D
:1008800080819C91891B8083862F8D5F0895262F00
:100890002F5FFC01E20FF11D8081860F0895262F46
:1008A0002E5FFC01E20FF11D2081260FFC01E20FFB
:1008B000F11D2081211106C06F5FFC01E60FF11DC3
:1008C00080810895862F8D5F08956F5F860F911D3B
:1008D000FC0180810895262F2E5FFC01E20FF11D9F
:1008E0002081260FFC01E20FF11D20812150208381
:1008F000211106C06F5FFC01E60FF11D8081089594
:10090000862F8D5F0895862F8D5F0895262F30E006
:10091000462F4E5FFC01E40FF11D4081F901E40F09
:10092000F11DDC01AE0FB11D462F4F5FFC01E40F3E
:10093000F11D4081240F311DFC01E20FF11D9C913E
:100940008081981719F0862F8A5F0895862F8D5F12
:100950000895262F2E5FFC01E20FF11D8081809308
:10096000FA0281E080934F03862F8D5F0895262F32
:100970002150DC01A20FB11D2E5FFC01E20FF11D21
:100980008C919081890F8093FA0281E080934F03CC
:100990008091FC02860F0895262F2F5FFC01E20F45
:1009A000F11D2081121634F4FC01E60FF11D808147
:1009B0008F5F80838091FC02860F0895262F2F5F22
:1009C000FC01E20FF11D208127FF05C0FC01E60FAD
:1009D000F11D81E880838091FC02860F089590913B
:1009E000FB029F5F9093FB02862F8F5F089590918B
:1009F000FB0291509093FB02862F8F5F0895209108
:100A0000FB02FC01E20FF11D90819F5F9083862F16
:100A10008F5F08952091FB02FC01E20FF11D908190
:100A200091509083862F8F5F08952091FB02FC01E7
:100A3000E20FF11D80818093FA0281E080934F03E1
:100A4000862F8F5F08959C01462F8091FB02F9014C
:100A5000E80FF11D808181111CC0A62FA15851E023
:100A6000B9E04F5F81E04F3F08F480E0840FF90167
:100A7000E80FF11D80816B2F0E94251A963011F42A
:100A80005F5F03C0973009F45150552311F04A13AA
:100A9000E8CF842F8F5F08959C01462F8091FB0241
:100AA000F901E80FF11D81E08083A62FAF5750E0D8
:100AB000B9E001C0482F81E04F3F08F480E0840F87
:100AC000F901E80FF11D80816B2F0E94251A9630E5
:100AD00011F45F5F03C0973009F45150842F8150A7
:100AE000552311F08A13E6CF842F08959091FB02CD
:100AF0009F5F9093FB028091FC02860F0895909176
:100B0000FB0291509093FB028091FC02860F0895A6
:100B10002091FB02FC01E20FF11D90819F5F908309
:100B20008091FC02860F08952091FB02FC01E20FE8
:100B3000F11D9081915090838091FC02860F089561
:100B40002091FB02FC01E20FF11D80818093FA02EB
:100B500081E080934F038091FC02860F089580917D
:100B6000FB028093FA0281E080934F038091FC02A4
:100B7000860F0895FC01E60FF11D90819F5F908321
:100B80008091FC02860F0895FC01E60FF11D908113
:100B9000915090838091FC02860F0895FC01E60F2E
:100BA000F11D9081990F90838091FC02860F08952A
:100BB000FC01E60FF11D9081990F990F90838091B0
:100BC000FC02860F0895FC01E60FF11D9081990F3C
:100BD000990F990F90838091FC02860F0895262F1C
:100BE0002F5FFC01E20FF11D2081211106C0209131
:100BF000FB02FC01E20FF11D60818091FC02860F77
:100C00000895262F2F5F820F911DFC01808187FFA1
:100C100002C08091FC02860F0895262F30E02150FB
:100C20003109462F4F5F2F3F5FEF350711F42FEF4C
:100C300030E0FC01E20FF31F208127FD08C0FC011A
:100C4000E60FF11D2081FC01E40FF11D208380914E
:100C5000FC02860F0895262F2F5FFC01E20FF11D85
:100C60002081FC01E20FF11D2081FC01E60FF11D46
:100C700020838091FC02860F08958091FC02860FEC
:100C8000089580913D0387FF02C081E001C08FEF8E
:100C900080933D038091FC02860F08958091FC02B1
:100CA000860F0895FC01E60FF11D808187BD8091BC
:100CB000FC02860F08953091ED012091FB02311165
:100CC00002C02F5F0BC0313011F4215007C0323009
:100CD00011F4205F03C0333019F420512093FB023C
:100CE0002091FB02FC01E20FF11D8081811114C0F3
:100CF0009091E801911102C081E00CC0913019F48B
:100D00001092E80109C0923011F483E003C09330DF
:100D100019F482E08093E801862F08953091ED0167
:100D20002091FB02311102C021500BC0313011F46F
:100D30002F5F07C0323011F4205103C0333019F453
:100D4000205F2093FB022091FB02FC01E20FF11DCA
:100D50008081811114C09091E801911102C081E05D
:100D60000CC0913019F41092E80109C0923011F4CE
:100D700083E003C0933019F482E08093E801862F6A
:100D80000895862F9091ED01911104C09091FB027E
:100D9000905F11C0913021F49091FB0290510BC0F3
:100DA000923021F49091FB029F5F05C0933029F4AB
:100DB0009091FB0291509093FB020895862F9091A1
:100DC000ED01911104C09091FB02905111C091303E
:100DD00021F49091FB02905F0BC0923021F490912E
:100DE000FB02915005C0933029F49091FB029F5F64
:100DF0009093FB0208952091FB02FC01E20FF11D8C
:100E00008081811115C09091E801911102C081E0AB
:100E100008C0913019F41092E8010BC0923021F40F
:100E200083E08093E80105C0933019F482E0F9CFA4
:100E30001082862F08952091EC012C3081F4262F0A
:100E40002F5FFC01E60FF11D3081FC01E20FF11D67
:100E500030836F3F39F48DE08093EC0103C0209123
:100E6000FC02260F822F0895262F8091EC018F5FC0
:100E70008093EC016CE30E94251A911109C08091C6
:100E8000FA0280958093FA0281E080934F0303C0B9
:100E90008091FC02280F822F089590917C00987F0A
:100EA00090937C0090917C008770892B80937C00CC
:100EB00080917A00806480937A0080917A0084FF28
:100EC000FCCF809179000895EF92FF921F93CF930A
:100ED000DF931F92CDB7DEB77C01E60EF11C81E0F7
:100EE00069830E944D07182F85E00E944D07810FEE
:100EF000F70180838091FC026981860F0F90DF915A
:100F0000CF911F91FF90EF9008950F931F93CF9370
:100F1000DF931F92CDB7DEB78C01060F111D81E064
:100F200069830E944D07F80180838091FC026981EA
:100F3000860F0F90DF91CF911F910F910895EF923F
:100F4000FF921F93CF93DF931F92CDB7DEB720910F
:100F5000FB027C01E20EF11C81E069830E944D07D7
:100F6000182F85E00E944D07810FF7018083809143
:100F7000FC026981860F0F90DF91CF911F91FF9046
:100F8000EF90089581E00E944D079091FC02890F37
:100F90000895CF93DF931F92CDB7DEB781E06983C9
:100FA0000E944D078093FB028091FC026981860FAD
:100FB0000F90DF91CF9108951F93CF93DF931F92EE
:100FC000CDB7DEB781E069830E944D07182F85E019
:100FD0000E944D07810F8093FB028091FC02698182
:100FE000860F0F90DF91CF911F910895EF92FF929E
:100FF0001F93CF93DF931F92CDB7DEB72091FB02F3
:101000007C01E20EF11C81E069830E944D07182FDC
:1010100085E00E944D07810FF70180836981862F4B
:101020008F5F0F90DF91CF911F91FF90EF90089508
:101030000F931F93CF93DF93EC01162F862F8F5FB3
:10104000FE01E80FF11D808181111CC0862F8150A7
:10105000FE01E80FF11D80811816A4F481E00E94C2
:101060004D07082F85E00E944D0790E0800F911DED
:101070006AE070E00E94311A049724F4C10FD11D78
:1010800081E088838091FC02810FDF91CF911F91D5
:101090000F9108950F931F93CF93DF93EC01162FB9
:1010A000862F8F5FFE01E80FF11D80811816A4F4D2
:1010B00081E00E944D07082F85E00E944D0790E0D7
:1010C000800F911D6AE070E00E94311A049724F4A9
:1010D000C10FD11D8FEF88838091FC02810FDF91BA
:1010E000CF911F910F910895CF92DF92FF920F93AE
:1010F0001F93CF93DF931F92CDB7DEB76C01909112
:10110000FB029F5F8601090F111D81E069830E9428
:101110004D07F82E85E00E944D078F0DF801808362
:101120008091FB02F601E80FF11D80818093FA02A5
:1011300081E080934F038091FC026981860F0F90BC
:10114000DF91CF911F910F91FF90DF90CF90089585
:10115000EF92FF921F93CF93DF931F92CDB7DEB72D
:101160007C0181E069830E944D07182F85E00E9471
:101170004D07810F83709091FB026981811102C03C
:101180009F5F09C0813011F4915005C0823011F485
:10119000905F01C090519093FB028091FB02F70198
:1011A000E80FF11D80818093FA0281E080934F0364
:1011B0008091FC02860F0F90DF91CF911F91FF90DD
:1011C000EF900895EF92FF921F93CF93DF931F92BA
:1011D000CDB7DEB77C018091EC018D30B9F4809100
:1011E0003E03860FE80EF11C81E069830E944D07E3
:1011F000182F85E00E944D07810FF70180838091B1
:101200003E038F5F80933E03698103C08091FC029F
:10121000680F862F0F90DF91CF911F91FF90EF9075
:1012200008954F925F927F928F929F92AF92BF925A
:10123000CF92DF92EF92FF920F931F93CF93DF93A2
:101240001F92CDB7DEB7FC019080A1808090E601AF
:101250008C0101581F4F811004C0302F212F8C01A9
:1012600002C0382F292F7801432E522E2FEFAAE0EB
:10127000CA2ED12CB12CF70181917F01F20180831C
:10128000891510F08F573EC0882311F08F5F39C049
:10129000822F8F5E8F77922F9F509F77F801E90FF3
:1012A000F11D9081992311F09915C0F0F801E80F14
:1012B000F11D8081882311F0891580F0822F8F77AE
:1012C000F801E80FF11D8081882311F0891530F0B5
:1012D000F70180818823B9F08915A8F481E029837A
:1012E0000E944D07782E85E00E944D0790E0870D03
:1012F000911DB6010E94311A29818A159B051CF4A3
:1013000081E0F2018083FFEF4F1A5F0A2F5F2E37D3
:1013100009F0B1CF81E088258093E6010F90DF913D
:10132000CF911F910F91FF90EF90DF90CF90BF90E2
:10133000AF909F908F907F905F904F9008950F9304
:101340001F93CF93DF93EC0181E00E944D07182F8C
:1013500085E00E944D07810F182F110F20E030E02B
:1013600090E0FC0131960FEFAF01420F531FDE01F9
:10137000A40FB11D4C91413810F470E001C074E02D
:10138000A901480F591FDE01A40FB11D4C9141382E
:1013900008F07260622F422F4150DC01A40FB11D92
:1013A000AD01DE01A40FB11D4C91413808F0716010
:1013B000610F488150E002C0559547957A95E2F754
:1013C00070E0DE01A60FB71F40FF02C01C9201C0F3
:1013D0000C932F5F3F4F2F3F310531F6DF91CF91B7
:1013E0001F910F910895AF92BF92CF92DF92EF922B
:1013F000FF920F931F93CF93DF93EC011091E301C2
:1014000081589F4F111105C0F82E092FDC2EED2EAB
:1014100004C0D82EE92EFC2E0D2F81E00E944D072E
:10142000C82E85E00E944D078C0D9E01782F7F5FAE
:10143000AD2CBE2CEF2DF02F082F0195000F60E092
:10144000FF24FA94E82EE094D9014D919D019C91DE
:1014500091704170940F462F481BDE01A40FB11DFF
:101460004C914170940F462F4150DE01A40FB11DE5
:101470004C914170940F472F4250DE01A40FB11DD3
:101480004C914170940F462F480FDE01A40FB11DFF
:101490004C914170940FAE01470F511DDA014C91F0
:1014A0004170940F472F400FDE01A40FB11D4C91E6
:1014B0004170940F4E2D460FDE01A40FB11D4C91CB
:1014C0004170940FD5014D915D0140FF07C09230EE
:1014D00008F402C0943030F0108205C0933011F44B
:1014E000F08201C040836F5F7F5F31966F3709F0F4
:1014F000ABCF81E081278093E301DF91CF911F91F2
:101500000F91FF90EF90DF90CF90BF90AF90089534
:101510007F928F929F92AF92BF92CF92DF92EF9283
:10152000FF920F931F93CF93DF93EC01A090E20102
:101530008C0101581F4FA11003C078018C0101C01C
:101540007C0181E00E944D07B82E85E00E944D0786
:101550008B0D8F7709F481E09801F70140E0B82EF8
:10156000912C8881742E781AD801A70DB11D8C900A
:101570006901E82CF12CD9018C9190E001966B2D3A
:10158000792D0E94311AE816F90609F480828880C4
:10159000870C882D8150D801A80FB11D7C90E72CB5
:1015A000F12CD9018C9190E001966B2D792D0E9440
:1015B000311AE816F90609F470828394D801A80D4F
:1015C000B11D7C90E72CF12CD9018C9190E0019613
:1015D0006B2D792D0E94311AE816F90609F47082F4
:1015E00088818150880DD801A80FB11D8C902F5F84
:1015F0003F4FE82CF12CD6018C9190E001966B2D99
:10160000792D0E94311AE816F90609F480824F5F9D
:1016100031964F3709F0A5CF81E08A258093E2010A
:10162000DF91CF911F910F91FF90EF90DF90CF90BE
:10163000BF90AF909F908F907F9008957F928F92F0
:101640009F92AF92BF92CF92DF92EF92FF920F9351
:101650001F93CF93DF93EC012091E10181589F4FBD
:10166000211105C0382F292F5C2F4D2F04C0582F72
:10167000492F3C2F2D2FC880C294C694B7E0CB22AF
:1016800089816AE00E94251A982EE52EF42E032FF8
:10169000122FB12CD12C8EEF882E81E00E944D07A5
:1016A000782E85E00E944D07870D3B2D381B432F78
:1016B0004F5F242F280F820F932F9150FE01E90FC7
:1016C000F11D90819170FE01E40FF11D4081417088
:1016D000940FFE01E30FF11D30813170930FFE0175
:1016E000E20FF11D30813170930F322F3250FE0125
:1016F000E30FF11D30813170930F2150FE01E20F95
:10170000F11D20812170920FFE01E80FF11D208153
:101710002170920F282F2250FE01E20FF11D20812F
:101720002170920F8150FE01E80FF11D80818170C0
:10173000980FA90EF7018081882389F18E3F09F463
:101740002EC080FD15C081E00E944D07782E85E0F7
:101750000E944D07282F30E0270D311DA99CA001C4
:1017600011244217530724F0F7018081816017C0CC
:10177000F701808180FF11C081E00E944D07782E23
:1017800085E00E944D07282F30E0270D311DC2163D
:10179000D3061CF0F801808204C0F7018081F801B3
:1017A0008083B394FFEFEF1AFF0A0F5F1F4F8FE79D
:1017B000B81273CF8091E10191E089278093E10114
:1017C000DF91CF911F910F91FF90EF90DF90CF901D
:1017D000BF90AF909F908F907F9008952F923F92EF
:1017E0004F925F926F927F928F929F92AF92BF9231
:1017F000CF92DF92EF92FF920F931F93CF93DF93DD
:10180000EC013090E00181589F4F311004C08C01F1
:10181000BC2EFD2E03C0B82EF92E8E0181E00E9451
:101820004D07C82E85E00E944D07C80EE980DA807A
:10183000E11002C0EE24E394D11002C0DD24D39461
:10184000F8010B2D1F2DF12C2C2C209444244394B3
:101850004C184F2D4C19822D8F0DDE01A80FB11D94
:101860006C91288130E021503109862F90E0821759
:10187000930721F0611105C0B12C05C0B12C81E0A6
:1018800003C0BB24B39480E0DE01A40FB11D7C91A2
:10189000472F50E04217530711F48F5F02C07111B8
:1018A000B394A42CAF0CDE01AA0DB11D9C91492F5D
:1018B00050E04217530711F48F5F02C09111B394A7
:1018C0006C80A60C4A2D4250DE01A40FB11D8C90F5
:1018D000482D50E04217530711F48F5F02C081106A
:1018E000B3944A2D4150DE01A40FB11D7C90472DC9
:1018F00050E04217530711F48F5F02C07110B39488
:10190000DE01AA0DB11D9C90492D50E042175307EE
:1019100011F48F5F02C09110B394A60C4A2D42506F
:10192000DE01A40FB11D6C90462D50E04217530705
:1019300011F48F5F02C06110B3944A2D4150DE0153
:10194000A40FB11D5C90452D50E04217530711F4D0
:101950008F5F02C05110B394DE01AA0DB11DAC908F
:101960004A2D50E04217530711F48F5F02C0A110B7
:10197000B394D8014D918D0141110BC06D2D0E9482
:10198000251A282F8B2D6E2D0E94251A280F2083B3
:1019900019C050E042175307A4F4960F970F990D02
:1019A000980D970D9A0D960D950D892F6B2D70E062
:1019B0006F5F7F4F90E00E94311A8B81860F80838A
:1019C00001C010824881242F30E0808190E082178E
:1019D000930714F041504083F3943196BFE7FB1214
:1019E00038CF81E083258093E001DF91CF911F9173
:1019F0000F91FF90EF90DF90CF90BF90AF909F90AE
:101A00008F907F906F905F904F903F902F900895B0
:101A10004F925F926F927F928F929F92AF92BF92FE
:101A2000CF92DF92EF92FF920F931F93CF93DF93AA
:101A30008C01D090DF01EC01C158DF4FD11003C001
:101A40005E01EC0101C05C0181E00E944D0785E070
:101A50000E944D07D8011196FC9011971296EC90B8
:101A6000F11002C0FF24F394E11002C0EE24E394CD
:101A7000F50131969E012F5F3F4F41E0D80114964A
:101A8000CC907C2D7095740F7F77DE01A70FB11D70
:101A90008C91D8019C9151E0891350E061E0811153
:101AA00001C060E0772E7394BFE77B22DE01A70DB3
:101AB000B11D7C91791301C05F5F71116F5F7394E9
:101AC000BFE74B2E7420DE01A70DB11DBC90B912EB
:101AD00001C05F5FB1106F5FCA94CA947C0CAFE71E
:101AE0005A2E7520DE01A70DB11DAC90A91201C0C0
:101AF0005F5FA1106F5F7394AFE77A22DE01A70DDD
:101B0000B11D9C90991201C05F5F91106F5F73943B
:101B1000BFE77B22DE01A70DB11D8C90891201C0A9
:101B20005F5F81106F5FC70CBFE74B2EC420DE01E3
:101B3000AC0DB11D7C90791201C05F5F71106F5FB9
:101B4000C394AFE75A2EC520DE01AC0DB11D6C90D9
:101B5000691201C05F5F61106F5FAC2DAF5FAF773F
:101B60002E014A0E511CD201CC90C91201C05F5FF8
:101B7000C1106F5FD9015D909D0151100CC0862F7F
:101B80006F2D0E94251AA82F852F6E2D0E94251AD1
:101B9000A80FA08317C05916A0F4870F8B0D8A0DCC
:101BA000890D880D870D860D8C0D70E06F5F7F4F5E
:101BB00090E00E94311AD80113968C91860F808391
:101BC00001C01082D8018C919081891708F480831C
:101BD0004F5F31964F3709F051CF81E08D258093CB
:101BE000DF01DF91CF911F910F91FF90EF90DF9078
:101BF000CF90BF90AF909F908F907F906F905F90AD
:101C00004F9008951F93CF93DF93EC0181E00E94E2
:101C10004D07182F85E00E944D07810F982F0BC0AC
:101C20009F5F2981290FFE01E20FF11D2081FE0136
:101C3000E90FF11D2083392F381B2881321780F3DB
:101C4000DF91CF911F91089581E00E944D0785E0BB
:101C50000C944D071F93CF93DF93EC0181E00E941A
:101C60004D07182F85E00E944D07810F90E007C0B7
:101C7000FE01E30FF11D20812F5F20839F5F392F2D
:101C8000380F28819217A0F3DF91CF911F9108950B
:101C90008F929F92AF92BF92CF92DF92EF92FF927C
:101CA0000F931F93CF93DF93EC01B12CEE24EA94B2
:101CB000F12C28C081E00E944D07182F85E00E947A
:101CC0004D07810F8E01080F111DF801A0800E94A1
:101CD000B01A6C0181E00E944D07982E85E00E94A9
:101CE0004D07882E87E00E944D07282D290D280FCB
:101CF000C601B7010E94311A280F2F702A25F8015A
:101D00002083B3948881B816A8F2DF91CF911F91F8
:101D10000F91FF90EF90DF90CF90BF90AF909F908A
:101D20008F900895282F30E0215031094091EE0125
:101D3000552747FD509581E0421753070CF480E08A
:101D40000895E091EE01EE3048F4EF5FE093EE018C
:101D5000FF27E7FDF095E15CFC4F808308959091AB
:101D6000EE01903158F4E92FFF27E7FDF095E15C93
:101D7000FC4F808191509093EE01089580E008958A
:101D8000E091EE01E03138F4FF27E7FDF095E15CEA
:101D9000FC4F8081089580E00895E82FF0E0E15144
:101DA000FE4F80810895E82FF0E0E151FE4F6083FF
:101DB000089550E002C0559547956A95E2F740FDB9
:101DC00002C0815008958F5F0895ECE7F0E08081B4
:101DD0008F7780838081806480838081806280832C
:101DE000EAE7F0E08081846080838081806880837E
:101DF00017B818B80895BF92CF92DF92EF92FF9272
:101E00000F931F93CF93DF93EC01DD24DA940FEF50
:101E100010E00E94B01A7C0181E00E944D07C82E9C
:101E200085E00E944D07B82E87E00E944D072B2DBC
:101E30002C0D8F70280FC701B8010E94311A280F8E
:101E40002993DA9431F7DF91CF911F910F91FF9091
:101E5000EF90DF90CF90BF900895EF92FF921F9385
:101E6000CF93DF931F92CDB7DEB77C0181E069830A
:101E70000E944D07182F85E00E944D07810F698150
:101E8000681B962F9F5FF701E90FF11D91E02081FC
:101E9000213009F090E0262F2E5FF701E20FF11DAF
:101EA0002081213009F49F5F6D5FF701E60FF11D7E
:101EB0002081213009F49F5F680F262F2250F701FF
:101EC000E20FF11D2081213009F49F5FF701E60F39
:101ED000F11D2081213009F49F5F860F282F2250A9
:101EE000F701E20FF11D2081213009F49F5F282FB7
:101EF0002150F701E20FF11D2081213009F49F5F8D
:101F0000F701E80FF11D8081813009F49F5F915046
:101F100081E0923008F080E00F90DF91CF911F9127
:101F2000FF90EF900895AF92BF92CF92DF92EF9221
:101F3000FF920F931F93CF93DF93C090DE019C011C
:101F400021583F4FC11005C0B22EF32EE82ED92ED6
:101F500004C0E22ED32EB82EF92E81E00E944D0748
:101F600085E00E944D070E2D1D2DCB2DDF2DF12C70
:101F700081E8B82EAA24AA94F8012081211102C078
:101F8000188215C0213011F4A88211C02F3F11F41E
:101F9000B8820DC0213840F06F2D8E2D9D2D0E94EE
:101FA0002D0F813009F402C0F80180818883F394F9
:101FB0000F5F1F4F2196FFE7FF12DECF81E08C25D8
:101FC0008093DE01DF91CF911F910F91FF90EF90F1
:101FD000DF90CF90BF90AF900895CF93DF93CDB7B0
:101FE000DEB7CD5DD1090FB6F894DEBF0FBECDBF11
:101FF0000E94E50E81E00E944D07182F85E00E94A7
:102000004D0790E0810F911D0E94B51A88E0E5E030
:10201000F1E0DE01AF52BF4F01900D928A95E1F7DA
:1020200080E1EDE0F1E0DE01AB55BF4F01900D9294
:102030008A95E1F782E3EDE1F1E0DE01119601908E
:102040000D928A95E1F78EE0EFE4F1E0DE01AD5309
:10205000BF4F01900D928A95E1F782E1EDE5F1E045
:10206000DE01AD56BF4F01900D928A95E1F78EE0EB
:10207000EFE6F1E0DE01AB54BF4F01900D928A957F
:10208000E1F788E1EDE7F1E0DE01AD5ABF4F0190E5
:102090000D928A95E1F786E1E5E9F1E0DE01A559C7
:1020A000BF4F01900D928A95E1F782E1EBEAF1E0F2
:1020B000DE01AF57BF4F01900D928A95E1F780E2A4
:1020C000EDEBF1E0DE01D39601900D928A95E1F7F8
:1020D00081E08093FB0280933D038FEE91E00E94AC
:1020E000FB0E0DEF12E081E00E944D07F82E85E017
:1020F0000E944D078F0DF80181938F01F3E00D339E
:102100001F0789F780E48AB9F89483E884BD83E0E7
:1021100085BD8FE380937E0081E08093FC028093F5
:102120003D031092E8011092ED01C12CD12C612CDD
:1021300000E0C752DF4F19821882C95DD040A12C40
:10214000B12C812C912C10E05524539480E00E94F6
:102150004D07782E83E00E944D07E82EF12CE70C06
:10216000F11C54E0EE0CFF1C5A95E1F797013695EF
:10217000279536952795C552DF4F39832883CB5D48
:10218000D040170175E0369427947A95E1F782E004
:102190000E944D07782E84E00E944D07870DEFE0E6
:1021A0007E2E782241F4E12FF0E0E151FE4F708065
:1021B00072944FE074223FEF831A930A82149304BF
:1021C00010F40C94DA1982958F70883009F436C1B6
:1021D000A8F4843009F4B2C048F4823009F470C025
:1021E00008F08DC0813009F031C538C0812E912CA6
:1021F000863009F4D5C008F0F0C0BFC08C3009F4B7
:10220000D9C430F48A3009F49EC308F085C4BFC233
:102210008E3031F008F4F5C48F3009F017C581C550
:10222000E12FF0E0E151FE4F808169E10E94251A23
:10223000FE013196E90FF11DE90FF11D0190F081CA
:10224000E02D612F8FEE91E00995182F80913D03CD
:102250008093FC02812C912C0C94DA19E12FF0E090
:10226000E151FE4F808167E00E94251AFE01ED5387
:10227000FF4FE90FF11DE90FF11D0190F081E02DF5
:10228000612F8FEE91E00995182FE82FF0E0E151D2
:10229000FE4F80818F3F61F480913D0387FF03C033
:1022A00050923D0305C0882319F08FEF80933D03C2
:1022B00080913D038093FC02812C912C0C94DA19BF
:1022C000E12FF0E0E151FE4F808169E00E94251A84
:1022D000FE01ED56FF4FE90FF11DE90FF11D0190D1
:1022E000F081E02D612F8FEE91E00995182F8091FC
:1022F0003D038093FC02812C912C0C94DA19E12F80
:10230000F0E0E151FE4F808167E00E94251AFE0156
:10231000EB54FF4FE90FF11DE90FF11D0190F08122
:10232000E02D612F8FEE91E00995182F80913D03EC
:102330008093FC02812C912C0C94DA19E12FF0E0AF
:10234000E151FE4F80816CE00E94251AFE01ED5A9A
:10235000FF4FE90FF11DE90FF11D0190F081E02D14
:10236000612F8FEE91E00995182F80913D038093A6
:10237000FC02812C912C0C94DA1981E00E944D070B
:10238000382E85E00E944D07F401E151FE4F830D88
:10239000808380913D03180F812C912C0C94DA19C5
:1023A000F401E151FE4F808169E00E94251AFE018F
:1023B000EF57FF4FE90FF11DE90FF11D0190F0817B
:1023C000E02D612F8FEE91E00995182F80913D034C
:1023D0008093FC02812C912CEDC7F401E151FE4F5A
:1023E00080816BE00E94251AFE01E559FF4FE90F3D
:1023F000F11DE90FF11D0190F081E02D612F8FEEAD
:1024000091E00995182F8091E801811104C01F5FA8
:10241000812C912CCFC7813021F41150812C912C2B
:10242000C9C7823021F4105F812C912CC3C783303F
:1024300009F0AFC71051812C912CBCC7212F30E07F
:10244000F901E151FE4F808169E10E94251A892F2F
:1024500090E0FC013197E831F10520F4EC5CFF4F8E
:102460000C94451A1F5F812C912CA4C78091EE011A
:1024700018160CF095C70E94AF0E982E0E94AF0E52
:1024800091E0981290E0892F0E94A10E1F5F812C8D
:10249000912C90C7F901E151FE4F1081812C912CB4
:1024A00089C78091EE0187FD0CC00E94AF0E81119B
:1024B00008C0E12FF0E0E151FE4F1081812C912CFA
:1024C00079C71F5F812C912C75C7412E4394F90168
:1024D000E151FE4F80810E94A10E142D812C912C80
:1024E00069C7412E4394F901E151FE4FE081F0E0CC
:1024F000E151FE4F80810E94A10E142D812C912C60
:1025000059C7412E4394F901E151FE4FE081F0E0BB
:10251000E151FE4FE081F0E0E151FE4F80810E94E9
:10252000A10E142D812C912C45C78091EE01912E86
:10253000939487FD0FC00E94AF0EE12FF0E0E151B0
:10254000FE4FE081F0E0E151FE4F8083192D812C98
:10255000912C30C7192D812C912C2CC78091EE0124
:10256000912E939487FD13C00E94AF0EE12FF0E0EF
:10257000E151FE4FE081F0E0E151FE4FE081F0E0FB
:10258000E151FE4F8083192D812C912C13C7192DF9
:10259000812C912C0FC78091EE01181644F40E94F3
:1025A000AF0E982E0E94AF0E890D0E94A10E1F5FE4
:1025B000812C912CFFC68091EE0118164CF40E94DC
:1025C000AF0E982E0E94AF0E981A892D0E94A10E70
:1025D0001F5F812C912CEEC68091EE0187FD05C016
:1025E0000E94AF0E8F5F0E94A10E1F5F812C912C65
:1025F000E1C68091EE0187FD05C00E94AF0E8150BB
:102600000E94A10E1F5F812C912CD4C68091EE01F7
:10261000181644F40E94AF0E982E0E94AF0E892126
:102620000E94A10E1F5F812C912CC4C68091EE01E7
:10263000181644F40E94AF0E982E0E94AF0E8929FE
:102640000E94A10E1F5F812C912CB4C68091EE01D7
:10265000181644F40E94AF0E982E0E94AF0E8925E2
:102660000E94A10E1F5F812C912CA4C68091EE01C7
:1026700087FD05C00E94AF0E80950E94A10E1F5FCE
:10268000812C912C97C68091EE01912E939418166F
:10269000A4F40E94AF0E90E0E12FF0E0E151FE4F74
:1026A0002081277002C0959587952A95E2F70E94B0
:1026B000A10E192D812C912C7DC6192D812C912CC8
:1026C00079C68091EE01912E9394181694F40E948D
:1026D000AF0EE12FF0E0E151FE4F9081977001C005
:1026E000880F9A95EAF70E94A10E192D812C912C42
:1026F00061C6192D812C912C5DC6F901E151FE4F67
:10270000E081F0E0E151FE4F80818F5F80831F5FA9
:10271000812C912C4FC6F901E151FE4FE081F0E090
:10272000E151FE4F8081815080831F5F812C912C6D
:1027300041C68091EE0187FD04C00E94C00E0E9438
:10274000A10E1F5F812C912C35C61F5FE12FF0E099
:10275000E151FE4F80818093FA0250924F03812C09
:10276000912C28C681E00E944D07982E85E00E949A
:102770004D07E12FF0E0E151FE4FE081F0E0E15143
:10278000FE4F890D80831F5F812C912C13C681E041
:102790000E944D07982E85E00E944D07890D877095
:1027A000E1EDF0E0EC0FFD1FE80FF11D208120931B
:1027B000EA01120FE12FF0E0E151FE4F4081842F3A
:1027C0006CE00E94251A392F963009F471C090F4FC
:1027D000933009F445C0812F90E0343028F4313033
:1027E00069F13230B9F433C0343009F443C03530C4
:1027F00089F44FC0993009F47DC030F4973009F462
:102800005CC0983039F463C09A3009F47EC09B30C4
:1028100009F487C081E00E944D07982E85E00E9450
:102820004D07E12FF0E0E151FE4FE081F0E0E15192
:10283000FE4F890D8083812C912CBCC5FC01E15198
:10284000FE4F80818F5F8083812C912CB3C5FC016A
:10285000E151FE4F808181508083812C912CAAC54B
:10286000210FE22FF0E0E151FE4F8081180F812C03
:10287000912CA0C5DC01A151BE4F210FE22FF0E049
:10288000E151FE4F80819C91890F8C93812C912C7A
:1028900091C5DC01A151BE4F210FE22FF0E0E151C3
:1028A000FE4F8C919081891B8C93812C912C82C539
:1028B000440F4083812C912C7DC5E12FF0E0E15144
:1028C000FE4F808186958083812C912C73C5A091C9
:1028D000EB01A10FB0E0A151BE4F8C91811163C5F6
:1028E000210FE22FF0E0E151FE4F8081180F812C83
:1028F000912C60C5210FE22FF0E0E151FE4F808165
:102900000E94A10E812C912C55C50E94AF0EE09122
:10291000EA01E10FF0E0E151FE4F8083812C912C20
:1029200049C581E00E944D07982E85E00E944D0721
:10293000E091EA01E10FF0E0E151FE4F890D808363
:10294000812C912C37C5E12FF0E0E151FE4F208121
:10295000822F61E20E94251A492F50E0FA013A972E
:10296000E731F10520F4E45BFF4F0C94451A822F08
:102970006EE13CC00E94AF0E982E0E94AF0E981AD6
:102980007CC00E94AF0E982E0E94AF0E89199EC087
:102990000E94AF0E982E0E94AF0E899D802D1124AB
:1029A00095C00E94AF0E882309F4A8C0C352DF4F20
:1029B0008883CD5DD0400E94AF0EC352DF4F688147
:1029C000CD5DD0400E94251A81C00E94AF0E8823A1
:1029D00009F494C0C352DF4F8883CD5DD0400E947C
:1029E000AF0EC352DF4F6881CD5DD0400E94251AE3
:1029F000892F6CC00E94AF0E81110AC007C00E94CF
:102A0000AF0E982E0E94AF0E981610F481E05EC0B3
:102A100080E05CC081E00E944D07982E85E00E9416
:102A20004D07282F30E0290D311D23703327220F49
:102A30002093EB0163C00E94AF0E811102C082E0BF
:102A400007C086E005C00E94AF0E811104C084E07B
:102A50008093EB0153C01092EB0150C00E94AF0E67
:102A6000982E09C00E94AF0E8093EA010E94AF0E1B
:102A7000982E8091EA010E94A10E892D27C00E9404
:102A8000AF0E3CC00E94AF0E8093FA0250924F03EB
:102A900035C08091EB018770E1EDF0E0EC0FFD1F98
:102AA000E80FF11D8081180F29C00E94AF0E982EEB
:102AB00018C00E94AF0E982E0E94AF0E899D802DE7
:102AC0001124E82FF0E0E151FE4F80810E94A10E19
:102AD00015C081E00E944D07982E85E00E944D07A9
:102AE000980E0E94AF0E882E0E94AF0E889D802DFA
:102AF0001124E82FF0E0E151FE4F90828091EB012C
:102B00008770E1EDF0E0EC0FFD1FE80FF11D808113
:102B1000180F812C912C4EC4812E912C3FEE232E28
:102B200031E0332E280C391CF1014080842D6EE0F9
:102B30000E94251A9C30D1F018F4913018F012C080
:102B40009D30F1F081E00E944D07382E85E00E9413
:102B50004D07F401E151FE4FE081F0E0E151FE4FFD
:102B6000830D19C0842D0E94A10E16C08091EB0127
:102B70008E5F8093EB010E94AF0E8425F1010BC0A4
:102B80008091EB0182508093EB010E94AF0EF40123
:102B9000E151FE4F842580838091EB018770E1ED48
:102BA000F0E0EC0FFD1FE80FF11D8081180F812C64
:102BB000912C00C4E12FF0E0E151FE4F2081909173
:102BC000EA01822F890F80838091EB01891B820F9C
:102BD00087708093EB01E1EDF0E0EC0FFD1FE80F53
:102BE000F11D8081180F2F70E5EAF0E0EC0FFD1F5A
:102BF000E20FF11D8081890F8093EA01812C912CD5
:102C0000D9C3E12FF0E0E151FE4F60818091EA01EC
:102C1000982F9770A1EDB0E0AC0FBD1FA90FB11DAB
:102C20009C91960F908367704091EF010E94D90E9E
:102C30008093EA018770E1EDF0E0EC0FFD1FE80FF3
:102C4000F11D8081180F812C912CB4C381E00E946A
:102C50004D07982E85E00E944D07E02FF0E0E350ED
:102C6000FD4F890D80830F5F003409F400E0A60159
:102C700023E0559547952A95E1F7FA01E151FE4F7A
:102C8000E081B601677077272E2F30E0062E02C054
:102C9000359527950A94E2F7862D90E0DC0120FF18
:102CA00003C01196AF73BB27A350BD4F8C91682E04
:102CB00066946694282F2270DA01A151BE4F80FDE0
:102CC0000BC081E090E0062E01C0880F0A94EAF75D
:102CD00080958E238C9309C081E090E0062E01C080
:102CE000880F0A94EAF7E82BEC938C918093FA0210
:102CF00050924F03211105C0F1E0CF1AD10858F0CE
:102D000003C03FEFC31AD30A81E0C81688E0D80693
:102D10000CF04CC303C0C12C98E0D92E812C912C0F
:102D200049C3E12FF0E0E151FE4F2081822F6DE198
:102D30000E94251A492F50E0FA013197EC31F10534
:102D400020F4ED59FF4F0C94451AE12FEF5FF0E0AE
:102D5000E151FE4F8081E12FEE5FF0E0E151FE4F47
:102D6000E081E10FF0E0E151FE4F80831D5F812C97
:102D7000912C20C3E12FEF5FF0E0E151FE4FE081A5
:102D8000F0E0E151FE4F8081E12FEE5FF0E0E15194
:102D9000FE4FE081E10FF0E0E151FE4F80831D5FC7
:102DA000812C912C07C3E12FEF5FF0E0E151FE4F42
:102DB0008081E12FEE5FF0E0E151FE4FE081F0E035
:102DC000E151FE4FE081F0E0E151FE4F80831D5F55
:102DD000812C912CEFC2E12FEF5FF0E0E151FE4F2B
:102DE000E081F0E0E151FE4F8081E12FEE5FF0E005
:102DF000E151FE4FE081F0E0E151FE4FE081F0E073
:102E0000E151FE4F80831D5F812C912CD3C2E12FB5
:102E1000EE5FF0E0E151FE4FE081E10FF0E0E151C3
:102E2000FE4FA12FAF5FB0E0A151BE4F80819C91BA
:102E3000890F80831D5F812C912CBCC2E12FEE5F36
:102E4000F0E0E151FE4FE081E10FF0E0E151FE4F93
:102E5000A12FAF5FB0E0A151BE4FAC91B0E0A15146
:102E6000BE4F8C91820F80831D5F812C912CA2C25A
:102E7000E12FEE5FF0E0E151FE4FE081F0E0E15143
:102E8000FE4F9081E92FF0E0E151FE4FA12FAF5F9F
:102E9000B0E0A151BE4F8C91890F80831D5F812CC2
:102EA000912C88C2E12FEE5FF0E0E151FE4FE0810E
:102EB000F0E0E151FE4F9081E92FF0E0E151FE4F4B
:102EC000A12FAF5FB0E0A151BE4FAC91B0E0A151D6
:102ED000BE4F8C91890F80831D5F812C912C6AC21B
:102EE000E12FEE5FF0E0E151FE4FE081E10FF0E015
:102EF000E151FE4FA12FAF5FB0E0A151BE4F8C91C9
:102F00009081891B80831D5F812C912C53C2E12FFE
:102F1000EE5FF0E0E151FE4FE081E10FF0E0A12F24
:102F2000AF5FB0E0A151BE4FE151FE4FAC91808147
:102F3000A81BB0E0A151BE4F8C9180831D5F812CF6
:102F4000912C38C2E12FEE5FF0E0E151FE4FE081BD
:102F5000F0E0E151FE4F9081E92FF0E0E151FE4FAA
:102F6000A12FAF5FB0E0A151BE4F8C91891B808330
:102F70001D5F812C912C1EC2E12FEE5FF0E0E1512C
:102F8000FE4FE081F0E0E151FE4F9081E92FF0E04B
:102F9000E151FE4FA12FAF5FB0E0A151BE4FAC9108
:102FA000B0E0A151BE4F8C91891B80831D5F812CA5
:102FB000912C00C2E12FEF5FF0E0E151FE4F8081E4
:102FC000180F812C912CF6C1412E4394E42DF0E092
:102FD000E151FE4FE081F0E0E151FE4F1081812C84
:102FE000912CE8C1E12FEE5FF0E0E151FE4FE0816E
:102FF000E10FF0E0E151FE4F808181110AC0E12F25
:10300000EF5FF0E0E151FE4F8081180F812C912C91
:10301000D1C11D5F812C912CCDC1E12FEE5FF0E07D
:10302000E151FE4FE081E10FF0E0E151FE4F808180
:1030300081110EC0412E4394E42DF0E0E151FE4F8A
:10304000E081F0E0E151FE4F1081812C912CB2C162
:103050001D5F812C912CAEC1E12FEE5FF0E0E151BC
:10306000FE4FE081F0E0E151FE4FE081F0E0E15100
:10307000FE4F808181110AC0E12FEF5FF0E0E15146
:10308000FE4F8081180F812C912C94C11D5F812CE3
:10309000912C90C1E12FEE5FF0E0E151FE4FE08115
:1030A000F0E0E151FE4FE081F0E0E151FE4F808120
:1030B00081110EC0412E4394E42DF0E0E151FE4F0A
:1030C000E081F0E0E151FE4F1081812C912C72C122
:1030D0001D5F812C912C6EC1E12FEE5FF0E0E1517C
:1030E000FE4FE081E10FF0E0E151FE4F8081882347
:1030F00051F0E12FEF5FF0E0E151FE4F8081180FBA
:10310000812C912C57C11D5F812C912C53C1E12F33
:10311000EE5FF0E0E151FE4FE081E10FF0E0E151C0
:10312000FE4F8081882371F0412E4394E42DF0E01E
:10313000E151FE4FE081F0E0E151FE4F1081812C22
:10314000912C38C11D5F812C912C34C1E12FEE5F91
:10315000F0E0E151FE4FE081F0E0E151FE4FE0810F
:10316000F0E0E151FE4F8081882351F0E12FEF5FC5
:10317000F0E0E151FE4F8081180F812C912C1AC193
:103180001D5F812C912C16C1E12FEE5FF0E0E15123
:10319000FE4FE081F0E0E151FE4FE081F0E0E151CF
:1031A000FE4F8081882371F0412E4394E42DF0E09E
:1031B000E151FE4FE081F0E0E151FE4F1081812CA2
:1031C000912CF8C01D5F812C912CF4C0E12FEE5F93
:1031D000F0E0E151FE4FA081A10FB0E0A151BE4F40
:1031E0008C9181508C93E081E10FF0E0E151FE4F32
:1031F000808181110AC0E12FEF5FF0E0E151FE4FC5
:103200008081180F812C912CD5C01D5F812C912CB1
:10321000D1C0E12FEE5FF0E0E151FE4FA081A10FA0
:10322000B0E0A151BE4F8C9181508C93E081E10FB1
:10323000F0E0E151FE4F808181110EC0412E439498
:10324000E42DF0E0E151FE4FE081F0E0E151FE4F6E
:103250001081812C912CAEC01D5F812C912CAAC0B5
:10326000E12FEE5FF0E0E151FE4F8081A82FA150E9
:10327000B0E0A151BE4F9C91A82FB0E0A151BE4F2C
:10328000AC91B0E0A151BE4F9C93E081F0E0E151E0
:10329000FE4FE081F0E0E151FE4F808181110AC0D4
:1032A000E12FEF5FF0E0E151FE4F8081180F812C9C
:1032B000912C80C01D5F812C912C7CC0E12FEE5F92
:1032C000F0E0E151FE4F8081A82FA150B0E0A15164
:1032D000BE4F9C91A82FB0E0A151BE4FAC91B0E081
:1032E000A151BE4F9C93E081F0E0E151FE4FE0819F
:1032F000F0E0E151FE4F8081811112C0412E4394D4
:10330000E42DF0E0E151FE4FE081F0E0E151FE4FAD
:10331000E081F0E0E151FE4F1081812C912C4AC0F8
:103320001D5F812C912C46C01D5F812C912C42C0C9
:1033300081E00E944D07982E85E00E944D07E12F05
:10334000EE5FF0E0E151FE4FE081E10FF0E0E1518E
:10335000FE4F890D80831D5F812C912C2BC081E055
:103360000E944D07982E85E00E944D07E12FEE5FE9
:10337000F0E0E151FE4FE081F0E0E151FE4FE081ED
:10338000F0E0E151FE4F890D80831D5F812C912C6F
:1033900011C0812C912C0EC0812C912C11E00AC0FF
:1033A000812C912C07C0812C912C04C0C12CD12CD4
:1033B000812C912C9FEFA91AB90AAE14BF04C0F05A
:1033C000E091E901EF5FE093E90180914F038130E3
:1033D00019F410924F0306C0F0E0E151FE4F8081D6
:1033E0008093FA028091FA02809587BDA12CB12CBE
:1033F000C752DF4F28813981C95DD0402F5F3F4FD1
:10340000C752DF4F39832883C95DD040C552DF4F93
:1034100088819981CB5DD0402817390710F40C942E
:10342000A610FE013196E70DF11DE70DF11D02A872
:10343000F3A9E02D8FEE91E00995C752DF4F198275
:103440001882C95DD0400C94A610991B79E004C085
:10345000991F961708F0961B881F7A95C9F78095D3
:10346000089597FB072E16F4009407D077FD09D036
:103470000E944B1A07FC05D03EF4909581959F4F12
:103480000895709561957F4F0895EE0FFF1F059089
:10349000F491E02D0994AA1BBB1B51E107C0AA1FA0
:1034A000BB1FA617B70710F0A61BB70B881F991FE5
:1034B0005A95A9F780959095BC01CD0108958F92FA
:1034C0009F92AF92BF92CF92DF92EF92FF92CF93F3
:1034D000DF93EC01688179818A819B816115710597
:1034E0008105910521F464E279ED8BE597E02DE10A
:1034F00033EF41E050E00E94D31A49015A019B0189
:10350000AC01A7EAB1E40E94C01A6B017C01ACEEE9
:10351000B4EFA50194010E94CE1AC60ED71EE81E74
:10352000F91EF7FE06C081E0C81AD108E10880E85C
:10353000F80AC882D982EA82FB82E894D7F8EE249E
:10354000FF24C601DF91CF91FF90EF90DF90CF90E5
:10355000BF90AF909F908F9008950E945F1A08953A
:1035600081E091E00E945F1A0895A0E0B0E08093AE
:10357000010190930201A0930301B0930401089507
:103580000E94EF1AA59F900DB49F900DA49F800DEF
:10359000911D11240895B7FF0C94C01A0E94C01AFF
:1035A000821B930B0895052E97FB16F4009407D009
:1035B00057FD0DD00E94FB1A07FC09D07EF49095B0
:1035C0008095709561957F4F8F4F9F4F08955095CF
:1035D0004095309521953F4F4F4F5F4F0895A29FE3
:1035E000B001B39FC001A39F01D0B29F700D811D98
:1035F0001124911D0895A1E21A2EAA1BBB1BFD01E7
:103600000DC0AA1FBB1FEE1FFF1FA217B307E407C1
:10361000F50720F0A21BB30BE40BF50B661F771F19
:10362000881F991F1A9469F76095709580959095F9
:0E3630009B01AC01BD01CF010895F894FFCFBE
:10363E001101000000F0F1010F1011FFEF01040263
:10364E0007030D04070809030C060B050DAF0576DD
:10365E00057F0588059405DC07C907C2079F07A0EB
:10366E0005BA05C405CE05D805E305EF0501060D1F
:10367E00062B06850764073D0641064E0652066474
:10368E00077D039203A503BB03CB035206EF04F79A
:10369E0004FF040A051505F60723054C05520664BA
:1036AE0007B704CC044A08DE041808520664070261
:1036BE00040504260447044F0465046B0483048642
:1036CE0004A9045206BE02D4025B068E06C106DEB3
:1036DE0006E102FB060203640752061B07E20834EA
:1036EE000729036903A808740864075206480E11D7
:1036FE00099E00C2010D022A0E240E020E930FEE39
:0E370E000B1E0B880A080DF3099F09480E00D8
:00000001FF
