:100000000C9434000C9451000C9451000C94510049
:100010000C9451000C9451000C9451000C9451001C
:100020000C9451000C9451000C9451000C9451000C
:100030000C9451000C9451000C9451000C945100FC
:100040000C9451000C9451000C9451000C945100EC
:100050000C9451000C9451000C9451000C945100DC
:100060000C9451000C94510011241FBECFEFD4E02A
:10007000DEBFCDBF11E0A0E0B1E0E8E1F3E202C0F5
:1000800005900D92A835B107D9F722E0A8E5B1E0B7
:1000900001C01D92AB3CB207E1F70E94AF0F0C9478
:1000A0008A110C9400002F923F924F925F926F92B0
:1000B0007F928F929F92AF92BF92CF92DF92EF92F8
:1000C000FF920F931F93CF93DF93CDB7DEB728979F
:1000D0000FB6F894DEBF0FBECDBF98878F832091F7
:1000E0005B01298381589F4F211105C0EF81F8855D
:1000F00098878F8301C0FC011081D1806281338198
:100100003C83D11002C0DD24D394611101C061E0B1
:1001100000910001E00FF11D8080DF0111972C910B
:10012000422F50E05E834D83C1804C2C512CCF0177
:100130004097DC016C90262C312C7088E72CF12C38
:100140000197DC019C900296DC01AC90B784718928
:10015000E12FF0E0FB83EA83CF01019748175907AD
:1001600051F051E040E0211101C050E0252F342F23
:1001700040E050E004C020E030E041E050E04816AC
:10018000590619F44F5F5F4F04C0CC2011F02F5F68
:100190003F4F2816390619F44F5F5F4F04C06620A1
:1001A00011F02F5F3F4FE816F90619F44F5F5F4FCC
:1001B00004C0772011F02F5F3F4F911203C04F5FB3
:1001C0005F4F04C0992011F02F5F3F4FA11203C071
:1001D0004F5F5F4F04C0AA2011F02F5F3F4FB11255
:1001E00003C04F5F5F4F04C0BB2011F02F5F3F4F34
:1001F000711303C04F5F5F4F04C0772311F02F5F6F
:100200003F4FF02FFF77CF2E81100FC0EF81F88581
:10021000EC0DF11D70E0CA010E94A110E62E6D2DBB
:1002200070E0C9010E94A11021C0482D50E0EF816B
:10023000F885EC0DF11D48175907DCF48D819E817E
:10024000840F951F840D951D820D931D8E0D9F1D8E
:10025000890D911D8A0D911D8B0D911D870F911D8B
:10026000B9016F5F7F4F0E94A110EC80E60EE08223
:1002700001C01082AF81B885AC0DB11D8C9190E0AA
:100280002A813B818217930714F011501C930F5F52
:100290000F3618F40093000108C081E1809300013B
:1002A00081E03981832780935B0128960FB6F8940B
:1002B000DEBF0FBECDBFDF91CF911F910F91FF9099
:1002C000EF90DF90CF90BF90AF909F908F907F90F6
:1002D0006F905F904F903F902F900895CF93DF9352
:1002E000DC012C91E0915A01EF5FEF70E0935A012D
:1002F0007E2F7295707F7F5FF0E0AF014F5F5F4FA1
:10030000C42FC295C07F34E0EE0FFF1F3A95E1F78E
:10031000E80FF91F61E030E0DFEF472F460FDC0107
:10032000A40FB11D4C91413810F450E001C054E0CD
:10033000DF014181413808F0526031964C914138DB
:1003400008F05160D90102C0B595A7955A95E2F71A
:10035000AD01562F5C0FDC01A50FB11D40FF02C09F
:10036000DC9301C01C926F5F6031B9F6DF91CF91D1
:1003700008952F923F924F925F926F927F928F9249
:100380009F92AF92BF92CF92DF92EF92FF920F9324
:100390001F93CF93DF93CDB7DEB72B970FB6F894AB
:1003A000DEBF0FBECDBF40905801AC0141585F4F3A
:1003B000411003C0FC01CA0101C0FA016F0141E113
:1003C000C40ED11C7F0150E1E50EF11C8F010E5EC1
:1003D0001F4FBF016F5F7F4FDF019196BB87AA87D9
:1003E000F987E8873296FF83EE83A885B9859096D2
:1003F00028843984E2E22E0E311CAC014F5E5F4F3F
:100400005D834C8391E1F60151916F01F7015190A9
:100410007F01F80181918F01FB016190BF01EA85A5
:10042000FB857190FB87EA87E885F9858190F987DC
:10043000E887EE81FF819190FF83EE83AD90F1011B
:10044000B1901F018170F52DF1708F0F462D417015
:10045000840FE72DE1708E0FF82DF1708F0F492D6D
:100460004170840FEA2DE1708E0FFB2DF1708F0F1C
:10047000833041F0252F217030E0280F311D2330CB
:10048000310529F44FEFEC81FD81408303C0EC81FD
:10049000FD8110829F5F4C815D814F5F5F4F5D8367
:1004A0004C839E3609F0AFCF81E0842580935801BC
:1004B0002B960FB6F894DEBF0FBECDBFDF91CF9164
:1004C0001F910F91FF90EF90DF90CF90BF90AF9072
:1004D0009F908F907F906F905F904F903F902F9064
:1004E0000895909176029F5F9093760280917702B3
:1004F000860F0895909176029150909376028091A4
:100500007702860F089520917602FC01E20FF11D1B
:1005100090819F5F908380917702860F089520914C
:100520007602FC01E20FF11D908191509083809141
:100530007702860F089520917602FC01E20FF11DEB
:1005400080818093750281E08093CA028091770256
:10055000860F0895809176028093750281E08093E2
:10056000CA0280917702860F0895FC01E60FF11D03
:1005700090819F5F908380917702860F0895FC01A0
:10058000E60FF11D90819150908380917702860F44
:100590000895FC01E60FF11D9081990F90838091E1
:1005A0007702860F0895FC01E60FF11D9081990FE7
:1005B000990F908380917702860F0895FC01E60FD2
:1005C000F11D9081990F990F990F90838091770277
:1005D000860F089521E0260FFC01E20FF11D208116
:1005E000211106C020917602FC01E20FF11D60810D
:1005F00080917702860F089521E0260F820F911DCA
:10060000FC01808187FD80917702860F0895462F37
:1006100050E09A012150310971E0760F2F3FEFEF42
:100620003E0711F42FEF30E0FC01E20FF31F2081B1
:1006300027FD08C0FC01E40FF51F2081FC01E70F36
:10064000F11D208380917702860F089521E0260F07
:10065000FC01E20FF11D2081FC01E20FF11D208160
:10066000FC01E60FF11D208380917702860F08952B
:1006700080917702860F08958091B80287FF02C0AB
:1006800081E001C08FEF8093B80280917702860FDE
:10069000089580917702860F0895FC01E60FF11D01
:1006A000808187BD80917702860F089590917C00AC
:1006B000987F90937C0090917C008770892B809329
:1006C0007C0080917A00806480937A0080917A0027
:1006D00084FFFCCF8091790008958F929F92AF9212
:1006E000BF92CF92DF92EF92FF920F931F93CF931F
:1006F000DF93EC01B12CEE24EA94F12C288130E058
:100700008B2D90E0281739074CF181E00E945603A9
:10071000182F85E00E945603810F8E01080F111DCE
:10072000F801A0800E9417116C0181E00E9456031D
:10073000982E85E00E945603882E87E00E9456037B
:10074000282D290D280FC601B7010E94A110280FDE
:100750002F702A25F8012083B394D0CFDF91CF9159
:100760001F910F91FF90EF90DF90CF90BF90AF90CF
:100770009F908F9008951F93CF93DF93EC0181E0BA
:100780000E945603182F85E00E945603810F90E0C7
:10079000692F680F488150E0292F30E04217530736
:1007A00044F0FE01E60FF11D20812F5F20839F5F43
:1007B000EFCFDF91CF911F9108951F93CF93DF93D8
:1007C000EC0181E00E945603182F85E00E94560339
:1007D000810F90E0488150E0292F30E04217530705
:1007E0006CF021E0280FFE01E20FF11D2081FE01D7
:1007F000E80FF11D20838E5F9F5FECCFDF91CF91DB
:100800001F9108951F93CF93DF93EC0181E00E9425
:100810005603182F85E00E945603810F982F4881B8
:1008200050E0292F281B30E04217530764F09F5FE8
:100830002981290FFE01E20FF11D2081FE01E90F40
:10084000F11D2083ECCFDF91CF911F9108954F923E
:100850005F926F927F928F929F92AF92BF92CF9250
:10086000DF92EF92FF920F931F93CF93DF938C0150
:10087000D0906001EC01C158DF4FD11003C05E0180
:10088000EC0101C05C0181E00E94560385E00E94FA
:100890005603D8011196FC9011971296EC90F11026
:1008A00002C0FF24F394E11002C0EE24E394F501AA
:1008B00031969E012F5F3F4F41E0D8011496CC90B6
:1008C0007C2D7095740F7F77DE01A70FB11D8C9181
:1008D000D8019C9151E0891350E061E0811101C081
:1008E00060E077247394770EB72DBF777B2EDE01FF
:1008F000A70DB11D7C91791301C05F5F71116F5F0E
:100900007394A72DAF777A2EDE01A70DB11DBC9091
:10091000B91201C05F5FB1106F5FCA94CA947C0CBA
:10092000B72DBF777B2EDE01A70DB11DAC90A912AC
:1009300001C05F5FA1106F5F7394A72DAF777A2E10
:10094000DE01A70DB11D9C90991201C05F5F91104F
:100950006F5F7394B72DBF777B2EDE01A70DB11D9E
:100960008C90891201C05F5F81106F5FC70CAC2D46
:10097000AF77CA2EDE01AC0DB11D7C90791201C09B
:100980005F5F71106F5FC394BC2DBF77CB2EDE010C
:10099000AC0DB11D6C90691201C05F5F61106F5F9B
:1009A000A1E0AC0DAF772E014A0E511CD201CC90C4
:1009B000C91201C05F5FC1106F5FD9015D909D01D9
:1009C00051100CC0862F6F2D0E949510A82F852FD7
:1009D0006E2D0E949510A80FA08317C05916A0F481
:1009E000870F8B0D8A0D890D880D870D860D8C0D57
:1009F00090E070E06F5F7F4F0E94A110D8011396C6
:100A00008C91860F808301C01082D8018C919081D7
:100A1000891708F480834F5F31964F3709F04DCF27
:100A200081E08D2580936001DF91CF911F910F911F
:100A3000FF90EF90DF90CF90BF90AF909F908F90FE
:100A40007F906F905F904F9008952F923F924F92BA
:100A50005F926F927F928F929F92AF92BF92CF924E
:100A6000DF92EF92FF920F931F93CF93DF93EC01EE
:100A700030905F0181589F4F311004C08C01BC2E13
:100A8000FD2E03C0B82EF92E8E0181E00E94560380
:100A9000C82E85E00E945603C80EE980DA80E11076
:100AA00002C0EE24E394D11002C0DD24D394F801F7
:100AB0000B2D1F2DF12C2C2C2094442443944C18E6
:100AC0004F2D4C19822D8F0DDE01A80FB11D6C9199
:100AD000288130E021503109862F90E0821793075A
:100AE00039F0BB24B394611101C0B12C80E002C085
:100AF000B12C81E0DE01A40FB11D7C91472F50E0A5
:100B00004217530711F48F5F02C07111B394A42CE4
:100B1000AF0CDE01AA0DB11D9C91492F50E0421788
:100B2000530711F48F5F02C09111B3946C80A60C2F
:100B30004EEF4A0DDE01A40FB11D8C90482D50E000
:100B40004217530711F48F5F02C08110B3944FEF27
:100B50004A0DDE01A40FB11D7C90472D50E04217D5
:100B6000530711F48F5F02C07110B394DE01AA0D18
:100B7000B11D9C90492D50E04217530711F48F5F2F
:100B800002C09110B394A60C4EEF4A0DDE01A40FE3
:100B9000B11D6C90462D50E04217530711F48F5F42
:100BA00002C06110B3944FEF4A0DDE01A40FB11DD6
:100BB0005C90452D50E04217530711F48F5F02C03F
:100BC0005110B394DE01AA0DB11DAC904A2D50E036
:100BD0004217530711F48F5F02C0A110B394D801DC
:100BE0004D918D0141110BC06D2D0E949510282F44
:100BF0008B2D6E2D0E949510280F208319C050E078
:100C000042175307A4F4960F970F990D980D970D5F
:100C10009A0D960D950D892F90E06B2D70E06F5F0A
:100C20007F4F0E94A1108B81860F808301C01082AC
:100C30004881242F30E0808190E08217930714F0E0
:100C400041504083F3943196BFE7FB1239CF81E0E6
:100C5000832580935F01DF91CF911F910F91FF90CA
:100C6000EF90DF90CF90BF90AF909F908F907F904C
:100C70006F905F904F903F902F9008957F928F924A
:100C80009F92AF92BF92CF92DF92EF92FF920F931B
:100C90001F93CF93DF93EC0120915E0181589F4F0A
:100CA000211105C0382F292F5C2F4D2F04C0582F3C
:100CB000492F3C2F2D2FC880C294C69467E0C622CE
:100CC00089816AE00E949510982EE52EF42E032F5C
:100CD000122FB12CD12C7EEF872E81E00E9456037B
:100CE000782E85E00E945603870D3B2D381B41E08E
:100CF000430F242F280F820F9FEF930FFE01E90F60
:100D0000F11D90819170FE01E40FF11D4081417051
:100D1000940FFE01E30FF11D30813170930FFE013E
:100D2000E20FF11D30813170930F3EEF320FFE0163
:100D3000E30FF11D30813170930F2150FE01E20F5E
:100D4000F11D20812170920FFE01E80FF11D20811D
:100D50002170920F2EEF280FFE01E20FF11D20816E
:100D60002170920F8150FE01E80FF11D808181708A
:100D7000980FA90EF7018081882381F18E3F71F1D0
:100D800080FD15C081E00E945603782E85E00E9408
:100D90005603282F30E0270D311DA99CA0011124F6
:100DA0004217530724F0F7018081816017C0F701D3
:100DB000808180FF11C081E00E945603782E85E07B
:100DC0000E945603282F30E0270D311DC216D3068E
:100DD0001CF0F801808204C0F7018081F801808353
:100DE000B394FFEFEF1AFF0A0F5F1F4F8FE7B812A0
:100DF00074CF80915E0191E0892780935E01DF913D
:100E0000CF911F910F91FF90EF90DF90CF90BF9007
:100E1000AF909F908F907F9008957F928F929F9236
:100E2000AF92BF92CF92DF92EF92FF920F931F93F8
:100E3000CF93DF93EC0190905D018C0101581F4F1F
:100E4000911004C0D02EF12E8C0102C0D82EFD2EA0
:100E500081E00E945603E82E85E00E9456038E0D25
:100E60008F7709F481E09801ED2DFF2D40E0E82E09
:100E7000F12C8881742E781AD801A70DB11D8C90A1
:100E80005901C82CD12CD9018C9190E00196B70161
:100E90000E94A110C816D90609F480828880870CA8
:100EA0008FEF880DD801A80FB11D7C90C72CD12CD5
:100EB000D9018C9190E00196B7010E94A110C8164B
:100EC000D90609F470828394D801A80DB11D7C90D5
:100ED000C72CD12CD9018C9190E00196B7010E94CA
:100EE000A110C816D90609F4708288818150880D36
:100EF000D801A80FB11D8C902F5F3F4FC82CD12C6B
:100F0000D5018C9190E00196B7010E94A110C816FE
:100F1000D90609F480824F5F31964F3709F0A9CF87
:100F200081E0892580935D01DF91CF911F910F9121
:100F3000FF90EF90DF90CF90BF90AF909F908F90F9
:100F40007F900895AF92BF92CF92DF92EF92FF927F
:100F50000F931F93CF93DF93EC0110915C018158A5
:100F60009F4F111105C0F82E092FDC2EED2E04C065
:100F7000D82EE92EFC2E0D2F81E00E945603C82E9C
:100F800085E00E9456038C0D9E0171E0780FAD2C18
:100F9000BE2CEF2DF02F082F0195000F60E0FF24ED
:100FA000FA94E82EE094D9014D919D019C919170A5
:100FB0004170940F462F481BDE01A40FB11D4C91C8
:100FC0004170940F4FEF460FDE01A40FB11D4C91FD
:100FD0004170940F4EEF470FDE01A40FB11D4C91ED
:100FE0004170940F462F480FDE01A40FB11D4C91A4
:100FF0004170940FAE01470F511DDA014C914170C1
:10100000940F472F400FDE01A40FB11D4C9141708A
:10101000940F4E2D460FDE01A40FB11D4C9141706F
:10102000940FD5014D915D0140FF06C0923010F044
:10103000943030F0108205C0933011F4F08201C07A
:1010400040836F5F7F5F31966F3709F0ACCF81E0EF
:10105000812780935C01DF91CF911F910F91FF90C9
:10106000EF90DF90CF90BF90AF9008950F931F93B4
:10107000CF93DF93EC0181E00E945603182F85E0A7
:101080000E945603810F182F110F20E030E090E0EE
:10109000FC0131960FEFAF01420F531FDE01A40F89
:1010A000B11D4C91413810F470E001C074E0A90109
:1010B000480F591FDE01A40FB11D4C91413808F0B3
:1010C0007260622F4FEF420FDC01A40FB11DAD0122
:1010D000DE01A40FB11D4C91413808F07160610F21
:1010E000488150E002C0559547957A95E2F770E047
:1010F000DE01A60FB71F40FF02C01C9201C00C9377
:101100002F5F3F4F2F3F310531F6DF91CF911F9178
:101110000F9108954F925F927F928F929F92AF921C
:10112000BF92CF92DF92EF92FF920F931F93CF93D4
:10113000DF931F92CDB7DEB7FC019080A180809035
:10114000590181589F4F811003C08F01FC0101C0DC
:101150008C0178012F012FEFEAE0CE2ED12CB12C9B
:10116000F70181917F01F2018083891510F08F577B
:101170003EC0882311F08F5F39C081E1820F8F77E5
:1011800091EF920F9F77F801E90FF11D908199235C
:1011900011F09915C0F0F801E80FF11D8081882346
:1011A00011F0891580F0822F8F77F801E80FF11D7B
:1011B0008081882311F0891530F0F7018081882320
:1011C000B9F08915A8F481E029830E945603782E8E
:1011D00085E00E94560390E0870D911DB6010E94A4
:1011E000A11029818A159B051CF481E0F2018083FE
:1011F000FFEF4F1A5F0A2F5F2E3709F0B1CF81E062
:101200008825809359010F90DF91CF911F910F9105
:10121000FF90EF90DF90CF90BF90AF909F908F9016
:101220007F905F904F9008951F93CF93DF931F920D
:10123000CDB7DEB781E069830E945603182F85E0A1
:101240000E945603810F8093760280917702698114
:10125000860F0F90DF91CF911F910895CF93DF9369
:101260001F92CDB7DEB781E069830E945603809359
:101270007602809177026981860F0F90DF91CF917E
:10128000089581E00E94560390917702890F089596
:10129000EF92FF921F93CF93DF931F92CDB7DEB7EC
:1012A000209176027C01E20EF11C81E069830E94AC
:1012B0005603182F85E00E945603810FF7018083A3
:1012C000809177026981860F0F90DF91CF911F91F6
:1012D000FF90EF9008950F931F93CF93DF931F928A
:1012E000CDB7DEB78C01060F111D81E069830E9426
:1012F0005603F8018083809177026981860F0F90F1
:10130000DF91CF911F910F910895EF92FF921F935C
:10131000CF93DF931F92CDB7DEB77C01E60EF11CB1
:1013200081E069830E945603182F85E00E945603CE
:10133000810FF7018083809177026981860F0F907A
:10134000DF91CF911F91FF90EF900895282F30E00B
:101350002150310940916901552747FD509581E0A1
:10136000421753070CF480E00895E0916901EE30D4
:1013700038F4EF5FE0936901F0E0E654FD4F8083BD
:10138000089590916901903158F4E92FFF27E7FD06
:10139000F095E654FD4F8081915090936901089536
:1013A00080E00895E0916901E03138F4FF27E7FD1E
:1013B000F095E654FD4F8081089580E00895E82F70
:1013C000F0E0E659FE4F80810895E82FF0E0E659FD
:1013D000FE4F6083089550E002C0559547956A9589
:1013E000E2F740FD02C0815008958F5F0895ECE759
:1013F000F0E080818F77808380818064808380812A
:1014000080628083EAE7F0E080818460808380816D
:101410008068808317B818B80895BF92CF92DF9282
:10142000EF92FF920F931F93CF93DF93EC01DD2494
:10143000DA940FEF10E00E9417117C0181E00E9406
:101440005603C82E85E00E945603B82E87E00E94FE
:1014500056032B2D2C0D8F70280FC701B8010E9449
:10146000A110280F2993DA9431F7DF91CF911F91C2
:101470000F91FF90EF90DF90CF90BF900895EF9283
:10148000FF921F93CF93DF931F92CDB7DEB77C01FE
:1014900081E069830E945603182F85E00E9456035D
:1014A000810F6981681B91E0960FF701E90FF11D2B
:1014B00091E02081213009F090E022E0260FF70131
:1014C000E20FF11D2081213009F49F5F6D5FF7016C
:1014D000E60FF11D2081213009F49F5F680F2EEF88
:1014E000260FF701E20FF11D2081213009F49F5FE3
:1014F000F701E60FF11D2081213009F49F5F860F6F
:101500002EEF280FF701E20FF11D2081213009F4A1
:101510009F5F2FEF280FF701E20FF11D208121308F
:1015200009F49F5FF701E80FF11D8081813009F414
:101530009F5F915081E0923008F080E00F90DF9142
:10154000CF911F91FF90EF900895AF92BF92CF92ED
:10155000DF92EF92FF920F931F93CF93DF93EC01F3
:10156000C09061019C0121583F4FC11004C0E82E7A
:10157000DD2EE90102C0E22ED32E81E00E94560347
:1015800085E00E9456030E2D1D2DF12CF1E8BF2E93
:10159000AA24AA94F8012081211102C0188214C043
:1015A000213011F4A88210C02F3F11F4B8820CC072
:1015B000213838F06F2D8E2D9D2D0E943F0A8130ED
:1015C00011F0F80180818883F3940F5F1F4F2196FB
:1015D000FFE7FF12DFCF81E08C2580936101DF916F
:1015E000CF911F910F91FF90EF90DF90CF90BF9020
:1015F000AF900895862F90916301911102C091E000
:101600000CC0913019F4109263010895923011F4D6
:1016100093E003C0933019F492E09093630108952E
:1016200020917602FC01E20FF11D8081809375020A
:1016300081E08093CA02862F08953091680120913D
:101640007602311102C02F5F0BC0313011F42150EE
:1016500007C0323011F4205F03C0333019F4205139
:101660002093760220917602FC01E20FF11D808129
:10167000811114C090916301911102C081E00CC0EE
:10168000913019F41092630109C0923011F483E093
:1016900003C0933019F482E080936301862F08958C
:1016A0003091680120917602311102C021500BC0A7
:1016B000313011F42F5F07C0323011F4205103C0D4
:1016C000333019F4205F2093760220917602FC01DA
:1016D000E20FF11D8081811114C09091630191117D
:1016E00002C081E00CC0913019F41092630109C06E
:1016F000923011F483E003C0933019F482E08093B8
:101700006301862F0895862F90916801911104C07E
:1017100090917602905F11C0913021F49091760201
:1017200090510BC0923021F4909176029F5F05C0DA
:10173000933029F490917602915090937602089517
:10174000862F90916801911104C09091760290517A
:1017500011C0913021F490917602905F0BC09230CD
:1017600021F490917602915005C0933029F4909124
:1017700076029F5F9093760208953091680144E16C
:1017800020917602FC01E20FF11D5081552399F062
:10179000311102C02F5F0BC0313011F4215007C04E
:1017A000323011F4205F03C0333019F420512093FC
:1017B0007602415029F7862F089520917602FC0188
:1017C000E20FF11D8081811115C09091630191118B
:1017D00002C081E008C0913019F4109263010BC07F
:1017E000923021F483E08093630105C0933019F4B3
:1017F00082E0F9CF1082862F089530917602FC01A5
:10180000E30FF11D2081222339F03150FC01E30F59
:10181000F11D80818823A9F090916301911102C08C
:1018200081E008C0913019F4109263010BC092302E
:1018300021F483E08093630105C0933019F482E0C2
:10184000F9CF2083862F0895209167012C3089F4E9
:1018500021E0260FFC01E60FF11D3081FC01E20FB3
:10186000F11D30836F3F19F48DE080936701822F63
:10187000089580917702860F0895EF92FF921F934B
:10188000CF93DF931F92CDB7DEB7209167012D3044
:10189000C9F42091B902260F7C01E20EF11C81E00F
:1018A00069830E945603182F85E00E945603810F1A
:1018B000F70180838091B9028F5F8093B9026981BB
:1018C000862F03C080917702860F0F90DF91CF9112
:1018D0001F91FF90EF900895262F809167018F5FF1
:1018E000809367016CE30E94951091110AC080916A
:1018F000750280958093750281E08093CA02822FE1
:10190000089580917702820F0895362F862F67E021
:101910000E949510209175029330C1F028F4913007
:1019200051F0923079F005C09530B9F090F09630D2
:10193000C9F0220F1AC0220F220F20937502909334
:10194000CA0218C0220F220F220F0FC02295207F3B
:101950000CC02295220F207E08C02295220F220F54
:10196000207C03C02795222727952093750281E0CC
:101970008093CA0280917702830F08952FEF260F7C
:10198000FC01E20FF11D20812095208321E0260F2C
:10199000FC01E20FF11D80818095808380917702A8
:1019A000860F0895EF92FF921F93CF93DF931F92BC
:1019B000CDB7DEB77C0181E069830E945603182F02
:1019C00085E00E945603810F8370909176026981B1
:1019D000811102C09F5F09C0813011F4915005C090
:1019E000823011F4905F01C0905190937602809103
:1019F0007602F701E80FF11D80818093750281E086
:101A00008093CA0280917702860F0F90DF91CF9169
:101A10001F91FF90EF900895CF92DF92FF920F9366
:101A20001F93CF93DF931F92CDB7DEB76C019091D8
:101A300076029F5F8601090F111D81E069830E9474
:101A40005603F82E85E00E9456038F0DF80180831F
:101A500080917602F601E80FF11D80818093750276
:101A600081E08093CA02809177026981860F0F908E
:101A7000DF91CF911F910F91FF90DF90CF9008954C
:101A800021E0260FDC01A20FB11D2FEF260FFC0174
:101A9000E20FF11D8C919081890F8093750281E096
:101AA0008093CA0280917702860F0895FC01E60FA9
:101AB000F11D3081262F231BFC01E20FF11D2FEFBA
:101AC0002083360FFC01E30FF11D208382E0860F97
:101AD0000895FC01E60FF11D208127FD0DC03FEFA9
:101AE000360FDC01A30FB11D2C93208131E0360F9E
:101AF000FC01E30FF11D208380917702860F08958A
:101B000021E0260FFC01E20FF11D10822FEF260FBE
:101B1000FC01E20FF11D108280917702880F860F81
:101B200008951F93AC01A62F1091B802262F30E024
:101B300017FF0CC0FC01E20FF31F808163E00E94DD
:101B40009510913091F49093B8021DC012306CF052
:101B5000FC01E20FF31F808163E00E949510911158
:101B600004C08FEF8093B8020EC0FA01E20FF31F9A
:101B70002081120390011124B4E035952795BA9580
:101B8000E1F720937702809177028A0F1F910895E1
:101B900083E0860F0895262F30E042E0460FFC01D7
:101BA000E40FF11D4081F901E40FF11DAF01FC01CB
:101BB000E40FF11D41E0460FDC01A40FB11D4C9173
:101BC000240F311DDC01A20FB11D80819C91890F72
:101BD000808383E0860F0895262F30E042E0460F91
:101BE000FC01E40FF11D4081F901E40FF11DAF018B
:101BF000FC01E40FF11D41E0460FDC01A40FB11D13
:101C00004C91240F311DDC01A20FB11D80819C91EC
:101C1000891B808383E0860F089521E0260FFC0155
:101C2000E20FF11D8081860F089522E0260FFC014E
:101C3000E20FF11D2081260FFC01E20FF11D208132
:101C4000211106C06F5FFC01E60FF11D8081089530
:101C500083E0860F08956F5F860F911DFC018081E0
:101C6000089522E0260FFC01E20FF11D2081260FCE
:101C7000FC01E20FF11D208121502083211106C0BB
:101C80006F5FFC01E60FF11D8081089583E0860FF0
:101C9000089583E0860F0895262F30E042E0460F36
:101CA000FC01E40FF11D4081F901E40FF11DDC019D
:101CB000AE0FB11D41E0460FFC01E40FF11D408164
:101CC000240F311DFC01E20FF11D9C9180819817BA
:101CD00011F086E001C083E0860F089522E0260F10
:101CE000FC01E20FF11D80818093750281E08093F9
:101CF000CA0283E0860F08952FEF260FDC01A20FA2
:101D0000B11D21E0260FFC01E20FF11D8C919081A5
:101D1000890F8093750281E08093CA0280917702D7
:101D2000860F089521E0260FFC01E20FF11D2081AE
:101D3000121634F4FC01E60FF11D80818F5F808361
:101D400080917702860F08950F931F93CF93DF93AF
:101D5000EC01162F81E0860FFE01E80FF11D808156
:101D60001816A4F481E00E945603082F85E00E9413
:101D7000560390E0800F911D6AE070E00E94A11070
:101D8000049724F4C10FD11D8FEF888380917702CF
:101D9000810FDF91CF911F910F91089521E0260FC0
:101DA000FC01E20FF11D208127FF05C0FC01E60FB9
:101DB000F11D81E8808380917702860F08950F934B
:101DC0001F93CF93DF93EC01162F81E0860FFE0166
:101DD000E80FF11D808181111CC08FEF860FFE017D
:101DE000E80FF11D80811816A4F481E00E945603CB
:101DF000082F85E00E94560390E0800F911D6AE055
:101E000070E00E94A110049724F4C10FD11D81E05D
:101E1000888380917702810FDF91CF911F910F917D
:101E20000895909176029F5F9093760281E0860FED
:101E300008959091760291509093760281E0860FFA
:101E4000089520917602FC01E20FF11D90819F5FC1
:101E5000908381E0860F089520917602FC01E20FC5
:101E6000F11D90819150908381E0860F089520911B
:101E70007602FC01E20FF11D80818093750281E002
:101E80008093CA02860F0895EF92FF921F93CF931B
:101E9000DF931F92CDB7DEB7209176027C01E20E70
:101EA000F11C81E069830E945603182F85E00E948F
:101EB0005603810FF7018083698181E0860F0F90BF
:101EC000DF91CF911F91FF90EF9008959C01462FD5
:101ED00080917602F901E80FF11D8081811117C010
:101EE000AFE7A60F51E0B9E04F5FF901E40FF11D34
:101EF00080816B2F0E949510963011F45F5F03C0B4
:101F0000973009F45150552311F04A13EDCF81E079
:101F1000840F08959C01462F80917602F901E80F05
:101F2000F11D81E08083A1E8A60F50E0B9E0F9013E
:101F3000E40FF11D80816B2F0E949510963011F4F3
:101F40005F5F03C0973009F451508FEF840F552322
:101F500021F08A1711F0482FEACF842F0895CF93EC
:101F6000DF93CDB7DEB7C255D1090FB6F894DEBF07
:101F70000FBECDBF0E94F70981E00E945603182FC3
:101F800085E00E94560390E0810F911D0E941C1174
:101F900082E3E5E0F1E0DE01119601900D928A9571
:101FA000E1F780E2E7E3F1E0DE01D39601900D92E4
:101FB0008A95E1F781E0809376028093B8028AE601
:101FC00091E00E940D0A08E712E081E00E945603AA
:101FD000F82E85E00E9456038F0DF80181938F0142
:101FE000F2E0083B1F0789F780E48AB9F89483E898
:101FF00084BD83E085BD8FE380937E0081E0809384
:1020000077028093B8021092630110926801C12C8C
:10201000D12CE12CF12C812C912C312C49E1742E06
:1020200080E00E945603B82E83E00E945603082FDA
:1020300010E00B0D111D94E0000F111F9A95E1F7B0
:102040005801B694A794B694A794280135E0569405
:1020500047943A95E1F782E00E945603682E84E0A7
:102060000E945603680E862D8F70682E41F4E32D72
:10207000F0E0E659FE4F608062948FE06822EFEF57
:102080008E1A9E0A84149504E0F0E32DF0E0E659E0
:10209000FE4F8081672D0E949510FE013196E90F59
:1020A000F11DE90FF11D0190F081E02D632D8AE60D
:1020B00091E00995382E8091B80280937702812CA7
:1020C000912CFFEFEF1AFF0AE016F106C0F0E09145
:1020D0006401EF5FE09364018091CA02813019F4DA
:1020E0001092CA0206C0F0E0E659FE4F808180934C
:1020F000750280917502809587BDE12CF12C8FEFE0
:10210000C81AD80ACA14DB0408F48ACFFE01319633
:10211000E60DF11DE60DF11D02A8F3A9E02D8AE6FA
:1021200091E00995C12CD12C7BCF991B79E004C09B
:10213000991F961708F0961B881F7A95C9F7809506
:10214000089597FB072E16F4009407D077FD09D069
:102150000E94B51007FC05D03EF4909581959F4FE5
:102160000895709561957F4F0895AA1BBB1B51E19F
:1021700007C0AA1FBB1FA617B70710F0A61BB70BF7
:10218000881F991F5A95A9F780959095BC01CD019C
:1021900008958F929F92AF92BF92CF92DF92EF926B
:1021A000FF92CF93DF93EC01688179818A819B81D3
:1021B000611571058105910521F464E279ED8BE5E6
:1021C00097E02DE133EF41E050E00E9427114901F3
:1021D0005A019B01AC01A7EAB1E40E9446116B01D0
:1021E0007C01ACEEB4EFA50194010E945411C60E1F
:1021F000D71EE81EF91EF7FE06C081E0C81AD108F6
:10220000E10880E8F80AC882D982EA82FB82C60126
:102210009F77DF91CF91FF90EF90DF90CF90BF90AD
:10222000AF909F908F9008950E94C910089581E00B
:1022300091E00E94C9100895A0E0B0E080930101F0
:1022400090930201A0930301B09304010895052E19
:1022500097FB1EF400940E943E1157FD07D00E9488
:10226000591107FC03D04EF40C943E115095409543
:10227000309521953F4F4F4F5F4F08959095809532
:10228000709561957F4F8F4F9F4F08950E947B11EE
:10229000A59F900DB49F900DA49F800D911D1124BA
:1022A0000895B7FF0C9446110E944611821B930BB0
:1022B0000895A1E21A2EAA1BBB1BFD010DC0AA1F87
:1022C000BB1FEE1FFF1FA217B307E407F50720F09F
:1022D000A21BB30BE40BF50B661F771F881F991F1A
:1022E0001A9469F760957095809590959B01AC0163
:1022F000BD01CF010895A29FB001B39FC001A39F6C
:10230000700D811D1124911DB29F700D811D11242E
:08231000911D0895F894FFCF20
:102318001101000000AA0271027A0283028F0214DE
:10232800092E09410948099B02B502BF02C902D317
:1023380002DE02EA02FC02070326036B098509385C
:10234800033C0349034D036D038A0853006E01B92A
:1023580001BB03DD030204A50A25053E060D072778
:0823680004A20736086D030012
:00000001FF
